{
  "_format": "hh-sol-artifact-1",
  "contractName": "Maze",
  "sourceName": "contracts/Maze.sol",
  "abi": [
    {
      "inputs": [],
      "stateMutability": "nonpayable",
      "type": "constructor"
    },
    {
      "inputs": [
        {
          "internalType": "address",
          "name": "owner",
          "type": "address"
        }
      ],
      "name": "OwnableInvalidOwner",
      "type": "error"
    },
    {
      "inputs": [
        {
          "internalType": "address",
          "name": "account",
          "type": "address"
        }
      ],
      "name": "OwnableUnauthorizedAccount",
      "type": "error"
    },
    {
      "anonymous": false,
      "inputs": [
        {
          "indexed": false,
          "internalType": "uint8",
          "name": "maze",
          "type": "uint8"
        },
        {
          "indexed": false,
          "internalType": "bool",
          "name": "unlocked",
          "type": "bool"
        }
      ],
      "name": "MazeStatusChanged",
      "type": "event"
    },
    {
      "anonymous": false,
      "inputs": [
        {
          "indexed": true,
          "internalType": "address",
          "name": "previousOwner",
          "type": "address"
        },
        {
          "indexed": true,
          "internalType": "address",
          "name": "newOwner",
          "type": "address"
        }
      ],
      "name": "OwnershipTransferred",
      "type": "event"
    },
    {
      "inputs": [],
      "name": "GRID_SIZE",
      "outputs": [
        {
          "internalType": "uint8",
          "name": "",
          "type": "uint8"
        }
      ],
      "stateMutability": "view",
      "type": "function"
    },
    {
      "inputs": [
        {
          "internalType": "uint256",
          "name": "",
          "type": "uint256"
        }
      ],
      "name": "MAZE_UNLOCK_DOTS_REQUIRED",
      "outputs": [
        {
          "internalType": "uint256",
          "name": "",
          "type": "uint256"
        }
      ],
      "stateMutability": "view",
      "type": "function"
    },
    {
      "inputs": [
        {
          "internalType": "uint256",
          "name": "",
          "type": "uint256"
        }
      ],
      "name": "MAZE_UNLOCK_MINT_REQUIRED",
      "outputs": [
        {
          "internalType": "uint256",
          "name": "",
          "type": "uint256"
        }
      ],
      "stateMutability": "view",
      "type": "function"
    },
    {
      "inputs": [],
      "name": "TOTAL_MAZES",
      "outputs": [
        {
          "internalType": "uint8",
          "name": "",
          "type": "uint8"
        }
      ],
      "stateMutability": "view",
      "type": "function"
    },
    {
      "inputs": [
        {
          "internalType": "uint256",
          "name": "playerid",
          "type": "uint256"
        }
      ],
      "name": "_getMaxStride",
      "outputs": [
        {
          "internalType": "uint8",
          "name": "",
          "type": "uint8"
        }
      ],
      "stateMutability": "view",
      "type": "function"
    },
    {
      "inputs": [
        {
          "internalType": "uint8",
          "name": "maze",
          "type": "uint8"
        },
        {
          "internalType": "uint256",
          "name": "playerid",
          "type": "uint256"
        }
      ],
      "name": "_isMazeUnlocked",
      "outputs": [
        {
          "internalType": "bool",
          "name": "",
          "type": "bool"
        }
      ],
      "stateMutability": "view",
      "type": "function"
    },
    {
      "inputs": [
        {
          "internalType": "uint8",
          "name": "x_victim",
          "type": "uint8"
        },
        {
          "internalType": "uint8",
          "name": "y_victim",
          "type": "uint8"
        },
        {
          "internalType": "uint8",
          "name": "maze_victim",
          "type": "uint8"
        }
      ],
      "name": "_isSurrounded",
      "outputs": [
        {
          "internalType": "bool",
          "name": "",
          "type": "bool"
        }
      ],
      "stateMutability": "view",
      "type": "function"
    },
    {
      "inputs": [
        {
          "internalType": "uint8",
          "name": "maze",
          "type": "uint8"
        },
        {
          "internalType": "uint8",
          "name": "x",
          "type": "uint8"
        },
        {
          "internalType": "uint8",
          "name": "y",
          "type": "uint8"
        },
        {
          "internalType": "uint8",
          "name": "oldmaze",
          "type": "uint8"
        },
        {
          "internalType": "uint8",
          "name": "oldx",
          "type": "uint8"
        },
        {
          "internalType": "uint8",
          "name": "oldy",
          "type": "uint8"
        },
        {
          "internalType": "uint256",
          "name": "playerid",
          "type": "uint256"
        },
        {
          "internalType": "bool",
          "name": "ignorestride",
          "type": "bool"
        }
      ],
      "name": "_movePlayerInMaze",
      "outputs": [
        {
          "internalType": "uint256",
          "name": "",
          "type": "uint256"
        }
      ],
      "stateMutability": "nonpayable",
      "type": "function"
    },
    {
      "inputs": [
        {
          "internalType": "uint8",
          "name": "mazeId",
          "type": "uint8"
        }
      ],
      "name": "_setObstaclesForMaze",
      "outputs": [],
      "stateMutability": "nonpayable",
      "type": "function"
    },
    {
      "inputs": [
        {
          "internalType": "address",
          "name": "",
          "type": "address"
        }
      ],
      "name": "allowedOperators",
      "outputs": [
        {
          "internalType": "bool",
          "name": "",
          "type": "bool"
        }
      ],
      "stateMutability": "view",
      "type": "function"
    },
    {
      "inputs": [],
      "name": "gameEquipContract",
      "outputs": [
        {
          "internalType": "contract GameEquip",
          "name": "",
          "type": "address"
        }
      ],
      "stateMutability": "view",
      "type": "function"
    },
    {
      "inputs": [
        {
          "internalType": "uint8",
          "name": "",
          "type": "uint8"
        },
        {
          "internalType": "uint8",
          "name": "",
          "type": "uint8"
        },
        {
          "internalType": "uint8",
          "name": "",
          "type": "uint8"
        }
      ],
      "name": "hasplayer",
      "outputs": [
        {
          "internalType": "uint256",
          "name": "",
          "type": "uint256"
        }
      ],
      "stateMutability": "view",
      "type": "function"
    },
    {
      "inputs": [
        {
          "internalType": "uint8",
          "name": "",
          "type": "uint8"
        }
      ],
      "name": "maze_dots_consumed",
      "outputs": [
        {
          "internalType": "uint256",
          "name": "",
          "type": "uint256"
        }
      ],
      "stateMutability": "view",
      "type": "function"
    },
    {
      "inputs": [
        {
          "internalType": "uint8",
          "name": "",
          "type": "uint8"
        }
      ],
      "name": "maze_unlocked",
      "outputs": [
        {
          "internalType": "bool",
          "name": "",
          "type": "bool"
        }
      ],
      "stateMutability": "view",
      "type": "function"
    },
    {
      "inputs": [
        {
          "internalType": "uint8",
          "name": "",
          "type": "uint8"
        },
        {
          "internalType": "uint8",
          "name": "",
          "type": "uint8"
        },
        {
          "internalType": "uint8",
          "name": "",
          "type": "uint8"
        }
      ],
      "name": "mazes",
      "outputs": [
        {
          "internalType": "enum Maze.CellState",
          "name": "",
          "type": "uint8"
        }
      ],
      "stateMutability": "view",
      "type": "function"
    },
    {
      "inputs": [],
      "name": "owner",
      "outputs": [
        {
          "internalType": "address",
          "name": "",
          "type": "address"
        }
      ],
      "stateMutability": "view",
      "type": "function"
    },
    {
      "inputs": [],
      "name": "renounceOwnership",
      "outputs": [],
      "stateMutability": "nonpayable",
      "type": "function"
    },
    {
      "inputs": [
        {
          "internalType": "address",
          "name": "_contractAddress",
          "type": "address"
        }
      ],
      "name": "setGameEquipContract",
      "outputs": [],
      "stateMutability": "nonpayable",
      "type": "function"
    },
    {
      "inputs": [
        {
          "internalType": "uint256",
          "name": "level",
          "type": "uint256"
        },
        {
          "internalType": "uint256",
          "name": "value",
          "type": "uint256"
        }
      ],
      "name": "setMazeUnlockDotsRequired",
      "outputs": [],
      "stateMutability": "nonpayable",
      "type": "function"
    },
    {
      "inputs": [
        {
          "internalType": "uint256",
          "name": "level",
          "type": "uint256"
        },
        {
          "internalType": "uint256",
          "name": "value",
          "type": "uint256"
        }
      ],
      "name": "setMazeUnlockMintsRequired",
      "outputs": [],
      "stateMutability": "nonpayable",
      "type": "function"
    },
    {
      "inputs": [
        {
          "internalType": "address",
          "name": "_operator",
          "type": "address"
        },
        {
          "internalType": "bool",
          "name": "allowed",
          "type": "bool"
        }
      ],
      "name": "setOperator",
      "outputs": [],
      "stateMutability": "nonpayable",
      "type": "function"
    },
    {
      "inputs": [
        {
          "internalType": "uint256",
          "name": "dots",
          "type": "uint256"
        }
      ],
      "name": "setTotalDot",
      "outputs": [],
      "stateMutability": "nonpayable",
      "type": "function"
    },
    {
      "inputs": [
        {
          "internalType": "uint8",
          "name": "maze",
          "type": "uint8"
        },
        {
          "internalType": "uint8",
          "name": "x",
          "type": "uint8"
        },
        {
          "internalType": "uint8",
          "name": "y",
          "type": "uint8"
        },
        {
          "internalType": "uint256",
          "name": "playerid",
          "type": "uint256"
        }
      ],
      "name": "setplayer",
      "outputs": [],
      "stateMutability": "nonpayable",
      "type": "function"
    },
    {
      "inputs": [],
      "name": "total_dots_consumed",
      "outputs": [
        {
          "internalType": "uint256",
          "name": "",
          "type": "uint256"
        }
      ],
      "stateMutability": "view",
      "type": "function"
    },
    {
      "inputs": [],
      "name": "total_dots_in_mazes",
      "outputs": [
        {
          "internalType": "uint256",
          "name": "",
          "type": "uint256"
        }
      ],
      "stateMutability": "view",
      "type": "function"
    },
    {
      "inputs": [
        {
          "internalType": "address",
          "name": "newOwner",
          "type": "address"
        }
      ],
      "name": "transferOwnership",
      "outputs": [],
      "stateMutability": "nonpayable",
      "type": "function"
    },
    {
      "inputs": [
        {
          "internalType": "uint8",
          "name": "maze",
          "type": "uint8"
        },
        {
          "internalType": "bool",
          "name": "unlocked",
          "type": "bool"
        }
      ],
      "name": "unlockMaze",
      "outputs": [],
      "stateMutability": "nonpayable",
      "type": "function"
    },
    {
      "inputs": [
        {
          "internalType": "uint256",
          "name": "mintCount",
          "type": "uint256"
        }
      ],
      "name": "updateMintCount",
      "outputs": [],
      "stateMutability": "nonpayable",
      "type": "function"
    }
  ],
  "bytecode": "0x60806040526000600555610ec4600655604051806101200160405280600061ffff168152602001600061ffff168152602001600061ffff168152602001600061ffff168152602001600061ffff1681526020016105dc61ffff1681526020016107d061ffff168152602001610b5461ffff168152602001610d4861ffff1681525060089060096100909291906110a1565b50604051806101200160405280600061ffff168152602001606461ffff16815260200160c861ffff16815260200161012c61ffff16815260200161022b61ffff168152602001600061ffff168152602001600061ffff168152602001600061ffff168152602001600061ffff1681525060099060096101109291906110a1565b5034801561011d57600080fd5b5033600073ffffffffffffffffffffffffffffffffffffffff168173ffffffffffffffffffffffffffffffffffffffff16036101915760006040517f1e4fbdf70000000000000000000000000000000000000000000000000000000081526004016101889190611152565b60405180910390fd5b6101a0816101d560201b60201c565b5060005b600a60ff168160ff1610156101cf576101c28161029960201b60201c565b80806001019150506101a4565b506112ea565b60008060009054906101000a900473ffffffffffffffffffffffffffffffffffffffff169050816000806101000a81548173ffffffffffffffffffffffffffffffffffffffff021916908373ffffffffffffffffffffffffffffffffffffffff1602179055508173ffffffffffffffffffffffffffffffffffffffff168173ffffffffffffffffffffffffffffffffffffffff167f8be0079c531659141344cd1fd0a4f28419497f9722a3daafe3b4186f6b6457e060405160405180910390a35050565b600760003373ffffffffffffffffffffffffffffffffffffffff1673ffffffffffffffffffffffffffffffffffffffff16815260200190815260200160002060009054906101000a900460ff168061032957506102fa61107860201b60201c565b73ffffffffffffffffffffffffffffffffffffffff163373ffffffffffffffffffffffffffffffffffffffff16145b610368576040517f08c379a000000000000000000000000000000000000000000000000000000000815260040161035f906111ca565b60405180910390fd5b60006002826103779190611226565b60ff16036107ed576000600590505b600f8160ff16101561048b576002600160008460ff1660ff16815260200190815260200160002060008360ff1660ff16815260200190815260200160002060008360ff1660ff16815260200190815260200160002060006101000a81548160ff021916908360028111156103fd576103fc611257565b5b02179055506002600160008460ff1660ff168152602001908152602001600020600083601361042c91906112b5565b60ff1660ff16815260200190815260200160002060008360ff1660ff16815260200190815260200160002060006101000a81548160ff0219169083600281111561047957610478611257565b5b02179055508080600101915050610386565b506000600160008360ff1660ff1681526020019081526020016000206000600960ff1681526020019081526020016000206000600960ff16815260200190815260200160002060006101000a81548160ff021916908360028111156104f3576104f2611257565b5b02179055506000600160008360ff1660ff1681526020019081526020016000206000600a60ff1681526020019081526020016000206000600a60ff16815260200190815260200160002060006101000a81548160ff0219169083600281111561055f5761055e611257565b5b02179055506000600160008360ff1660ff1681526020019081526020016000206000600a60ff1681526020019081526020016000206000600960ff16815260200190815260200160002060006101000a81548160ff021916908360028111156105cb576105ca611257565b5b02179055506000600160008360ff1660ff1681526020019081526020016000206000600960ff1681526020019081526020016000206000600a60ff16815260200190815260200160002060006101000a81548160ff0219169083600281111561063757610636611257565b5b02179055506002600160008360ff1660ff1681526020019081526020016000206000600860ff1681526020019081526020016000206000600960ff16815260200190815260200160002060006101000a81548160ff021916908360028111156106a3576106a2611257565b5b02179055506002600160008360ff1660ff1681526020019081526020016000206000600860ff1681526020019081526020016000206000600a60ff16815260200190815260200160002060006101000a81548160ff0219169083600281111561070f5761070e611257565b5b02179055506002600160008360ff1660ff1681526020019081526020016000206000600b60ff1681526020019081526020016000206000600960ff16815260200190815260200160002060006101000a81548160ff0219169083600281111561077b5761077a611257565b5b02179055506002600160008360ff1660ff1681526020019081526020016000206000600b60ff1681526020019081526020016000206000600a60ff16815260200190815260200160002060006101000a81548160ff021916908360028111156107e7576107e6611257565b5b02179055505b60016002826107fc9190611226565b60ff1603611075576002600160008360ff1660ff1681526020019081526020016000206000600560ff1681526020019081526020016000206000600560ff16815260200190815260200160002060006101000a81548160ff0219169083600281111561086b5761086a611257565b5b02179055506002600160008360ff1660ff1681526020019081526020016000206000600560ff1681526020019081526020016000206000600660ff16815260200190815260200160002060006101000a81548160ff021916908360028111156108d7576108d6611257565b5b02179055506002600160008360ff1660ff1681526020019081526020016000206000600560ff1681526020019081526020016000206000600760ff16815260200190815260200160002060006101000a81548160ff0219169083600281111561094357610942611257565b5b02179055506002600160008360ff1660ff1681526020019081526020016000206000600660ff1681526020019081526020016000206000600560ff16815260200190815260200160002060006101000a81548160ff021916908360028111156109af576109ae611257565b5b02179055506002600160008360ff1660ff1681526020019081526020016000206000600760ff1681526020019081526020016000206000600560ff16815260200190815260200160002060006101000a81548160ff02191690836002811115610a1b57610a1a611257565b5b02179055506002600160008360ff1660ff1681526020019081526020016000206000600e60ff1681526020019081526020016000206000600e60ff16815260200190815260200160002060006101000a81548160ff02191690836002811115610a8757610a86611257565b5b02179055506002600160008360ff1660ff1681526020019081526020016000206000600e60ff1681526020019081526020016000206000600d60ff16815260200190815260200160002060006101000a81548160ff02191690836002811115610af357610af2611257565b5b02179055506002600160008360ff1660ff1681526020019081526020016000206000600e60ff1681526020019081526020016000206000600c60ff16815260200190815260200160002060006101000a81548160ff02191690836002811115610b5f57610b5e611257565b5b02179055506002600160008360ff1660ff1681526020019081526020016000206000600d60ff1681526020019081526020016000206000600e60ff16815260200190815260200160002060006101000a81548160ff02191690836002811115610bcb57610bca611257565b5b02179055506002600160008360ff1660ff1681526020019081526020016000206000600c60ff1681526020019081526020016000206000600e60ff16815260200190815260200160002060006101000a81548160ff02191690836002811115610c3757610c36611257565b5b02179055506002600160008360ff1660ff1681526020019081526020016000206000600560ff1681526020019081526020016000206000600e60ff16815260200190815260200160002060006101000a81548160ff02191690836002811115610ca357610ca2611257565b5b02179055506002600160008360ff1660ff1681526020019081526020016000206000600560ff1681526020019081526020016000206000600d60ff16815260200190815260200160002060006101000a81548160ff02191690836002811115610d0f57610d0e611257565b5b02179055506002600160008360ff1660ff1681526020019081526020016000206000600560ff1681526020019081526020016000206000600c60ff16815260200190815260200160002060006101000a81548160ff02191690836002811115610d7b57610d7a611257565b5b02179055506002600160008360ff1660ff1681526020019081526020016000206000600660ff1681526020019081526020016000206000600e60ff16815260200190815260200160002060006101000a81548160ff02191690836002811115610de757610de6611257565b5b02179055506002600160008360ff1660ff1681526020019081526020016000206000600760ff1681526020019081526020016000206000600e60ff16815260200190815260200160002060006101000a81548160ff02191690836002811115610e5357610e52611257565b5b02179055506002600160008360ff1660ff1681526020019081526020016000206000600e60ff1681526020019081526020016000206000600560ff16815260200190815260200160002060006101000a81548160ff02191690836002811115610ebf57610ebe611257565b5b02179055506002600160008360ff1660ff1681526020019081526020016000206000600d60ff1681526020019081526020016000206000600560ff16815260200190815260200160002060006101000a81548160ff02191690836002811115610f2b57610f2a611257565b5b02179055506002600160008360ff1660ff1681526020019081526020016000206000600c60ff1681526020019081526020016000206000600560ff16815260200190815260200160002060006101000a81548160ff02191690836002811115610f9757610f96611257565b5b02179055506002600160008360ff1660ff1681526020019081526020016000206000600e60ff1681526020019081526020016000206000600660ff16815260200190815260200160002060006101000a81548160ff0219169083600281111561100357611002611257565b5b02179055506002600160008360ff1660ff1681526020019081526020016000206000600e60ff1681526020019081526020016000206000600760ff16815260200190815260200160002060006101000a81548160ff0219169083600281111561106f5761106e611257565b5b02179055505b50565b60008060009054906101000a900473ffffffffffffffffffffffffffffffffffffffff16905090565b8280548282559060005260206000209081019282156110e3579160200282015b828111156110e2578251829061ffff169055916020019190600101906110c1565b5b5090506110f091906110f4565b5090565b5b8082111561110d5760008160009055506001016110f5565b5090565b600073ffffffffffffffffffffffffffffffffffffffff82169050919050565b600061113c82611111565b9050919050565b61114c81611131565b82525050565b60006020820190506111676000830184611143565b92915050565b600082825260208201905092915050565b7f4e6f7420616c6c6f776564000000000000000000000000000000000000000000600082015250565b60006111b4600b8361116d565b91506111bf8261117e565b602082019050919050565b600060208201905081810360008301526111e3816111a7565b9050919050565b600060ff82169050919050565b7f4e487b7100000000000000000000000000000000000000000000000000000000600052601260045260246000fd5b6000611231826111ea565b915061123c836111ea565b92508261124c5761124b6111f7565b5b828206905092915050565b7f4e487b7100000000000000000000000000000000000000000000000000000000600052602160045260246000fd5b7f4e487b7100000000000000000000000000000000000000000000000000000000600052601160045260246000fd5b60006112c0826111ea565b91506112cb836111ea565b9250828203905060ff8111156112e4576112e3611286565b5b92915050565b61323c806112f96000396000f3fe608060405234801561001057600080fd5b50600436106101c45760003560e01c80638fd7b384116100f9578063d104ba1f11610097578063e0b5efed11610071578063e0b5efed14610517578063ee342b3c14610533578063f2c7218e14610563578063f2fde38b14610593576101c4565b8063d104ba1f146104af578063d2e80879146104cb578063d71007eb146104fb576101c4565b8063b44f7809116100d3578063b44f780914610403578063badeb87114610433578063c43f27be14610463578063cffd91261461047f576101c4565b80638fd7b38414610397578063a6674f88146103b5578063b298d911146103e5576101c4565b8063674ed93311610166578063776e12b711610140578063776e12b71461030d5780637fc4eda81461032b5780637fef46f5146103495780638da5cb5b14610379576101c4565b8063674ed933146102c95780636a2124ae146102e5578063715018a614610303576101c4565b806333480c8e116101a257806333480c8e14610245578063392cec20146102615780633b3188d514610291578063558a7297146102ad576101c4565b806304858b6d146101c95780631031a5e8146101f957806331e86c5114610215575b600080fd5b6101e360048036038101906101de9190612806565b6105af565b6040516101f09190612842565b60405180910390f35b610213600480360381019061020e91906128ce565b6105d3565b005b61022f600480360381019061022a919061290e565b61070a565b60405161023c91906129d8565b60405180910390f35b61025f600480360381019061025a9190612a51565b610746565b005b61027b60048036038101906102769190612806565b610792565b6040516102889190612842565b60405180910390f35b6102ab60048036038101906102a69190612a7e565b6107b6565b005b6102c760048036038101906102c29190612ae5565b6108d1565b005b6102e360048036038101906102de9190612b25565b610934565b005b6102ed610963565b6040516102fa9190612bc4565b60405180910390f35b61030b610989565b005b61031561099d565b6040516103229190612bee565b60405180910390f35b6103336109a2565b6040516103409190612bee565b60405180910390f35b610363600480360381019061035e919061290e565b6109a7565b6040516103709190612c18565b60405180910390f35b610381610dca565b60405161038e9190612c42565b60405180910390f35b61039f610df3565b6040516103ac9190612842565b60405180910390f35b6103cf60048036038101906103ca9190612a51565b610df9565b6040516103dc9190612c18565b60405180910390f35b6103ed610e19565b6040516103fa9190612842565b60405180910390f35b61041d60048036038101906104189190612806565b610e1f565b60405161042a9190612bee565b60405180910390f35b61044d60048036038101906104489190612c5d565b610ed5565b60405161045a9190612c18565b60405180910390f35b61047d60048036038101906104789190612806565b610ef5565b005b61049960048036038101906104949190612c8a565b611044565b6040516104a69190612842565b60405180910390f35b6104c960048036038101906104c49190612806565b611628565b005b6104e560048036038101906104e0919061290e565b61163a565b6040516104f29190612842565b60405180910390f35b61051560048036038101906105109190612c5d565b61166c565b005b610531600480360381019061052c9190612b25565b612445565b005b61054d60048036038101906105489190612d40565b612474565b60405161055a9190612c18565b60405180910390f35b61057d60048036038101906105789190612c5d565b612563565b60405161058a9190612842565b60405180910390f35b6105ad60048036038101906105a89190612a51565b61257b565b005b600981815481106105bf57600080fd5b906000526020600020016000915090505481565b600760003373ffffffffffffffffffffffffffffffffffffffff1673ffffffffffffffffffffffffffffffffffffffff16815260200190815260200160002060009054906101000a900460ff168061065d575061062e610dca565b73ffffffffffffffffffffffffffffffffffffffff163373ffffffffffffffffffffffffffffffffffffffff16145b61069c576040517f08c379a000000000000000000000000000000000000000000000000000000000815260040161069390612ddd565b60405180910390fd5b80600360008460ff1660ff16815260200190815260200160002060006101000a81548160ff0219169083151502179055507fb3e5933b0271934a09ff33b8f2b18a5d1a4dba80332f7d160830649c9d73127482826040516106fe929190612dfd565b60405180910390a15050565b6001602052826000526040600020602052816000526040600020602052806000526040600020600092509250509054906101000a900460ff1681565b61074e612601565b80600a60006101000a81548173ffffffffffffffffffffffffffffffffffffffff021916908373ffffffffffffffffffffffffffffffffffffffff16021790555050565b600881815481106107a257600080fd5b906000526020600020016000915090505481565b600760003373ffffffffffffffffffffffffffffffffffffffff1673ffffffffffffffffffffffffffffffffffffffff16815260200190815260200160002060009054906101000a900460ff16806108405750610811610dca565b73ffffffffffffffffffffffffffffffffffffffff163373ffffffffffffffffffffffffffffffffffffffff16145b61087f576040517f08c379a000000000000000000000000000000000000000000000000000000000815260040161087690612ddd565b60405180910390fd5b80600260008660ff1660ff16815260200190815260200160002060008560ff1660ff16815260200190815260200160002060008460ff1660ff1681526020019081526020016000208190555050505050565b6108d9612601565b80600760008473ffffffffffffffffffffffffffffffffffffffff1673ffffffffffffffffffffffffffffffffffffffff16815260200190815260200160002060006101000a81548160ff0219169083151502179055505050565b61093c612601565b806009838154811061095157610950612e26565b5b90600052602060002001819055505050565b600a60009054906101000a900473ffffffffffffffffffffffffffffffffffffffff1681565b610991612601565b61099b6000612688565b565b600a81565b601481565b60008060008460ff161480610a0f57506000600260008560ff1660ff16815260200190815260200160002060008760ff1660ff16815260200190815260200160002060006001876109f89190612e84565b60ff1660ff16815260200190815260200160002054115b80610a9d5750600280811115610a2857610a27612961565b5b600160008560ff1660ff16815260200190815260200160002060008760ff1660ff1681526020019081526020016000206000600187610a679190612e84565b60ff1660ff16815260200190815260200160002060009054906101000a900460ff166002811115610a9b57610a9a612961565b5b145b9050600060016014610aaf9190612e84565b60ff168560ff161480610b1557506000600260008660ff1660ff16815260200190815260200160002060008860ff1660ff1681526020019081526020016000206000600188610afe9190612eb9565b60ff1660ff16815260200190815260200160002054115b80610ba35750600280811115610b2e57610b2d612961565b5b600160008660ff1660ff16815260200190815260200160002060008860ff1660ff1681526020019081526020016000206000600188610b6d9190612eb9565b60ff1660ff16815260200190815260200160002060009054906101000a900460ff166002811115610ba157610ba0612961565b5b145b90506000808760ff161480610c0b57506000600260008760ff1660ff168152602001908152602001600020600060018a610bdd9190612e84565b60ff1660ff16815260200190815260200160002060008860ff1660ff16815260200190815260200160002054115b80610c995750600280811115610c2457610c23612961565b5b600160008760ff1660ff168152602001908152602001600020600060018a610c4c9190612e84565b60ff1660ff16815260200190815260200160002060008860ff1660ff16815260200190815260200160002060009054906101000a900460ff166002811115610c9757610c96612961565b5b145b9050600060016014610cab9190612e84565b60ff168860ff161480610d1157506000600260008860ff1660ff168152602001908152602001600020600060018b610ce39190612eb9565b60ff1660ff16815260200190815260200160002060008960ff1660ff16815260200190815260200160002054115b80610d9f5750600280811115610d2a57610d29612961565b5b600160008860ff1660ff168152602001908152602001600020600060018b610d529190612eb9565b60ff1660ff16815260200190815260200160002060008960ff1660ff16815260200190815260200160002060009054906101000a900460ff166002811115610d9d57610d9c612961565b5b145b9050838015610dab5750825b8015610db45750815b8015610dbd5750805b9450505050509392505050565b60008060009054906101000a900473ffffffffffffffffffffffffffffffffffffffff16905090565b60055481565b60076020528060005260406000206000915054906101000a900460ff1681565b60065481565b6000600a60009054906101000a900473ffffffffffffffffffffffffffffffffffffffff1673ffffffffffffffffffffffffffffffffffffffff16635127d5c8836040518263ffffffff1660e01b8152600401610e7c9190612842565b602060405180830381865afa158015610e99573d6000803e3d6000fd5b505050506040513d601f19601f82011682018060405250810190610ebd9190612f03565b15610ecb5760029050610ed0565b600190505b919050565b60036020528060005260406000206000915054906101000a900460ff1681565b600760003373ffffffffffffffffffffffffffffffffffffffff1673ffffffffffffffffffffffffffffffffffffffff16815260200190815260200160002060009054906101000a900460ff1680610f7f5750610f50610dca565b73ffffffffffffffffffffffffffffffffffffffff163373ffffffffffffffffffffffffffffffffffffffff16145b610fbe576040517f08c379a0000000000000000000000000000000000000000000000000000000008152600401610fb590612ddd565b60405180910390fd5b60005b60058160ff16101561104057600360008260ff1660ff16815260200190815260200160002060009054906101000a900460ff16158015611022575060098160ff168154811061101357611012612e26565b5b90600052602060002001548210155b15611033576110328160016105d3565b5b8080600101915050610fc1565b5050565b6000600760003373ffffffffffffffffffffffffffffffffffffffff1673ffffffffffffffffffffffffffffffffffffffff16815260200190815260200160002060009054906101000a900460ff16806110d057506110a1610dca565b73ffffffffffffffffffffffffffffffffffffffff163373ffffffffffffffffffffffffffffffffffffffff16145b61110f576040517f08c379a000000000000000000000000000000000000000000000000000000000815260040161110690612ddd565b60405180910390fd5b60028081111561112257611121612961565b5b600160008b60ff1660ff16815260200190815260200160002060008a60ff1660ff16815260200190815260200160002060008960ff1660ff16815260200190815260200160002060009054906101000a900460ff16600281111561118957611188612961565b5b036111c9576040517f08c379a00000000000000000000000000000000000000000000000000000000081526004016111c090612f7c565b60405180910390fd5b60008860ff16101580156111e35750601460ff168860ff16105b80156111f3575060008760ff1610155b80156112055750601460ff168760ff16105b611244576040517f08c379a000000000000000000000000000000000000000000000000000000000815260040161123b90612fe8565b60405180910390fd5b600a60ff168960ff161061128d576040517f08c379a000000000000000000000000000000000000000000000000000000000815260040161128490613054565b60405180910390fd5b6112978984612474565b6112d6576040517f08c379a00000000000000000000000000000000000000000000000000000000081526004016112cd906130c0565b60405180910390fd5b818061131557506112e683610e1f565b60ff166112f58989888861274c565b60ff16111580156113145750600061130f8989888861274c565b60ff16115b5b611354576040517f08c379a000000000000000000000000000000000000000000000000000000000815260040161134b90613152565b60405180910390fd5b82600260008860ff1660ff16815260200190815260200160002060008760ff1660ff16815260200190815260200160002060008660ff1660ff16815260200190815260200160002054036113f0576000600260008860ff1660ff16815260200190815260200160002060008760ff1660ff16815260200190815260200160002060008660ff1660ff168152602001908152602001600020819055505b82600260008b60ff1660ff16815260200190815260200160002060008a60ff1660ff16815260200190815260200160002060008960ff1660ff16815260200190815260200160002081905550600060028111156114505761144f612961565b5b600160008b60ff1660ff16815260200190815260200160002060008a60ff1660ff16815260200190815260200160002060008960ff1660ff16815260200190815260200160002060009054906101000a900460ff1660028111156114b7576114b6612961565b5b036116175760018060008b60ff1660ff16815260200190815260200160002060008a60ff1660ff16815260200190815260200160002060008960ff1660ff16815260200190815260200160002060006101000a81548160ff0219169083600281111561152657611525612961565b5b02179055506001600460008b60ff1660ff16815260200190815260200160002060008282546115559190613172565b9250508190555060016005600082825461156f9190613172565b925050819055506000600590505b6001600a61158b9190612e84565b60ff168160ff16101561160d57600360008260ff1660ff16815260200190815260200160002060009054906101000a900460ff161580156115ef575060088160ff16815481106115de576115dd612e26565b5b906000526020600020015460055410155b15611600576115ff8160016105d3565b5b808060010191505061157d565b506001905061161c565b600090505b98975050505050505050565b611630612601565b8060068190555050565b600260205282600052604060002060205281600052604060002060205280600052604060002060009250925050505481565b600760003373ffffffffffffffffffffffffffffffffffffffff1673ffffffffffffffffffffffffffffffffffffffff16815260200190815260200160002060009054906101000a900460ff16806116f657506116c7610dca565b73ffffffffffffffffffffffffffffffffffffffff163373ffffffffffffffffffffffffffffffffffffffff16145b611735576040517f08c379a000000000000000000000000000000000000000000000000000000000815260040161172c90612ddd565b60405180910390fd5b600060028261174491906131d5565b60ff1603611bba576000600590505b600f8160ff161015611858576002600160008460ff1660ff16815260200190815260200160002060008360ff1660ff16815260200190815260200160002060008360ff1660ff16815260200190815260200160002060006101000a81548160ff021916908360028111156117ca576117c9612961565b5b02179055506002600160008460ff1660ff16815260200190815260200160002060008360136117f99190612e84565b60ff1660ff16815260200190815260200160002060008360ff1660ff16815260200190815260200160002060006101000a81548160ff0219169083600281111561184657611845612961565b5b02179055508080600101915050611753565b506000600160008360ff1660ff1681526020019081526020016000206000600960ff1681526020019081526020016000206000600960ff16815260200190815260200160002060006101000a81548160ff021916908360028111156118c0576118bf612961565b5b02179055506000600160008360ff1660ff1681526020019081526020016000206000600a60ff1681526020019081526020016000206000600a60ff16815260200190815260200160002060006101000a81548160ff0219169083600281111561192c5761192b612961565b5b02179055506000600160008360ff1660ff1681526020019081526020016000206000600a60ff1681526020019081526020016000206000600960ff16815260200190815260200160002060006101000a81548160ff0219169083600281111561199857611997612961565b5b02179055506000600160008360ff1660ff1681526020019081526020016000206000600960ff1681526020019081526020016000206000600a60ff16815260200190815260200160002060006101000a81548160ff02191690836002811115611a0457611a03612961565b5b02179055506002600160008360ff1660ff1681526020019081526020016000206000600860ff1681526020019081526020016000206000600960ff16815260200190815260200160002060006101000a81548160ff02191690836002811115611a7057611a6f612961565b5b02179055506002600160008360ff1660ff1681526020019081526020016000206000600860ff1681526020019081526020016000206000600a60ff16815260200190815260200160002060006101000a81548160ff02191690836002811115611adc57611adb612961565b5b02179055506002600160008360ff1660ff1681526020019081526020016000206000600b60ff1681526020019081526020016000206000600960ff16815260200190815260200160002060006101000a81548160ff02191690836002811115611b4857611b47612961565b5b02179055506002600160008360ff1660ff1681526020019081526020016000206000600b60ff1681526020019081526020016000206000600a60ff16815260200190815260200160002060006101000a81548160ff02191690836002811115611bb457611bb3612961565b5b02179055505b6001600282611bc991906131d5565b60ff1603612442576002600160008360ff1660ff1681526020019081526020016000206000600560ff1681526020019081526020016000206000600560ff16815260200190815260200160002060006101000a81548160ff02191690836002811115611c3857611c37612961565b5b02179055506002600160008360ff1660ff1681526020019081526020016000206000600560ff1681526020019081526020016000206000600660ff16815260200190815260200160002060006101000a81548160ff02191690836002811115611ca457611ca3612961565b5b02179055506002600160008360ff1660ff1681526020019081526020016000206000600560ff1681526020019081526020016000206000600760ff16815260200190815260200160002060006101000a81548160ff02191690836002811115611d1057611d0f612961565b5b02179055506002600160008360ff1660ff1681526020019081526020016000206000600660ff1681526020019081526020016000206000600560ff16815260200190815260200160002060006101000a81548160ff02191690836002811115611d7c57611d7b612961565b5b02179055506002600160008360ff1660ff1681526020019081526020016000206000600760ff1681526020019081526020016000206000600560ff16815260200190815260200160002060006101000a81548160ff02191690836002811115611de857611de7612961565b5b02179055506002600160008360ff1660ff1681526020019081526020016000206000600e60ff1681526020019081526020016000206000600e60ff16815260200190815260200160002060006101000a81548160ff02191690836002811115611e5457611e53612961565b5b02179055506002600160008360ff1660ff1681526020019081526020016000206000600e60ff1681526020019081526020016000206000600d60ff16815260200190815260200160002060006101000a81548160ff02191690836002811115611ec057611ebf612961565b5b02179055506002600160008360ff1660ff1681526020019081526020016000206000600e60ff1681526020019081526020016000206000600c60ff16815260200190815260200160002060006101000a81548160ff02191690836002811115611f2c57611f2b612961565b5b02179055506002600160008360ff1660ff1681526020019081526020016000206000600d60ff1681526020019081526020016000206000600e60ff16815260200190815260200160002060006101000a81548160ff02191690836002811115611f9857611f97612961565b5b02179055506002600160008360ff1660ff1681526020019081526020016000206000600c60ff1681526020019081526020016000206000600e60ff16815260200190815260200160002060006101000a81548160ff0219169083600281111561200457612003612961565b5b02179055506002600160008360ff1660ff1681526020019081526020016000206000600560ff1681526020019081526020016000206000600e60ff16815260200190815260200160002060006101000a81548160ff021916908360028111156120705761206f612961565b5b02179055506002600160008360ff1660ff1681526020019081526020016000206000600560ff1681526020019081526020016000206000600d60ff16815260200190815260200160002060006101000a81548160ff021916908360028111156120dc576120db612961565b5b02179055506002600160008360ff1660ff1681526020019081526020016000206000600560ff1681526020019081526020016000206000600c60ff16815260200190815260200160002060006101000a81548160ff0219169083600281111561214857612147612961565b5b02179055506002600160008360ff1660ff1681526020019081526020016000206000600660ff1681526020019081526020016000206000600e60ff16815260200190815260200160002060006101000a81548160ff021916908360028111156121b4576121b3612961565b5b02179055506002600160008360ff1660ff1681526020019081526020016000206000600760ff1681526020019081526020016000206000600e60ff16815260200190815260200160002060006101000a81548160ff021916908360028111156122205761221f612961565b5b02179055506002600160008360ff1660ff1681526020019081526020016000206000600e60ff1681526020019081526020016000206000600560ff16815260200190815260200160002060006101000a81548160ff0219169083600281111561228c5761228b612961565b5b02179055506002600160008360ff1660ff1681526020019081526020016000206000600d60ff1681526020019081526020016000206000600560ff16815260200190815260200160002060006101000a81548160ff021916908360028111156122f8576122f7612961565b5b02179055506002600160008360ff1660ff1681526020019081526020016000206000600c60ff1681526020019081526020016000206000600560ff16815260200190815260200160002060006101000a81548160ff0219169083600281111561236457612363612961565b5b02179055506002600160008360ff1660ff1681526020019081526020016000206000600e60ff1681526020019081526020016000206000600660ff16815260200190815260200160002060006101000a81548160ff021916908360028111156123d0576123cf612961565b5b02179055506002600160008360ff1660ff1681526020019081526020016000206000600e60ff1681526020019081526020016000206000600760ff16815260200190815260200160002060006101000a81548160ff0219169083600281111561243c5761243b612961565b5b02179055505b50565b61244d612601565b806008838154811061246257612461612e26565b5b90600052602060002001819055505050565b60006001600a6124849190612e84565b60ff168360ff160361253357600a60009054906101000a900473ffffffffffffffffffffffffffffffffffffffff1673ffffffffffffffffffffffffffffffffffffffff1663244aae7a836040518263ffffffff1660e01b81526004016124eb9190612842565b602060405180830381865afa158015612508573d6000803e3d6000fd5b505050506040513d601f19601f8201168201806040525081019061252c9190612f03565b905061255d565b600360008460ff1660ff16815260200190815260200160002060009054906101000a900460ff1690505b92915050565b60046020528060005260406000206000915090505481565b612583612601565b600073ffffffffffffffffffffffffffffffffffffffff168173ffffffffffffffffffffffffffffffffffffffff16036125f55760006040517f1e4fbdf70000000000000000000000000000000000000000000000000000000081526004016125ec9190612c42565b60405180910390fd5b6125fe81612688565b50565b6126096127c3565b73ffffffffffffffffffffffffffffffffffffffff16612627610dca565b73ffffffffffffffffffffffffffffffffffffffff16146126865761264a6127c3565b6040517f118cdaa700000000000000000000000000000000000000000000000000000000815260040161267d9190612c42565b60405180910390fd5b565b60008060009054906101000a900473ffffffffffffffffffffffffffffffffffffffff169050816000806101000a81548173ffffffffffffffffffffffffffffffffffffffff021916908373ffffffffffffffffffffffffffffffffffffffff1602179055508173ffffffffffffffffffffffffffffffffffffffff168173ffffffffffffffffffffffffffffffffffffffff167f8be0079c531659141344cd1fd0a4f28419497f9722a3daafe3b4186f6b6457e060405160405180910390a35050565b6000808360ff168660ff161161276d5785846127689190612e84565b61277a565b83866127799190612e84565b5b905060008360ff168660ff161161279c5785846127979190612e84565b6127a9565b83866127a89190612e84565b5b905080826127b79190612eb9565b92505050949350505050565b600033905090565b600080fd5b6000819050919050565b6127e3816127d0565b81146127ee57600080fd5b50565b600081359050612800816127da565b92915050565b60006020828403121561281c5761281b6127cb565b5b600061282a848285016127f1565b91505092915050565b61283c816127d0565b82525050565b60006020820190506128576000830184612833565b92915050565b600060ff82169050919050565b6128738161285d565b811461287e57600080fd5b50565b6000813590506128908161286a565b92915050565b60008115159050919050565b6128ab81612896565b81146128b657600080fd5b50565b6000813590506128c8816128a2565b92915050565b600080604083850312156128e5576128e46127cb565b5b60006128f385828601612881565b9250506020612904858286016128b9565b9150509250929050565b600080600060608486031215612927576129266127cb565b5b600061293586828701612881565b935050602061294686828701612881565b925050604061295786828701612881565b9150509250925092565b7f4e487b7100000000000000000000000000000000000000000000000000000000600052602160045260246000fd5b600381106129a1576129a0612961565b5b50565b60008190506129b282612990565b919050565b60006129c2826129a4565b9050919050565b6129d2816129b7565b82525050565b60006020820190506129ed60008301846129c9565b92915050565b600073ffffffffffffffffffffffffffffffffffffffff82169050919050565b6000612a1e826129f3565b9050919050565b612a2e81612a13565b8114612a3957600080fd5b50565b600081359050612a4b81612a25565b92915050565b600060208284031215612a6757612a666127cb565b5b6000612a7584828501612a3c565b91505092915050565b60008060008060808587031215612a9857612a976127cb565b5b6000612aa687828801612881565b9450506020612ab787828801612881565b9350506040612ac887828801612881565b9250506060612ad9878288016127f1565b91505092959194509250565b60008060408385031215612afc57612afb6127cb565b5b6000612b0a85828601612a3c565b9250506020612b1b858286016128b9565b9150509250929050565b60008060408385031215612b3c57612b3b6127cb565b5b6000612b4a858286016127f1565b9250506020612b5b858286016127f1565b9150509250929050565b6000819050919050565b6000612b8a612b85612b80846129f3565b612b65565b6129f3565b9050919050565b6000612b9c82612b6f565b9050919050565b6000612bae82612b91565b9050919050565b612bbe81612ba3565b82525050565b6000602082019050612bd96000830184612bb5565b92915050565b612be88161285d565b82525050565b6000602082019050612c036000830184612bdf565b92915050565b612c1281612896565b82525050565b6000602082019050612c2d6000830184612c09565b92915050565b612c3c81612a13565b82525050565b6000602082019050612c576000830184612c33565b92915050565b600060208284031215612c7357612c726127cb565b5b6000612c8184828501612881565b91505092915050565b600080600080600080600080610100898b031215612cab57612caa6127cb565b5b6000612cb98b828c01612881565b9850506020612cca8b828c01612881565b9750506040612cdb8b828c01612881565b9650506060612cec8b828c01612881565b9550506080612cfd8b828c01612881565b94505060a0612d0e8b828c01612881565b93505060c0612d1f8b828c016127f1565b92505060e0612d308b828c016128b9565b9150509295985092959890939650565b60008060408385031215612d5757612d566127cb565b5b6000612d6585828601612881565b9250506020612d76858286016127f1565b9150509250929050565b600082825260208201905092915050565b7f4e6f7420616c6c6f776564000000000000000000000000000000000000000000600082015250565b6000612dc7600b83612d80565b9150612dd282612d91565b602082019050919050565b60006020820190508181036000830152612df681612dba565b9050919050565b6000604082019050612e126000830185612bdf565b612e1f6020830184612c09565b9392505050565b7f4e487b7100000000000000000000000000000000000000000000000000000000600052603260045260246000fd5b7f4e487b7100000000000000000000000000000000000000000000000000000000600052601160045260246000fd5b6000612e8f8261285d565b9150612e9a8361285d565b9250828203905060ff811115612eb357612eb2612e55565b5b92915050565b6000612ec48261285d565b9150612ecf8361285d565b9250828201905060ff811115612ee857612ee7612e55565b5b92915050565b600081519050612efd816128a2565b92915050565b600060208284031215612f1957612f186127cb565b5b6000612f2784828501612eee565b91505092915050565b7f4f62737461636c65000000000000000000000000000000000000000000000000600082015250565b6000612f66600883612d80565b9150612f7182612f30565b602082019050919050565b60006020820190508181036000830152612f9581612f59565b9050919050565b7f426f756e64617279000000000000000000000000000000000000000000000000600082015250565b6000612fd2600883612d80565b9150612fdd82612f9c565b602082019050919050565b6000602082019050818103600083015261300181612fc5565b9050919050565b7f696e76616c6964206d617a650000000000000000000000000000000000000000600082015250565b600061303e600c83612d80565b915061304982613008565b602082019050919050565b6000602082019050818103600083015261306d81613031565b9050919050565b7f6d617a65206e6f7420756e6c6f636b6564000000000000000000000000000000600082015250565b60006130aa601183612d80565b91506130b582613074565b602082019050919050565b600060208201905081810360008301526130d98161309d565b9050919050565b7f64697374616e6365206973207a65726f206f722067726561746572207468616e60008201527f206d617820737472696465000000000000000000000000000000000000000000602082015250565b600061313c602b83612d80565b9150613147826130e0565b604082019050919050565b6000602082019050818103600083015261316b8161312f565b9050919050565b600061317d826127d0565b9150613188836127d0565b92508282019050808211156131a05761319f612e55565b5b92915050565b7f4e487b7100000000000000000000000000000000000000000000000000000000600052601260045260246000fd5b60006131e08261285d565b91506131eb8361285d565b9250826131fb576131fa6131a6565b5b82820690509291505056fea2646970667358221220d600b52a29fff27b6ed3feaf2526a50d067c877368420a854d14476a143220b364736f6c634300081b0033",
  "linkReferences": {},
  "deployedLinkReferences": {}
}