{
  "_format": "hh-sol-artifact-1",
  "contractName": "ClaimNGR",
  "sourceName": "contracts/ClaimNGR.sol",
  "abi": [
    {
      "inputs": [],
      "stateMutability": "nonpayable",
      "type": "constructor"
    },
    {
      "inputs": [
        {
          "internalType": "address",
          "name": "owner",
          "type": "address"
        }
      ],
      "name": "OwnableInvalidOwner",
      "type": "error"
    },
    {
      "inputs": [
        {
          "internalType": "address",
          "name": "account",
          "type": "address"
        }
      ],
      "name": "OwnableUnauthorizedAccount",
      "type": "error"
    },
    {
      "anonymous": false,
      "inputs": [
        {
          "indexed": true,
          "internalType": "address",
          "name": "claimant",
          "type": "address"
        },
        {
          "indexed": true,
          "internalType": "uint256",
          "name": "tokenId",
          "type": "uint256"
        },
        {
          "indexed": false,
          "internalType": "uint256",
          "name": "amount",
          "type": "uint256"
        }
      ],
      "name": "Claimed",
      "type": "event"
    },
    {
      "anonymous": false,
      "inputs": [
        {
          "indexed": true,
          "internalType": "address",
          "name": "previousOwner",
          "type": "address"
        },
        {
          "indexed": true,
          "internalType": "address",
          "name": "newOwner",
          "type": "address"
        }
      ],
      "name": "OwnershipTransferred",
      "type": "event"
    },
    {
      "anonymous": false,
      "inputs": [
        {
          "indexed": true,
          "internalType": "address",
          "name": "owner",
          "type": "address"
        },
        {
          "indexed": false,
          "internalType": "uint256",
          "name": "amount",
          "type": "uint256"
        }
      ],
      "name": "TokensWithdrawn",
      "type": "event"
    },
    {
      "inputs": [
        {
          "internalType": "uint256",
          "name": "tokenId",
          "type": "uint256"
        }
      ],
      "name": "claim",
      "outputs": [],
      "stateMutability": "nonpayable",
      "type": "function"
    },
    {
      "inputs": [],
      "name": "claimAmount",
      "outputs": [
        {
          "internalType": "uint256",
          "name": "",
          "type": "uint256"
        }
      ],
      "stateMutability": "view",
      "type": "function"
    },
    {
      "inputs": [],
      "name": "erc20Token",
      "outputs": [
        {
          "internalType": "contract IERC20",
          "name": "",
          "type": "address"
        }
      ],
      "stateMutability": "view",
      "type": "function"
    },
    {
      "inputs": [],
      "name": "getERC20Balance",
      "outputs": [
        {
          "internalType": "uint256",
          "name": "",
          "type": "uint256"
        }
      ],
      "stateMutability": "view",
      "type": "function"
    },
    {
      "inputs": [
        {
          "internalType": "uint256",
          "name": "",
          "type": "uint256"
        }
      ],
      "name": "hasClaimed",
      "outputs": [
        {
          "internalType": "bool",
          "name": "",
          "type": "bool"
        }
      ],
      "stateMutability": "view",
      "type": "function"
    },
    {
      "inputs": [],
      "name": "nftToken",
      "outputs": [
        {
          "internalType": "contract IERC721",
          "name": "",
          "type": "address"
        }
      ],
      "stateMutability": "view",
      "type": "function"
    },
    {
      "inputs": [],
      "name": "owner",
      "outputs": [
        {
          "internalType": "address",
          "name": "",
          "type": "address"
        }
      ],
      "stateMutability": "view",
      "type": "function"
    },
    {
      "inputs": [],
      "name": "renounceOwnership",
      "outputs": [],
      "stateMutability": "nonpayable",
      "type": "function"
    },
    {
      "inputs": [
        {
          "internalType": "uint256",
          "name": "newAmount",
          "type": "uint256"
        }
      ],
      "name": "setClaimAmount",
      "outputs": [],
      "stateMutability": "nonpayable",
      "type": "function"
    },
    {
      "inputs": [
        {
          "internalType": "address",
          "name": "newToken",
          "type": "address"
        }
      ],
      "name": "setERC20Token",
      "outputs": [],
      "stateMutability": "nonpayable",
      "type": "function"
    },
    {
      "inputs": [
        {
          "internalType": "address",
          "name": "newToken",
          "type": "address"
        }
      ],
      "name": "setNFTToken",
      "outputs": [],
      "stateMutability": "nonpayable",
      "type": "function"
    },
    {
      "inputs": [],
      "name": "totalAmountClaimed",
      "outputs": [
        {
          "internalType": "uint256",
          "name": "",
          "type": "uint256"
        }
      ],
      "stateMutability": "view",
      "type": "function"
    },
    {
      "inputs": [
        {
          "internalType": "address",
          "name": "newOwner",
          "type": "address"
        }
      ],
      "name": "transferOwnership",
      "outputs": [],
      "stateMutability": "nonpayable",
      "type": "function"
    },
    {
      "inputs": [],
      "name": "withdrawAllTokens",
      "outputs": [],
      "stateMutability": "nonpayable",
      "type": "function"
    },
    {
      "inputs": [
        {
          "internalType": "uint256",
          "name": "amount",
          "type": "uint256"
        }
      ],
      "name": "withdrawTokens",
      "outputs": [],
      "stateMutability": "nonpayable",
      "type": "function"
    }
  ],
  "bytecode": "0x6080604052670de0b6b3a764000060035534801561001c57600080fd5b5033600073ffffffffffffffffffffffffffffffffffffffff168173ffffffffffffffffffffffffffffffffffffffff16036100905760006040517f1e4fbdf700000000000000000000000000000000000000000000000000000000815260040161008791906101aa565b60405180910390fd5b61009f816100a560201b60201c565b506101c5565b60008060009054906101000a900473ffffffffffffffffffffffffffffffffffffffff169050816000806101000a81548173ffffffffffffffffffffffffffffffffffffffff021916908373ffffffffffffffffffffffffffffffffffffffff1602179055508173ffffffffffffffffffffffffffffffffffffffff168173ffffffffffffffffffffffffffffffffffffffff167f8be0079c531659141344cd1fd0a4f28419497f9722a3daafe3b4186f6b6457e060405160405180910390a35050565b600073ffffffffffffffffffffffffffffffffffffffff82169050919050565b600061019482610169565b9050919050565b6101a481610189565b82525050565b60006020820190506101bf600083018461019b565b92915050565b6113b1806101d46000396000f3fe608060405234801561001057600080fd5b50600436106100f55760003560e01c80638da5cb5b11610097578063ce51650711610066578063ce51650714610214578063d06fcba814610244578063de56248714610262578063f2fde38b1461027e576100f5565b80638da5cb5b1461019e578063b1c7ef0c146101bc578063bfa5e13c146101d8578063c3736fe6146101f6576100f5565b8063379607f5116100d3578063379607f51461013c578063715018a614610158578063830953ab146101625780638a13eea714610180576100f5565b806310e71a02146100fa578063280da6fa14610116578063315a095d14610120575b600080fd5b610114600480360381019061010f9190610e15565b61029a565b005b61011e6102e6565b005b61013a60048036038101906101359190610e78565b6104c3565b005b61015660048036038101906101519190610e78565b61069b565b005b610160610a23565b005b61016a610a37565b6040516101779190610eb4565b60405180910390f35b610188610a3d565b6040516101959190610f2e565b60405180910390f35b6101a6610a63565b6040516101b39190610f58565b60405180910390f35b6101d660048036038101906101d19190610e78565b610a8c565b005b6101e0610a9e565b6040516101ed9190610eb4565b60405180910390f35b6101fe610aa4565b60405161020b9190610eb4565b60405180910390f35b61022e60048036038101906102299190610e78565b610b47565b60405161023b9190610f8e565b60405180910390f35b61024c610b67565b6040516102599190610fca565b60405180910390f35b61027c60048036038101906102779190610e15565b610b8d565b005b61029860048036038101906102939190610e15565b610bd9565b005b6102a2610c5f565b80600260006101000a81548173ffffffffffffffffffffffffffffffffffffffff021916908373ffffffffffffffffffffffffffffffffffffffff16021790555050565b6102ee610c5f565b6000600160009054906101000a900473ffffffffffffffffffffffffffffffffffffffff1673ffffffffffffffffffffffffffffffffffffffff166370a08231306040518263ffffffff1660e01b815260040161034b9190610f58565b602060405180830381865afa158015610368573d6000803e3d6000fd5b505050506040513d601f19601f8201168201806040525081019061038c9190610ffa565b9050600081116103d1576040517f08c379a00000000000000000000000000000000000000000000000000000000081526004016103c890611084565b60405180910390fd5b600160009054906101000a900473ffffffffffffffffffffffffffffffffffffffff1673ffffffffffffffffffffffffffffffffffffffff1663a9059cbb33836040518363ffffffff1660e01b815260040161042e9291906110a4565b6020604051808303816000875af115801561044d573d6000803e3d6000fd5b505050506040513d601f19601f8201168201806040525081019061047191906110f9565b503373ffffffffffffffffffffffffffffffffffffffff167f6352c5382c4a4578e712449ca65e83cdb392d045dfcf1cad9615189db2da244b826040516104b89190610eb4565b60405180910390a250565b6104cb610c5f565b80600160009054906101000a900473ffffffffffffffffffffffffffffffffffffffff1673ffffffffffffffffffffffffffffffffffffffff166370a08231306040518263ffffffff1660e01b81526004016105279190610f58565b602060405180830381865afa158015610544573d6000803e3d6000fd5b505050506040513d601f19601f820116820180604052508101906105689190610ffa565b10156105a9576040517f08c379a00000000000000000000000000000000000000000000000000000000081526004016105a090611172565b60405180910390fd5b600160009054906101000a900473ffffffffffffffffffffffffffffffffffffffff1673ffffffffffffffffffffffffffffffffffffffff1663a9059cbb33836040518363ffffffff1660e01b81526004016106069291906110a4565b6020604051808303816000875af1158015610625573d6000803e3d6000fd5b505050506040513d601f19601f8201168201806040525081019061064991906110f9565b503373ffffffffffffffffffffffffffffffffffffffff167f6352c5382c4a4578e712449ca65e83cdb392d045dfcf1cad9615189db2da244b826040516106909190610eb4565b60405180910390a250565b6005600082815260200190815260200160002060009054906101000a900460ff16156106fc576040517f08c379a00000000000000000000000000000000000000000000000000000000081526004016106f3906111de565b60405180910390fd5b3373ffffffffffffffffffffffffffffffffffffffff16600260009054906101000a900473ffffffffffffffffffffffffffffffffffffffff1673ffffffffffffffffffffffffffffffffffffffff16636352211e836040518263ffffffff1660e01b815260040161076e9190610eb4565b602060405180830381865afa15801561078b573d6000803e3d6000fd5b505050506040513d601f19601f820116820180604052508101906107af9190611213565b73ffffffffffffffffffffffffffffffffffffffff1614610805576040517f08c379a00000000000000000000000000000000000000000000000000000000081526004016107fc9061128c565b60405180910390fd5b60016005600083815260200190815260200160002060006101000a81548160ff021916908315150217905550600354600160009054906101000a900473ffffffffffffffffffffffffffffffffffffffff1673ffffffffffffffffffffffffffffffffffffffff166370a08231306040518263ffffffff1660e01b815260040161088f9190610f58565b602060405180830381865afa1580156108ac573d6000803e3d6000fd5b505050506040513d601f19601f820116820180604052508101906108d09190610ffa565b1015610911576040517f08c379a0000000000000000000000000000000000000000000000000000000008152600401610908906112f8565b60405180910390fd5b600160009054906101000a900473ffffffffffffffffffffffffffffffffffffffff1673ffffffffffffffffffffffffffffffffffffffff1663a9059cbb336003546040518363ffffffff1660e01b81526004016109709291906110a4565b6020604051808303816000875af115801561098f573d6000803e3d6000fd5b505050506040513d601f19601f820116820180604052508101906109b391906110f9565b50600354600460008282546109c89190611347565b92505081905550803373ffffffffffffffffffffffffffffffffffffffff167f987d620f307ff6b94d58743cb7a7509f24071586a77759b77c2d4e29f75a2f9a600354604051610a189190610eb4565b60405180910390a350565b610a2b610c5f565b610a356000610ce6565b565b60035481565b600160009054906101000a900473ffffffffffffffffffffffffffffffffffffffff1681565b60008060009054906101000a900473ffffffffffffffffffffffffffffffffffffffff16905090565b610a94610c5f565b8060038190555050565b60045481565b6000600160009054906101000a900473ffffffffffffffffffffffffffffffffffffffff1673ffffffffffffffffffffffffffffffffffffffff166370a08231306040518263ffffffff1660e01b8152600401610b019190610f58565b602060405180830381865afa158015610b1e573d6000803e3d6000fd5b505050506040513d601f19601f82011682018060405250810190610b429190610ffa565b905090565b60056020528060005260406000206000915054906101000a900460ff1681565b600260009054906101000a900473ffffffffffffffffffffffffffffffffffffffff1681565b610b95610c5f565b80600160006101000a81548173ffffffffffffffffffffffffffffffffffffffff021916908373ffffffffffffffffffffffffffffffffffffffff16021790555050565b610be1610c5f565b600073ffffffffffffffffffffffffffffffffffffffff168173ffffffffffffffffffffffffffffffffffffffff1603610c535760006040517f1e4fbdf7000000000000000000000000000000000000000000000000000000008152600401610c4a9190610f58565b60405180910390fd5b610c5c81610ce6565b50565b610c67610daa565b73ffffffffffffffffffffffffffffffffffffffff16610c85610a63565b73ffffffffffffffffffffffffffffffffffffffff1614610ce457610ca8610daa565b6040517f118cdaa7000000000000000000000000000000000000000000000000000000008152600401610cdb9190610f58565b60405180910390fd5b565b60008060009054906101000a900473ffffffffffffffffffffffffffffffffffffffff169050816000806101000a81548173ffffffffffffffffffffffffffffffffffffffff021916908373ffffffffffffffffffffffffffffffffffffffff1602179055508173ffffffffffffffffffffffffffffffffffffffff168173ffffffffffffffffffffffffffffffffffffffff167f8be0079c531659141344cd1fd0a4f28419497f9722a3daafe3b4186f6b6457e060405160405180910390a35050565b600033905090565b600080fd5b600073ffffffffffffffffffffffffffffffffffffffff82169050919050565b6000610de282610db7565b9050919050565b610df281610dd7565b8114610dfd57600080fd5b50565b600081359050610e0f81610de9565b92915050565b600060208284031215610e2b57610e2a610db2565b5b6000610e3984828501610e00565b91505092915050565b6000819050919050565b610e5581610e42565b8114610e6057600080fd5b50565b600081359050610e7281610e4c565b92915050565b600060208284031215610e8e57610e8d610db2565b5b6000610e9c84828501610e63565b91505092915050565b610eae81610e42565b82525050565b6000602082019050610ec96000830184610ea5565b92915050565b6000819050919050565b6000610ef4610eef610eea84610db7565b610ecf565b610db7565b9050919050565b6000610f0682610ed9565b9050919050565b6000610f1882610efb565b9050919050565b610f2881610f0d565b82525050565b6000602082019050610f436000830184610f1f565b92915050565b610f5281610dd7565b82525050565b6000602082019050610f6d6000830184610f49565b92915050565b60008115159050919050565b610f8881610f73565b82525050565b6000602082019050610fa36000830184610f7f565b92915050565b6000610fb482610efb565b9050919050565b610fc481610fa9565b82525050565b6000602082019050610fdf6000830184610fbb565b92915050565b600081519050610ff481610e4c565b92915050565b6000602082840312156110105761100f610db2565b5b600061101e84828501610fe5565b91505092915050565b600082825260208201905092915050565b7f4e6f20746f6b656e7320746f2077697468647261770000000000000000000000600082015250565b600061106e601583611027565b915061107982611038565b602082019050919050565b6000602082019050818103600083015261109d81611061565b9050919050565b60006040820190506110b96000830185610f49565b6110c66020830184610ea5565b9392505050565b6110d681610f73565b81146110e157600080fd5b50565b6000815190506110f3816110cd565b92915050565b60006020828403121561110f5761110e610db2565b5b600061111d848285016110e4565b91505092915050565b7f496e73756666696369656e742062616c616e6365000000000000000000000000600082015250565b600061115c601483611027565b915061116782611126565b602082019050919050565b6000602082019050818103600083015261118b8161114f565b9050919050565b7f546f6b656e20616c726561647920636c61696d65640000000000000000000000600082015250565b60006111c8601583611027565b91506111d382611192565b602082019050919050565b600060208201905081810360008301526111f7816111bb565b9050919050565b60008151905061120d81610de9565b92915050565b60006020828403121561122957611228610db2565b5b6000611237848285016111fe565b91505092915050565b7f596f7520646f206e6f74206f776e2074686973204e4654000000000000000000600082015250565b6000611276601783611027565b915061128182611240565b602082019050919050565b600060208201905081810360008301526112a581611269565b9050919050565b7f4e6f7420656e6f75676820746f6b656e7320696e20636f6e7472616374000000600082015250565b60006112e2601d83611027565b91506112ed826112ac565b602082019050919050565b60006020820190508181036000830152611311816112d5565b9050919050565b7f4e487b7100000000000000000000000000000000000000000000000000000000600052601160045260246000fd5b600061135282610e42565b915061135d83610e42565b925082820190508082111561137557611374611318565b5b9291505056fea2646970667358221220d32570bec2080d2af19a2f0f53063144b8d6a7405e05a1de6ccd849f7c28ee5464736f6c634300081b0033",
  "linkReferences": {},
  "deployedLinkReferences": {}
}