{
  "_format": "hh-sol-artifact-1",
  "contractName": "GameEquip",
  "sourceName": "contracts/GameEquip.sol",
  "abi": [
    {
      "inputs": [],
      "stateMutability": "nonpayable",
      "type": "constructor"
    },
    {
      "inputs": [
        {
          "internalType": "address",
          "name": "owner",
          "type": "address"
        }
      ],
      "name": "OwnableInvalidOwner",
      "type": "error"
    },
    {
      "inputs": [
        {
          "internalType": "address",
          "name": "account",
          "type": "address"
        }
      ],
      "name": "OwnableUnauthorizedAccount",
      "type": "error"
    },
    {
      "anonymous": false,
      "inputs": [
        {
          "indexed": true,
          "internalType": "uint256",
          "name": "playerId",
          "type": "uint256"
        },
        {
          "indexed": true,
          "internalType": "uint256",
          "name": "eyesTokenId",
          "type": "uint256"
        },
        {
          "indexed": false,
          "internalType": "address",
          "name": "sender",
          "type": "address"
        }
      ],
      "name": "EquipEye",
      "type": "event"
    },
    {
      "anonymous": false,
      "inputs": [
        {
          "indexed": true,
          "internalType": "uint256",
          "name": "playerId",
          "type": "uint256"
        },
        {
          "indexed": true,
          "internalType": "uint256",
          "name": "keysTokenId",
          "type": "uint256"
        },
        {
          "indexed": false,
          "internalType": "address",
          "name": "sender",
          "type": "address"
        }
      ],
      "name": "EquipKey",
      "type": "event"
    },
    {
      "anonymous": false,
      "inputs": [
        {
          "indexed": true,
          "internalType": "address",
          "name": "owner",
          "type": "address"
        },
        {
          "indexed": true,
          "internalType": "uint256",
          "name": "tokenId",
          "type": "uint256"
        },
        {
          "indexed": false,
          "internalType": "uint256",
          "name": "shieldAmount",
          "type": "uint256"
        },
        {
          "indexed": false,
          "internalType": "address",
          "name": "sender",
          "type": "address"
        }
      ],
      "name": "OtomBurned",
      "type": "event"
    },
    {
      "anonymous": false,
      "inputs": [
        {
          "indexed": true,
          "internalType": "address",
          "name": "previousOwner",
          "type": "address"
        },
        {
          "indexed": true,
          "internalType": "address",
          "name": "newOwner",
          "type": "address"
        }
      ],
      "name": "OwnershipTransferred",
      "type": "event"
    },
    {
      "anonymous": false,
      "inputs": [
        {
          "indexed": true,
          "internalType": "uint256",
          "name": "playerId",
          "type": "uint256"
        },
        {
          "indexed": false,
          "internalType": "uint256",
          "name": "percentage",
          "type": "uint256"
        },
        {
          "indexed": false,
          "internalType": "address",
          "name": "sender",
          "type": "address"
        }
      ],
      "name": "SetEat",
      "type": "event"
    },
    {
      "anonymous": false,
      "inputs": [
        {
          "indexed": true,
          "internalType": "uint256",
          "name": "playerId",
          "type": "uint256"
        },
        {
          "indexed": false,
          "internalType": "uint256",
          "name": "percentage",
          "type": "uint256"
        },
        {
          "indexed": false,
          "internalType": "address",
          "name": "sender",
          "type": "address"
        }
      ],
      "name": "SetRob",
      "type": "event"
    },
    {
      "anonymous": false,
      "inputs": [
        {
          "indexed": true,
          "internalType": "uint256",
          "name": "day",
          "type": "uint256"
        },
        {
          "indexed": true,
          "internalType": "uint256",
          "name": "playerId",
          "type": "uint256"
        },
        {
          "indexed": true,
          "internalType": "uint256",
          "name": "voterId",
          "type": "uint256"
        },
        {
          "indexed": false,
          "internalType": "address",
          "name": "sender",
          "type": "address"
        }
      ],
      "name": "VoteCast",
      "type": "event"
    },
    {
      "inputs": [
        {
          "internalType": "address",
          "name": "",
          "type": "address"
        }
      ],
      "name": "allowedOperators",
      "outputs": [
        {
          "internalType": "bool",
          "name": "",
          "type": "bool"
        }
      ],
      "stateMutability": "view",
      "type": "function"
    },
    {
      "inputs": [
        {
          "internalType": "uint256[]",
          "name": "playerIds",
          "type": "uint256[]"
        },
        {
          "internalType": "uint256[]",
          "name": "eyesTokenIds",
          "type": "uint256[]"
        }
      ],
      "name": "batchEquipEyes",
      "outputs": [],
      "stateMutability": "nonpayable",
      "type": "function"
    },
    {
      "inputs": [
        {
          "internalType": "uint256[]",
          "name": "playerIds",
          "type": "uint256[]"
        },
        {
          "internalType": "uint256[]",
          "name": "keysTokenIds",
          "type": "uint256[]"
        }
      ],
      "name": "batchEquipKeys",
      "outputs": [],
      "stateMutability": "nonpayable",
      "type": "function"
    },
    {
      "inputs": [
        {
          "internalType": "string",
          "name": "a",
          "type": "string"
        },
        {
          "internalType": "string",
          "name": "b",
          "type": "string"
        }
      ],
      "name": "compareStrings",
      "outputs": [
        {
          "internalType": "bool",
          "name": "",
          "type": "bool"
        }
      ],
      "stateMutability": "pure",
      "type": "function"
    },
    {
      "inputs": [
        {
          "internalType": "uint256",
          "name": "",
          "type": "uint256"
        }
      ],
      "name": "dailyShieldCount",
      "outputs": [
        {
          "internalType": "uint256",
          "name": "",
          "type": "uint256"
        }
      ],
      "stateMutability": "view",
      "type": "function"
    },
    {
      "inputs": [],
      "name": "eat_lowerlimit",
      "outputs": [
        {
          "internalType": "uint256",
          "name": "",
          "type": "uint256"
        }
      ],
      "stateMutability": "view",
      "type": "function"
    },
    {
      "inputs": [],
      "name": "eat_set_enabled",
      "outputs": [
        {
          "internalType": "bool",
          "name": "",
          "type": "bool"
        }
      ],
      "stateMutability": "view",
      "type": "function"
    },
    {
      "inputs": [],
      "name": "eat_upperlimit",
      "outputs": [
        {
          "internalType": "uint256",
          "name": "",
          "type": "uint256"
        }
      ],
      "stateMutability": "view",
      "type": "function"
    },
    {
      "inputs": [
        {
          "internalType": "uint256",
          "name": "playerid",
          "type": "uint256"
        },
        {
          "internalType": "uint256",
          "name": "eyesTokenId",
          "type": "uint256"
        }
      ],
      "name": "equipEyes",
      "outputs": [],
      "stateMutability": "nonpayable",
      "type": "function"
    },
    {
      "inputs": [
        {
          "internalType": "uint256",
          "name": "playerid",
          "type": "uint256"
        },
        {
          "internalType": "uint256",
          "name": "keysTokenId",
          "type": "uint256"
        }
      ],
      "name": "equipKeys",
      "outputs": [],
      "stateMutability": "nonpayable",
      "type": "function"
    },
    {
      "inputs": [
        {
          "internalType": "uint256",
          "name": "",
          "type": "uint256"
        }
      ],
      "name": "eyesInfo",
      "outputs": [
        {
          "internalType": "uint256",
          "name": "playerId",
          "type": "uint256"
        },
        {
          "internalType": "bool",
          "name": "isEquipped",
          "type": "bool"
        },
        {
          "internalType": "uint256",
          "name": "equipTime",
          "type": "uint256"
        }
      ],
      "stateMutability": "view",
      "type": "function"
    },
    {
      "inputs": [],
      "name": "eyesToken",
      "outputs": [
        {
          "internalType": "contract IERC721",
          "name": "",
          "type": "address"
        }
      ],
      "stateMutability": "view",
      "type": "function"
    },
    {
      "inputs": [],
      "name": "gameContract",
      "outputs": [
        {
          "internalType": "contract Game",
          "name": "",
          "type": "address"
        }
      ],
      "stateMutability": "view",
      "type": "function"
    },
    {
      "inputs": [],
      "name": "keysToken",
      "outputs": [
        {
          "internalType": "contract IERC721",
          "name": "",
          "type": "address"
        }
      ],
      "stateMutability": "view",
      "type": "function"
    },
    {
      "inputs": [
        {
          "internalType": "uint256",
          "name": "",
          "type": "uint256"
        }
      ],
      "name": "keysUsed",
      "outputs": [
        {
          "internalType": "bool",
          "name": "",
          "type": "bool"
        }
      ],
      "stateMutability": "view",
      "type": "function"
    },
    {
      "inputs": [
        {
          "internalType": "uint256",
          "name": "",
          "type": "uint256"
        }
      ],
      "name": "lastShieldDay",
      "outputs": [
        {
          "internalType": "uint256",
          "name": "",
          "type": "uint256"
        }
      ],
      "stateMutability": "view",
      "type": "function"
    },
    {
      "inputs": [],
      "name": "maxShieldCountPerDay",
      "outputs": [
        {
          "internalType": "uint256",
          "name": "",
          "type": "uint256"
        }
      ],
      "stateMutability": "view",
      "type": "function"
    },
    {
      "inputs": [
        {
          "internalType": "address",
          "name": "operator",
          "type": "address"
        },
        {
          "internalType": "address",
          "name": "from",
          "type": "address"
        },
        {
          "internalType": "uint256[]",
          "name": "ids",
          "type": "uint256[]"
        },
        {
          "internalType": "uint256[]",
          "name": "values",
          "type": "uint256[]"
        },
        {
          "internalType": "bytes",
          "name": "data",
          "type": "bytes"
        }
      ],
      "name": "onERC1155BatchReceived",
      "outputs": [
        {
          "internalType": "bytes4",
          "name": "",
          "type": "bytes4"
        }
      ],
      "stateMutability": "nonpayable",
      "type": "function"
    },
    {
      "inputs": [
        {
          "internalType": "address",
          "name": "operator",
          "type": "address"
        },
        {
          "internalType": "address",
          "name": "from",
          "type": "address"
        },
        {
          "internalType": "uint256",
          "name": "id",
          "type": "uint256"
        },
        {
          "internalType": "uint256",
          "name": "value",
          "type": "uint256"
        },
        {
          "internalType": "bytes",
          "name": "data",
          "type": "bytes"
        }
      ],
      "name": "onERC1155Received",
      "outputs": [
        {
          "internalType": "bytes4",
          "name": "",
          "type": "bytes4"
        }
      ],
      "stateMutability": "nonpayable",
      "type": "function"
    },
    {
      "inputs": [],
      "name": "otomDatabase",
      "outputs": [
        {
          "internalType": "contract IOtomsDatabase",
          "name": "",
          "type": "address"
        }
      ],
      "stateMutability": "view",
      "type": "function"
    },
    {
      "inputs": [],
      "name": "otomToken",
      "outputs": [
        {
          "internalType": "contract IERC1155",
          "name": "",
          "type": "address"
        }
      ],
      "stateMutability": "view",
      "type": "function"
    },
    {
      "inputs": [],
      "name": "owner",
      "outputs": [
        {
          "internalType": "address",
          "name": "",
          "type": "address"
        }
      ],
      "stateMutability": "view",
      "type": "function"
    },
    {
      "inputs": [
        {
          "internalType": "uint256",
          "name": "",
          "type": "uint256"
        },
        {
          "internalType": "uint256",
          "name": "",
          "type": "uint256"
        }
      ],
      "name": "parameterSet",
      "outputs": [
        {
          "internalType": "bool",
          "name": "",
          "type": "bool"
        }
      ],
      "stateMutability": "view",
      "type": "function"
    },
    {
      "inputs": [
        {
          "internalType": "uint256",
          "name": "",
          "type": "uint256"
        }
      ],
      "name": "playerEquippedEyes",
      "outputs": [
        {
          "internalType": "bool",
          "name": "",
          "type": "bool"
        }
      ],
      "stateMutability": "view",
      "type": "function"
    },
    {
      "inputs": [
        {
          "internalType": "uint256",
          "name": "",
          "type": "uint256"
        }
      ],
      "name": "playerEquippedKeys",
      "outputs": [
        {
          "internalType": "bool",
          "name": "",
          "type": "bool"
        }
      ],
      "stateMutability": "view",
      "type": "function"
    },
    {
      "inputs": [
        {
          "internalType": "uint256",
          "name": "tokenId",
          "type": "uint256"
        }
      ],
      "name": "readShieldAmount",
      "outputs": [
        {
          "internalType": "uint256",
          "name": "",
          "type": "uint256"
        }
      ],
      "stateMutability": "view",
      "type": "function"
    },
    {
      "inputs": [],
      "name": "renounceOwnership",
      "outputs": [],
      "stateMutability": "nonpayable",
      "type": "function"
    },
    {
      "inputs": [],
      "name": "rob_lowerlimit",
      "outputs": [
        {
          "internalType": "uint256",
          "name": "",
          "type": "uint256"
        }
      ],
      "stateMutability": "view",
      "type": "function"
    },
    {
      "inputs": [],
      "name": "rob_set_enabled",
      "outputs": [
        {
          "internalType": "bool",
          "name": "",
          "type": "bool"
        }
      ],
      "stateMutability": "view",
      "type": "function"
    },
    {
      "inputs": [],
      "name": "rob_upperlimit",
      "outputs": [
        {
          "internalType": "uint256",
          "name": "",
          "type": "uint256"
        }
      ],
      "stateMutability": "view",
      "type": "function"
    },
    {
      "inputs": [
        {
          "internalType": "uint256",
          "name": "percentage",
          "type": "uint256"
        },
        {
          "internalType": "uint256",
          "name": "playerid",
          "type": "uint256"
        }
      ],
      "name": "setEat",
      "outputs": [],
      "stateMutability": "nonpayable",
      "type": "function"
    },
    {
      "inputs": [
        {
          "internalType": "uint256",
          "name": "limit",
          "type": "uint256"
        }
      ],
      "name": "setEatLowerLimit",
      "outputs": [],
      "stateMutability": "nonpayable",
      "type": "function"
    },
    {
      "inputs": [
        {
          "internalType": "bool",
          "name": "isenabled",
          "type": "bool"
        }
      ],
      "name": "setEatSetEnabled",
      "outputs": [],
      "stateMutability": "nonpayable",
      "type": "function"
    },
    {
      "inputs": [
        {
          "internalType": "uint256",
          "name": "limit",
          "type": "uint256"
        }
      ],
      "name": "setEatUpperLimit",
      "outputs": [],
      "stateMutability": "nonpayable",
      "type": "function"
    },
    {
      "inputs": [
        {
          "internalType": "bool",
          "name": "isopen",
          "type": "bool"
        }
      ],
      "name": "setElectionOpen",
      "outputs": [],
      "stateMutability": "nonpayable",
      "type": "function"
    },
    {
      "inputs": [
        {
          "internalType": "address",
          "name": "_contractaddr",
          "type": "address"
        }
      ],
      "name": "setEyesToken",
      "outputs": [],
      "stateMutability": "nonpayable",
      "type": "function"
    },
    {
      "inputs": [
        {
          "internalType": "address",
          "name": "_contractaddr",
          "type": "address"
        }
      ],
      "name": "setGameContract",
      "outputs": [],
      "stateMutability": "nonpayable",
      "type": "function"
    },
    {
      "inputs": [
        {
          "internalType": "uint256",
          "name": "day",
          "type": "uint256"
        },
        {
          "internalType": "uint256",
          "name": "playerid",
          "type": "uint256"
        }
      ],
      "name": "setGovernor",
      "outputs": [],
      "stateMutability": "nonpayable",
      "type": "function"
    },
    {
      "inputs": [
        {
          "internalType": "address",
          "name": "_contractaddr",
          "type": "address"
        }
      ],
      "name": "setKeysToken",
      "outputs": [],
      "stateMutability": "nonpayable",
      "type": "function"
    },
    {
      "inputs": [
        {
          "internalType": "uint256",
          "name": "count",
          "type": "uint256"
        }
      ],
      "name": "setMaxShieldCountPerDay",
      "outputs": [],
      "stateMutability": "nonpayable",
      "type": "function"
    },
    {
      "inputs": [
        {
          "internalType": "address",
          "name": "_operator",
          "type": "address"
        },
        {
          "internalType": "bool",
          "name": "allowed",
          "type": "bool"
        }
      ],
      "name": "setOperator",
      "outputs": [],
      "stateMutability": "nonpayable",
      "type": "function"
    },
    {
      "inputs": [
        {
          "internalType": "address",
          "name": "_contractaddr",
          "type": "address"
        }
      ],
      "name": "setOtomDatabase",
      "outputs": [],
      "stateMutability": "nonpayable",
      "type": "function"
    },
    {
      "inputs": [
        {
          "internalType": "address",
          "name": "_contractaddr",
          "type": "address"
        }
      ],
      "name": "setOtomToken",
      "outputs": [],
      "stateMutability": "nonpayable",
      "type": "function"
    },
    {
      "inputs": [
        {
          "internalType": "uint256",
          "name": "percentage",
          "type": "uint256"
        },
        {
          "internalType": "uint256",
          "name": "playerid",
          "type": "uint256"
        }
      ],
      "name": "setRob",
      "outputs": [],
      "stateMutability": "nonpayable",
      "type": "function"
    },
    {
      "inputs": [
        {
          "internalType": "uint256",
          "name": "limit",
          "type": "uint256"
        }
      ],
      "name": "setRobLowerLimit",
      "outputs": [],
      "stateMutability": "nonpayable",
      "type": "function"
    },
    {
      "inputs": [
        {
          "internalType": "bool",
          "name": "isenabled",
          "type": "bool"
        }
      ],
      "name": "setRobSetEnabled",
      "outputs": [],
      "stateMutability": "nonpayable",
      "type": "function"
    },
    {
      "inputs": [
        {
          "internalType": "uint256",
          "name": "limit",
          "type": "uint256"
        }
      ],
      "name": "setRobUpperLimit",
      "outputs": [],
      "stateMutability": "nonpayable",
      "type": "function"
    },
    {
      "inputs": [
        {
          "internalType": "address",
          "name": "_shieldCalculator",
          "type": "address"
        }
      ],
      "name": "setShieldCalculator",
      "outputs": [],
      "stateMutability": "nonpayable",
      "type": "function"
    },
    {
      "inputs": [
        {
          "internalType": "uint256",
          "name": "newInterval",
          "type": "uint256"
        }
      ],
      "name": "setUnequipInterval",
      "outputs": [],
      "stateMutability": "nonpayable",
      "type": "function"
    },
    {
      "inputs": [
        {
          "internalType": "uint256",
          "name": "tokenId",
          "type": "uint256"
        },
        {
          "internalType": "uint256",
          "name": "playerid",
          "type": "uint256"
        }
      ],
      "name": "shield",
      "outputs": [
        {
          "internalType": "uint256",
          "name": "",
          "type": "uint256"
        }
      ],
      "stateMutability": "nonpayable",
      "type": "function"
    },
    {
      "inputs": [],
      "name": "shieldCalculator",
      "outputs": [
        {
          "internalType": "contract ShieldCalculator",
          "name": "",
          "type": "address"
        }
      ],
      "stateMutability": "view",
      "type": "function"
    },
    {
      "inputs": [
        {
          "internalType": "bytes4",
          "name": "interfaceId",
          "type": "bytes4"
        }
      ],
      "name": "supportsInterface",
      "outputs": [
        {
          "internalType": "bool",
          "name": "",
          "type": "bool"
        }
      ],
      "stateMutability": "view",
      "type": "function"
    },
    {
      "inputs": [
        {
          "internalType": "uint256",
          "name": "",
          "type": "uint256"
        }
      ],
      "name": "topVotedCount",
      "outputs": [
        {
          "internalType": "uint256",
          "name": "",
          "type": "uint256"
        }
      ],
      "stateMutability": "view",
      "type": "function"
    },
    {
      "inputs": [
        {
          "internalType": "uint256",
          "name": "",
          "type": "uint256"
        }
      ],
      "name": "topVotedPlayer",
      "outputs": [
        {
          "internalType": "uint256",
          "name": "",
          "type": "uint256"
        }
      ],
      "stateMutability": "view",
      "type": "function"
    },
    {
      "inputs": [
        {
          "internalType": "address",
          "name": "to",
          "type": "address"
        },
        {
          "internalType": "uint256",
          "name": "tokenId",
          "type": "uint256"
        },
        {
          "internalType": "uint256",
          "name": "amount",
          "type": "uint256"
        }
      ],
      "name": "transferOutOTOM",
      "outputs": [],
      "stateMutability": "nonpayable",
      "type": "function"
    },
    {
      "inputs": [
        {
          "internalType": "address",
          "name": "newOwner",
          "type": "address"
        }
      ],
      "name": "transferOwnership",
      "outputs": [],
      "stateMutability": "nonpayable",
      "type": "function"
    },
    {
      "inputs": [
        {
          "internalType": "uint256",
          "name": "eyesTokenId",
          "type": "uint256"
        }
      ],
      "name": "unequipEyes",
      "outputs": [],
      "stateMutability": "nonpayable",
      "type": "function"
    },
    {
      "inputs": [],
      "name": "unequipInterval",
      "outputs": [
        {
          "internalType": "uint256",
          "name": "",
          "type": "uint256"
        }
      ],
      "stateMutability": "view",
      "type": "function"
    },
    {
      "inputs": [
        {
          "internalType": "uint256",
          "name": "playerid",
          "type": "uint256"
        },
        {
          "internalType": "uint256",
          "name": "myplayerid",
          "type": "uint256"
        }
      ],
      "name": "voteForGoverner",
      "outputs": [],
      "stateMutability": "nonpayable",
      "type": "function"
    },
    {
      "inputs": [
        {
          "internalType": "uint256",
          "name": "",
          "type": "uint256"
        },
        {
          "internalType": "uint256",
          "name": "",
          "type": "uint256"
        }
      ],
      "name": "voted",
      "outputs": [
        {
          "internalType": "bool",
          "name": "",
          "type": "bool"
        }
      ],
      "stateMutability": "view",
      "type": "function"
    },
    {
      "inputs": [
        {
          "internalType": "uint256",
          "name": "",
          "type": "uint256"
        },
        {
          "internalType": "uint256",
          "name": "",
          "type": "uint256"
        }
      ],
      "name": "votes",
      "outputs": [
        {
          "internalType": "uint256",
          "name": "",
          "type": "uint256"
        }
      ],
      "stateMutability": "view",
      "type": "function"
    }
  ],
  "bytecode": "0x608060405262015180600b556000600c55601e600d55600a600e556014600f556001601060006101000a81548160ff0219169083151502179055506001601060016101000a81548160ff02191690831515021790555060646013556001601960006101000a81548160ff02191690831515021790555034801561008157600080fd5b5033600073ffffffffffffffffffffffffffffffffffffffff168173ffffffffffffffffffffffffffffffffffffffff16036100f55760006040517f1e4fbdf70000000000000000000000000000000000000000000000000000000081526004016100ec9190610363565b60405180910390fd5b6101048161025e60201b60201c565b50732f9810789aebbb6cdc6c0332948ff3b6d11121e3600360006101000a81548173ffffffffffffffffffffffffffffffffffffffff021916908373ffffffffffffffffffffffffffffffffffffffff16021790555073953761a771d6ad9f888e41b3e7c9338a32b1a346600260006101000a81548173ffffffffffffffffffffffffffffffffffffffff021916908373ffffffffffffffffffffffffffffffffffffffff16021790555073f3851e1b7824bd920350e6fe9b890bb76d01c9f7600460006101000a81548173ffffffffffffffffffffffffffffffffffffffff021916908373ffffffffffffffffffffffffffffffffffffffff1602179055507305aa491820662b131d285757e5da4b74bd0f0e5f600560006101000a81548173ffffffffffffffffffffffffffffffffffffffff021916908373ffffffffffffffffffffffffffffffffffffffff16021790555061037e565b60008060009054906101000a900473ffffffffffffffffffffffffffffffffffffffff169050816000806101000a81548173ffffffffffffffffffffffffffffffffffffffff021916908373ffffffffffffffffffffffffffffffffffffffff1602179055508173ffffffffffffffffffffffffffffffffffffffff168173ffffffffffffffffffffffffffffffffffffffff167f8be0079c531659141344cd1fd0a4f28419497f9722a3daafe3b4186f6b6457e060405160405180910390a35050565b600073ffffffffffffffffffffffffffffffffffffffff82169050919050565b600061034d82610322565b9050919050565b61035d81610342565b82525050565b60006020820190506103786000830184610354565b92915050565b6158358061038d6000396000f3fe608060405234801561001057600080fd5b50600436106103af5760003560e01c8063924babe5116101f4578063c1654f211161011a578063e2ab2c8f116100ad578063f23a6e611161007c578063f23a6e6114610b52578063f2fde38b14610b82578063fcf8763f14610b9e578063fff1e5ad14610bba576103af565b8063e2ab2c8f14610ade578063e2de8ccd14610afa578063e4ee53df14610b18578063ec9ee54e14610b34576103af565b8063d3f0bb2b116100e9578063d3f0bb2b14610a40578063d3f3300914610a70578063d681d3b914610a8e578063e215747c14610ac0576103af565b8063c1654f21146109ba578063c6e36a32146109d6578063c7be392314610a06578063ca4c840114610a22576103af565b8063a188f22911610192578063bb29006011610161578063bb2900601461090e578063bc197c811461093e578063bed34bba1461096e578063c11b17191461099e576103af565b8063a188f22914610876578063a6674f8814610892578063b21229a9146108c2578063b41e32f9146108f2576103af565b806397cb6ad4116101ce57806397cb6ad4146107ca57806397faf865146107fa5780639df93144146108165780639e14442514610846576103af565b8063924babe514610776578063924eab3a1461079257806394236aad146107ae576103af565b80635acbf92d116102d9578063715018a61161027757806385db5af61161024657806385db5af6146107025780638b58164f146107205780638da5cb5b1461073c57806390e8582c1461075a576103af565b8063715018a6146106a257806374375309146106ac57806375cf9a77146106ca5780637f714dc6146106e6576103af565b806360b87608116102b357806360b876081461062e5780636a08780e1461064a5780636b833e6f146106685780636dea7d7614610686576103af565b80635acbf92d146105c45780635cd17d9a146105e05780635f287cf2146105fe576103af565b80632a88ee511161035157806348e5dc151161032057806348e5dc151461053e5780635127d5c81461055c57806353dd09e51461058c578063558a7297146105a8576103af565b80632a88ee51146104ca57806339199db1146104e65780633bb031fb14610504578063405ebd4d14610522576103af565b8063136cf2a01161038d578063136cf2a01461041e578063184433bc1461044e578063244aae7a1461046a57806325f384391461049a576103af565b8063013a9a68146103b457806301ffc9a7146103d25780630b2063b714610402575b600080fd5b6103bc610bd6565b6040516103c991906138d7565b60405180910390f35b6103ec60048036038101906103e7919061395e565b610bfc565b6040516103f991906139a6565b60405180910390f35b61041c600480360381019061041791906139f7565b610c66565b005b610438600480360381019061043391906139f7565b6110d2565b6040516104459190613a46565b60405180910390f35b61046860048036038101906104639190613a61565b6117e5565b005b610484600480360381019061047f9190613a61565b611812565b60405161049191906139a6565b60405180910390f35b6104b460048036038101906104af9190613a61565b611832565b6040516104c19190613a46565b60405180910390f35b6104e460048036038101906104df9190613acc565b61184a565b005b6104ee611896565b6040516104fb91906139a6565b60405180910390f35b61050c6118a9565b6040516105199190613b1a565b60405180910390f35b61053c60048036038101906105379190613acc565b6118cf565b005b61054661191b565b6040516105539190613b56565b60405180910390f35b61057660048036038101906105719190613a61565b611941565b60405161058391906139a6565b60405180910390f35b6105a660048036038101906105a19190613acc565b611961565b005b6105c260048036038101906105bd9190613b9d565b6119ad565b005b6105de60048036038101906105d991906139f7565b611a10565b005b6105e8611d4b565b6040516105f59190613b56565b60405180910390f35b610618600480360381019061061391906139f7565b611d71565b60405161062591906139a6565b60405180910390f35b61064860048036038101906106439190613bdd565b611da0565b005b610652611dc5565b60405161065f9190613a46565b60405180910390f35b610670611dcb565b60405161067d9190613a46565b60405180910390f35b6106a0600480360381019061069b91906139f7565b611dd1565b005b6106aa611df5565b005b6106b4611e09565b6040516106c19190613c2b565b60405180910390f35b6106e460048036038101906106df9190613a61565b611e2f565b005b61070060048036038101906106fb9190613a61565b611e5c565b005b61070a61205a565b60405161071791906139a6565b60405180910390f35b61073a60048036038101906107359190613acc565b61206d565b005b6107446120b9565b6040516107519190613c55565b60405180910390f35b610774600480360381019061076f9190613c70565b6120e2565b005b610790600480360381019061078b91906139f7565b612261565b005b6107ac60048036038101906107a79190613acc565b6126e9565b005b6107c860048036038101906107c39190613bdd565b612735565b005b6107e460048036038101906107df9190613a61565b61275a565b6040516107f19190613a46565b60405180910390f35b610814600480360381019061080f9190613a61565b612772565b005b610830600480360381019061082b9190613a61565b612791565b60405161083d9190613a46565b60405180910390f35b610860600480360381019061085b9190613a61565b6127a9565b60405161086d9190613a46565b60405180910390f35b610890600480360381019061088b91906139f7565b612994565b005b6108ac60048036038101906108a79190613acc565b612e02565b6040516108b991906139a6565b60405180910390f35b6108dc60048036038101906108d791906139f7565b612e22565b6040516108e991906139a6565b60405180910390f35b61090c60048036038101906109079190613d28565b612e51565b005b61092860048036038101906109239190613a61565b612fd1565b6040516109359190613a46565b60405180910390f35b61095860048036038101906109539190613dff565b612fe9565b6040516109659190613eea565b60405180910390f35b61098860048036038101906109839190614046565b613001565b60405161099591906139a6565b60405180910390f35b6109b860048036038101906109b39190613d28565b61305a565b005b6109d460048036038101906109cf9190613bdd565b613156565b005b6109f060048036038101906109eb91906139f7565b61317b565b6040516109fd9190613a46565b60405180910390f35b610a206004803603810190610a1b91906139f7565b6131a0565b005b610a2a613517565b604051610a379190613a46565b60405180910390f35b610a5a6004803603810190610a559190613a61565b61351d565b604051610a6791906139a6565b60405180910390f35b610a7861353d565b604051610a8591906140df565b60405180910390f35b610aa86004803603810190610aa39190613a61565b613563565b604051610ab7939291906140fa565b60405180910390f35b610ac861359a565b604051610ad59190613a46565b60405180910390f35b610af86004803603810190610af39190613a61565b6135a0565b005b610b026135cd565b604051610b0f9190613a46565b60405180910390f35b610b326004803603810190610b2d9190613acc565b6135d3565b005b610b3c61361f565b604051610b499190613a46565b60405180910390f35b610b6c6004803603810190610b679190614131565b613625565b604051610b799190613eea565b60405180910390f35b610b9c6004803603810190610b979190613acc565b61363b565b005b610bb86004803603810190610bb39190613a61565b6136c1565b005b610bd46004803603810190610bcf9190613a61565b6136d8565b005b600360009054906101000a900473ffffffffffffffffffffffffffffffffffffffff1681565b60007f4e2312e0000000000000000000000000000000000000000000000000000000007bffffffffffffffffffffffffffffffffffffffffffffffffffffffff1916827bffffffffffffffffffffffffffffffffffffffffffffffffffffffff1916149050919050565b8060006201518042610c789190614229565b905081601560008381526020019081526020016000205414610c9957600080fd5b60006201518042610caa9190614229565b9050600660009054906101000a900473ffffffffffffffffffffffffffffffffffffffff1673ffffffffffffffffffffffffffffffffffffffff166370d3133e6040518163ffffffff1660e01b8152600401602060405180830381865afa158015610d19573d6000803e3d6000fd5b505050506040513d601f19601f82011682018060405250810190610d3d919061426f565b15610d7d576040517f08c379a0000000000000000000000000000000000000000000000000000000008152600401610d749061431f565b60405180910390fd5b600c548510158015610d915750600d548511155b610d9a57600080fd5b60186000808152602001908152602001600020600082815260200190815260200160002060009054906101000a900460ff1615610e0c576040517f08c379a0000000000000000000000000000000000000000000000000000000008152600401610e039061438b565b60405180910390fd5b600660009054906101000a900473ffffffffffffffffffffffffffffffffffffffff1673ffffffffffffffffffffffffffffffffffffffff1663d8691bff856040518263ffffffff1660e01b8152600401610e679190613a46565b602060405180830381865afa158015610e84573d6000803e3d6000fd5b505050506040513d601f19601f82011682018060405250810190610ea8919061426f565b610ee7576040517f08c379a0000000000000000000000000000000000000000000000000000000008152600401610ede906143f7565b60405180910390fd5b600660009054906101000a900473ffffffffffffffffffffffffffffffffffffffff1673ffffffffffffffffffffffffffffffffffffffff16637159292c85336040518363ffffffff1660e01b8152600401610f44929190614417565b602060405180830381865afa158015610f61573d6000803e3d6000fd5b505050506040513d601f19601f82011682018060405250810190610f85919061426f565b610fc4576040517f08c379a0000000000000000000000000000000000000000000000000000000008152600401610fbb9061448c565b60405180910390fd5b600160186000808152602001908152602001600020600083815260200190815260200160002060006101000a81548160ff021916908315150217905550600660009054906101000a900473ffffffffffffffffffffffffffffffffffffffff1673ffffffffffffffffffffffffffffffffffffffff16639fed85ef6009876040518363ffffffff1660e01b815260040161105f929190614523565b600060405180830381600087803b15801561107957600080fd5b505af115801561108d573d6000803e3d6000fd5b50505050837f6396cd2093ebce841e2ba56ea335e4e6671f5e7b8f34a1357933ab22c6c3131b86336040516110c3929190614417565b60405180910390a25050505050565b60006001600360009054906101000a900473ffffffffffffffffffffffffffffffffffffffff1673ffffffffffffffffffffffffffffffffffffffff1662fdd58e33866040518363ffffffff1660e01b815260040161113292919061454c565b602060405180830381865afa15801561114f573d6000803e3d6000fd5b505050506040513d601f19601f82011682018060405250810190611173919061458a565b10156111b4576040517f08c379a00000000000000000000000000000000000000000000000000000000081526004016111ab90614629565b60405180910390fd5b600360009054906101000a900473ffffffffffffffffffffffffffffffffffffffff1673ffffffffffffffffffffffffffffffffffffffff1663e985e9c533306040518363ffffffff1660e01b8152600401611211929190614649565b602060405180830381865afa15801561122e573d6000803e3d6000fd5b505050506040513d601f19601f82011682018060405250810190611252919061426f565b611291576040517f08c379a0000000000000000000000000000000000000000000000000000000008152600401611288906146e4565b60405180910390fd5b611378600260009054906101000a900473ffffffffffffffffffffffffffffffffffffffff1673ffffffffffffffffffffffffffffffffffffffff16637809a045856040518263ffffffff1660e01b81526004016112ef9190613a46565b600060405180830381865afa15801561130c573d6000803e3d6000fd5b505050506040513d6000823e3d601f19601f820116820180604052508101906113359190614f3c565b60a00151602001516040518060400160405280600981526020017f73696e676c65746f6e0000000000000000000000000000000000000000000000815250613001565b156113b8576040517f08c379a00000000000000000000000000000000000000000000000000000000081526004016113af90614fd1565b60405180910390fd5b600660009054906101000a900473ffffffffffffffffffffffffffffffffffffffff1673ffffffffffffffffffffffffffffffffffffffff1663d8691bff836040518263ffffffff1660e01b81526004016114139190613a46565b602060405180830381865afa158015611430573d6000803e3d6000fd5b505050506040513d601f19601f82011682018060405250810190611454919061426f565b611493576040517f08c379a000000000000000000000000000000000000000000000000000000000815260040161148a9061503d565b60405180910390fd5b600660009054906101000a900473ffffffffffffffffffffffffffffffffffffffff1673ffffffffffffffffffffffffffffffffffffffff16637159292c83336040518363ffffffff1660e01b81526004016114f0929190614417565b602060405180830381865afa15801561150d573d6000803e3d6000fd5b505050506040513d601f19601f82011682018060405250810190611531919061426f565b611570576040517f08c379a00000000000000000000000000000000000000000000000000000000081526004016115679061448c565b60405180910390fd5b600062015180426115819190614229565b9050806012600085815260200190815260200160002054146115cf57600060116000858152602001908152602001600020819055508060126000858152602001908152602001600020819055505b601354601160008581526020019081526020016000205410611626576040517f08c379a000000000000000000000000000000000000000000000000000000000815260040161161d906150a9565b60405180910390fd5b60116000848152602001908152602001600020600081548092919061164a906150c9565b9190505550600360009054906101000a900473ffffffffffffffffffffffffffffffffffffffff1673ffffffffffffffffffffffffffffffffffffffff1663f242432a33308760016040518563ffffffff1660e01b81526004016116b19493929190615183565b600060405180830381600087803b1580156116cb57600080fd5b505af11580156116df573d6000803e3d6000fd5b50505050600660009054906101000a900473ffffffffffffffffffffffffffffffffffffffff1673ffffffffffffffffffffffffffffffffffffffff1663cf5a0d468461172b876127a9565b6040518363ffffffff1660e01b81526004016117489291906151db565b600060405180830381600087803b15801561176257600080fd5b505af1158015611776573d6000803e3d6000fd5b50505050833373ffffffffffffffffffffffffffffffffffffffff167f5f56d0882a805d71113581f1e8dff74e603357a4dd9cfdb645a5a8db6786d21d6117bc876127a9565b336040516117cb929190614417565b60405180910390a36117dc846127a9565b91505092915050565b6117ed613705565b600081101580156117ff575060648111155b61180857600080fd5b80600d8190555050565b60096020528060005260406000206000915054906101000a900460ff1681565b60116020528060005260406000206000915090505481565b611852613705565b80601060026101000a81548173ffffffffffffffffffffffffffffffffffffffff021916908373ffffffffffffffffffffffffffffffffffffffff16021790555050565b601060019054906101000a900460ff1681565b600260009054906101000a900473ffffffffffffffffffffffffffffffffffffffff1681565b6118d7613705565b80600660006101000a81548173ffffffffffffffffffffffffffffffffffffffff021916908373ffffffffffffffffffffffffffffffffffffffff16021790555050565b600460009054906101000a900473ffffffffffffffffffffffffffffffffffffffff1681565b60076020528060005260406000206000915054906101000a900460ff1681565b611969613705565b80600360006101000a81548173ffffffffffffffffffffffffffffffffffffffff021916908373ffffffffffffffffffffffffffffffffffffffff16021790555050565b6119b5613705565b80600160008473ffffffffffffffffffffffffffffffffffffffff1673ffffffffffffffffffffffffffffffffffffffff16815260200190815260200160002060006101000a81548160ff0219169083151502179055505050565b3373ffffffffffffffffffffffffffffffffffffffff16600560009054906101000a900473ffffffffffffffffffffffffffffffffffffffff1673ffffffffffffffffffffffffffffffffffffffff16636352211e836040518263ffffffff1660e01b8152600401611a829190613a46565b602060405180830381865afa158015611a9f573d6000803e3d6000fd5b505050506040513d601f19601f82011682018060405250810190611ac39190615219565b73ffffffffffffffffffffffffffffffffffffffff1614611b19576040517f08c379a0000000000000000000000000000000000000000000000000000000008152600401611b1090615292565b60405180910390fd5b600a600082815260200190815260200160002060009054906101000a900460ff1615611b7a576040517f08c379a0000000000000000000000000000000000000000000000000000000008152600401611b71906152fe565b60405180910390fd5b6009600083815260200190815260200160002060009054906101000a900460ff1615611bdb576040517f08c379a0000000000000000000000000000000000000000000000000000000008152600401611bd29061536a565b60405180910390fd5b600660009054906101000a900473ffffffffffffffffffffffffffffffffffffffff1673ffffffffffffffffffffffffffffffffffffffff1663d8691bff836040518263ffffffff1660e01b8152600401611c369190613a46565b602060405180830381865afa158015611c53573d6000803e3d6000fd5b505050506040513d601f19601f82011682018060405250810190611c77919061426f565b611cb6576040517f08c379a0000000000000000000000000000000000000000000000000000000008152600401611cad9061503d565b60405180910390fd5b60016009600084815260200190815260200160002060006101000a81548160ff0219169083151502179055506001600a600083815260200190815260200160002060006101000a81548160ff02191690831515021790555080827f2243b98a7e399fd7654c12f591096593411d78784ded6025d106a949b172295333604051611d3f9190613c55565b60405180910390a35050565b600560009054906101000a900473ffffffffffffffffffffffffffffffffffffffff1681565b60176020528160005260406000206020528060005260406000206000915091509054906101000a900460ff1681565b611da8613705565b80601960006101000a81548160ff02191690831515021790555050565b600f5481565b600e5481565b611dd9613705565b8060156000848152602001908152602001600020819055505050565b611dfd613705565b611e07600061378c565b565b601060029054906101000a900473ffffffffffffffffffffffffffffffffffffffff1681565b611e37613705565b60008110158015611e49575060198111155b611e5257600080fd5b80600e8190555050565b3373ffffffffffffffffffffffffffffffffffffffff16600460009054906101000a900473ffffffffffffffffffffffffffffffffffffffff1673ffffffffffffffffffffffffffffffffffffffff16636352211e836040518263ffffffff1660e01b8152600401611ece9190613a46565b602060405180830381865afa158015611eeb573d6000803e3d6000fd5b505050506040513d601f19601f82011682018060405250810190611f0f9190615219565b73ffffffffffffffffffffffffffffffffffffffff1614611f65576040517f08c379a0000000000000000000000000000000000000000000000000000000008152600401611f5c90615292565b60405180910390fd5b42600b546008600084815260200190815260200160002060020154611f8a919061538a565b10611fca576040517f08c379a0000000000000000000000000000000000000000000000000000000008152600401611fc19061540a565b60405180910390fd5b60006008600083815260200190815260200160002060010160006101000a81548160ff0219169083151502179055506000600760006008600085815260200190815260200160002060000154815260200190815260200160002060006101000a81548160ff0219169083151502179055506000600860008381526020019081526020016000206000018190555050565b601060009054906101000a900460ff1681565b612075613705565b80600260006101000a81548173ffffffffffffffffffffffffffffffffffffffff021916908373ffffffffffffffffffffffffffffffffffffffff16021790555050565b60008060009054906101000a900473ffffffffffffffffffffffffffffffffffffffff16905090565b6120ea613705565b80600360009054906101000a900473ffffffffffffffffffffffffffffffffffffffff1673ffffffffffffffffffffffffffffffffffffffff1662fdd58e30856040518363ffffffff1660e01b815260040161214792919061454c565b602060405180830381865afa158015612164573d6000803e3d6000fd5b505050506040513d601f19601f82011682018060405250810190612188919061458a565b10156121c9576040517f08c379a00000000000000000000000000000000000000000000000000000000081526004016121c09061549c565b60405180910390fd5b600360009054906101000a900473ffffffffffffffffffffffffffffffffffffffff1673ffffffffffffffffffffffffffffffffffffffff1663f242432a308585856040518563ffffffff1660e01b815260040161222a94939291906154bc565b600060405180830381600087803b15801561224457600080fd5b505af1158015612258573d6000803e3d6000fd5b50505050505050565b6000600162015180426122749190614229565b61227e919061538a565b9050601960009054906101000a900460ff166122cf576040517f08c379a00000000000000000000000000000000000000000000000000000000081526004016122c690615560565b60405180910390fd5b60176000828152602001908152602001600020600083815260200190815260200160002060009054906101000a900460ff1615612341576040517f08c379a0000000000000000000000000000000000000000000000000000000008152600401612338906155cc565b60405180910390fd5b600660009054906101000a900473ffffffffffffffffffffffffffffffffffffffff1673ffffffffffffffffffffffffffffffffffffffff1663d8691bff846040518263ffffffff1660e01b815260040161239c9190613a46565b602060405180830381865afa1580156123b9573d6000803e3d6000fd5b505050506040513d601f19601f820116820180604052508101906123dd919061426f565b80156124815750600660009054906101000a900473ffffffffffffffffffffffffffffffffffffffff1673ffffffffffffffffffffffffffffffffffffffff1663d8691bff836040518263ffffffff1660e01b815260040161243f9190613a46565b602060405180830381865afa15801561245c573d6000803e3d6000fd5b505050506040513d601f19601f82011682018060405250810190612480919061426f565b5b6124c0576040517f08c379a00000000000000000000000000000000000000000000000000000000081526004016124b7906143f7565b60405180910390fd5b600660009054906101000a900473ffffffffffffffffffffffffffffffffffffffff1673ffffffffffffffffffffffffffffffffffffffff16637159292c83336040518363ffffffff1660e01b815260040161251d929190614417565b602060405180830381865afa15801561253a573d6000803e3d6000fd5b505050506040513d601f19601f8201168201806040525081019061255e919061426f565b61259d576040517f08c379a00000000000000000000000000000000000000000000000000000000081526004016125949061448c565b60405180910390fd5b600160176000838152602001908152602001600020600084815260200190815260200160002060006101000a81548160ff0219169083151502179055506001601660008381526020019081526020016000206000858152602001908152602001600020600082825461260f919061538a565b9250508190555060146000828152602001908152602001600020546016600083815260200190815260200160002060008581526020019081526020016000205411156126aa578260156000838152602001908152602001600020819055506016600082815260200190815260200160002060008481526020019081526020016000205460146000838152602001908152602001600020819055505b8183827f76edd04c2c86a17224eb2e525b7180aec5f53e1e537a188351a6c9ed3b60e2d3336040516126dc9190613c55565b60405180910390a4505050565b6126f1613705565b80600560006101000a81548173ffffffffffffffffffffffffffffffffffffffff021916908373ffffffffffffffffffffffffffffffffffffffff16021790555050565b61273d613705565b80601060006101000a81548160ff02191690831515021790555050565b60156020528060005260406000206000915090505481565b61277a613705565b6000811161278757600080fd5b8060138190555050565b60126020528060005260406000206000915090505481565b600080600260009054906101000a900473ffffffffffffffffffffffffffffffffffffffff1673ffffffffffffffffffffffffffffffffffffffff16637809a045846040518263ffffffff1660e01b81526004016128079190613a46565b600060405180830381865afa158015612824573d6000803e3d6000fd5b505050506040513d6000823e3d601f19601f8201168201806040525081019061284d9190614f3c565b9050600073ffffffffffffffffffffffffffffffffffffffff16601060029054906101000a900473ffffffffffffffffffffffffffffffffffffffff1673ffffffffffffffffffffffffffffffffffffffff161461295557601060029054906101000a900473ffffffffffffffffffffffffffffffffffffffff1673ffffffffffffffffffffffffffffffffffffffff16630f51adfd8261014001518361016001516040518363ffffffff1660e01b815260040161290c9291906151db565b602060405180830381865afa158015612929573d6000803e3d6000fd5b505050506040513d601f19601f8201168201806040525081019061294d919061458a565b91505061298f565b670de0b6b3a7640000610e10826101600151836101400151612977919061538a565b61298191906155ec565b61298b9190614229565b9150505b919050565b80600062015180426129a69190614229565b9050816015600083815260200190815260200160002054146129c757600080fd5b600062015180426129d89190614229565b9050600660009054906101000a900473ffffffffffffffffffffffffffffffffffffffff1673ffffffffffffffffffffffffffffffffffffffff166370d3133e6040518163ffffffff1660e01b8152600401602060405180830381865afa158015612a47573d6000803e3d6000fd5b505050506040513d601f19601f82011682018060405250810190612a6b919061426f565b15612aab576040517f08c379a0000000000000000000000000000000000000000000000000000000008152600401612aa29061431f565b60405180910390fd5b600e548510158015612abf5750600f548511155b612ac857600080fd5b6018600060018152602001908152602001600020600082815260200190815260200160002060009054906101000a900460ff1615612b3b576040517f08c379a0000000000000000000000000000000000000000000000000000000008152600401612b329061438b565b60405180910390fd5b600660009054906101000a900473ffffffffffffffffffffffffffffffffffffffff1673ffffffffffffffffffffffffffffffffffffffff1663d8691bff856040518263ffffffff1660e01b8152600401612b969190613a46565b602060405180830381865afa158015612bb3573d6000803e3d6000fd5b505050506040513d601f19601f82011682018060405250810190612bd7919061426f565b612c16576040517f08c379a0000000000000000000000000000000000000000000000000000000008152600401612c0d906143f7565b60405180910390fd5b600660009054906101000a900473ffffffffffffffffffffffffffffffffffffffff1673ffffffffffffffffffffffffffffffffffffffff16637159292c85336040518363ffffffff1660e01b8152600401612c73929190614417565b602060405180830381865afa158015612c90573d6000803e3d6000fd5b505050506040513d601f19601f82011682018060405250810190612cb4919061426f565b612cf3576040517f08c379a0000000000000000000000000000000000000000000000000000000008152600401612cea9061448c565b60405180910390fd5b60016018600060018152602001908152602001600020600083815260200190815260200160002060006101000a81548160ff021916908315150217905550600660009054906101000a900473ffffffffffffffffffffffffffffffffffffffff1673ffffffffffffffffffffffffffffffffffffffff16639fed85ef600a876040518363ffffffff1660e01b8152600401612d8f929190614523565b600060405180830381600087803b158015612da957600080fd5b505af1158015612dbd573d6000803e3d6000fd5b50505050837fe2966d0451c1e10c26ee62cc0b00881e4b43e8ff9e69c45839b117f1f5752ae28633604051612df3929190614417565b60405180910390a25050505050565b60016020528060005260406000206000915054906101000a900460ff1681565b60186020528160005260406000206020528060005260406000206000915091509054906101000a900460ff1681565b612e59613705565b818190508484905014612ea1576040517f08c379a0000000000000000000000000000000000000000000000000000000008152600401612e989061567a565b60405180910390fd5b60005b84849050811015612fca57600160086000858585818110612ec857612ec761569a565b5b90506020020135815260200190815260200160002060010160006101000a81548160ff0219169083151502179055504260086000858585818110612f0f57612f0e61569a565b5b90506020020135815260200190815260200160002060020181905550848482818110612f3e57612f3d61569a565b5b9050602002013560086000858585818110612f5c57612f5b61569a565b5b90506020020135815260200190815260200160002060000181905550600160076000878785818110612f9157612f9061569a565b5b90506020020135815260200190815260200160002060006101000a81548160ff0219169083151502179055508080600101915050612ea4565b5050505050565b60146020528060005260406000206000915090505481565b600063bc197c8160e01b905098975050505050505050565b6000816040516020016130149190615710565b604051602081830303815290604052805190602001208360405160200161303b9190615710565b6040516020818303038152906040528051906020012014905092915050565b613062613705565b8181905084849050146130aa576040517f08c379a00000000000000000000000000000000000000000000000000000000081526004016130a19061567a565b60405180910390fd5b60005b8484905081101561314f576001600960008787858181106130d1576130d061569a565b5b90506020020135815260200190815260200160002060006101000a81548160ff0219169083151502179055506001600a60008585858181106131165761311561569a565b5b90506020020135815260200190815260200160002060006101000a81548160ff02191690831515021790555080806001019150506130ad565b5050505050565b61315e613705565b80601060016101000a81548160ff02191690831515021790555050565b6016602052816000526040600020602052806000526040600020600091509150505481565b3373ffffffffffffffffffffffffffffffffffffffff16600460009054906101000a900473ffffffffffffffffffffffffffffffffffffffff1673ffffffffffffffffffffffffffffffffffffffff16636352211e836040518263ffffffff1660e01b81526004016132129190613a46565b602060405180830381865afa15801561322f573d6000803e3d6000fd5b505050506040513d601f19601f820116820180604052508101906132539190615219565b73ffffffffffffffffffffffffffffffffffffffff16146132a9576040517f08c379a00000000000000000000000000000000000000000000000000000000081526004016132a090615292565b60405180910390fd5b6008600082815260200190815260200160002060010160009054906101000a900460ff161561330d576040517f08c379a000000000000000000000000000000000000000000000000000000000815260040161330490615773565b60405180910390fd5b6007600083815260200190815260200160002060009054906101000a900460ff161561336e576040517f08c379a0000000000000000000000000000000000000000000000000000000008152600401613365906157df565b60405180910390fd5b600660009054906101000a900473ffffffffffffffffffffffffffffffffffffffff1673ffffffffffffffffffffffffffffffffffffffff1663d8691bff836040518263ffffffff1660e01b81526004016133c99190613a46565b602060405180830381865afa1580156133e6573d6000803e3d6000fd5b505050506040513d601f19601f8201168201806040525081019061340a919061426f565b613449576040517f08c379a00000000000000000000000000000000000000000000000000000000081526004016134409061503d565b60405180910390fd5b60016008600083815260200190815260200160002060010160006101000a81548160ff02191690831515021790555042600860008381526020019081526020016000206002018190555081600860008381526020019081526020016000206000018190555060016007600084815260200190815260200160002060006101000a81548160ff02191690831515021790555080827f2ede15e79b8480d3e4adf9c14a638c686051a7d742e8474fd9e1ca0c5426ab613360405161350b9190613c55565b60405180910390a35050565b600c5481565b600a6020528060005260406000206000915054906101000a900460ff1681565b600660009054906101000a900473ffffffffffffffffffffffffffffffffffffffff1681565b60086020528060005260406000206000915090508060000154908060010160009054906101000a900460ff16908060020154905083565b600d5481565b6135a8613705565b600081101580156135ba575060198111155b6135c357600080fd5b80600f8190555050565b600b5481565b6135db613705565b80600460006101000a81548173ffffffffffffffffffffffffffffffffffffffff021916908373ffffffffffffffffffffffffffffffffffffffff16021790555050565b60135481565b600063f23a6e6160e01b90509695505050505050565b613643613705565b600073ffffffffffffffffffffffffffffffffffffffff168173ffffffffffffffffffffffffffffffffffffffff16036136b55760006040517f1e4fbdf70000000000000000000000000000000000000000000000000000000081526004016136ac9190613c55565b60405180910390fd5b6136be8161378c565b50565b600081116136ce57600080fd5b80600b8190555050565b6136e0613705565b600081101580156136f2575060648111155b6136fb57600080fd5b80600c8190555050565b61370d613850565b73ffffffffffffffffffffffffffffffffffffffff1661372b6120b9565b73ffffffffffffffffffffffffffffffffffffffff161461378a5761374e613850565b6040517f118cdaa70000000000000000000000000000000000000000000000000000000081526004016137819190613c55565b60405180910390fd5b565b60008060009054906101000a900473ffffffffffffffffffffffffffffffffffffffff169050816000806101000a81548173ffffffffffffffffffffffffffffffffffffffff021916908373ffffffffffffffffffffffffffffffffffffffff1602179055508173ffffffffffffffffffffffffffffffffffffffff168173ffffffffffffffffffffffffffffffffffffffff167f8be0079c531659141344cd1fd0a4f28419497f9722a3daafe3b4186f6b6457e060405160405180910390a35050565b600033905090565b600073ffffffffffffffffffffffffffffffffffffffff82169050919050565b6000819050919050565b600061389d61389861389384613858565b613878565b613858565b9050919050565b60006138af82613882565b9050919050565b60006138c1826138a4565b9050919050565b6138d1816138b6565b82525050565b60006020820190506138ec60008301846138c8565b92915050565b6000604051905090565b600080fd5b600080fd5b60007fffffffff0000000000000000000000000000000000000000000000000000000082169050919050565b61393b81613906565b811461394657600080fd5b50565b60008135905061395881613932565b92915050565b600060208284031215613974576139736138fc565b5b600061398284828501613949565b91505092915050565b60008115159050919050565b6139a08161398b565b82525050565b60006020820190506139bb6000830184613997565b92915050565b6000819050919050565b6139d4816139c1565b81146139df57600080fd5b50565b6000813590506139f1816139cb565b92915050565b60008060408385031215613a0e57613a0d6138fc565b5b6000613a1c858286016139e2565b9250506020613a2d858286016139e2565b9150509250929050565b613a40816139c1565b82525050565b6000602082019050613a5b6000830184613a37565b92915050565b600060208284031215613a7757613a766138fc565b5b6000613a85848285016139e2565b91505092915050565b6000613a9982613858565b9050919050565b613aa981613a8e565b8114613ab457600080fd5b50565b600081359050613ac681613aa0565b92915050565b600060208284031215613ae257613ae16138fc565b5b6000613af084828501613ab7565b91505092915050565b6000613b04826138a4565b9050919050565b613b1481613af9565b82525050565b6000602082019050613b2f6000830184613b0b565b92915050565b6000613b40826138a4565b9050919050565b613b5081613b35565b82525050565b6000602082019050613b6b6000830184613b47565b92915050565b613b7a8161398b565b8114613b8557600080fd5b50565b600081359050613b9781613b71565b92915050565b60008060408385031215613bb457613bb36138fc565b5b6000613bc285828601613ab7565b9250506020613bd385828601613b88565b9150509250929050565b600060208284031215613bf357613bf26138fc565b5b6000613c0184828501613b88565b91505092915050565b6000613c15826138a4565b9050919050565b613c2581613c0a565b82525050565b6000602082019050613c406000830184613c1c565b92915050565b613c4f81613a8e565b82525050565b6000602082019050613c6a6000830184613c46565b92915050565b600080600060608486031215613c8957613c886138fc565b5b6000613c9786828701613ab7565b9350506020613ca8868287016139e2565b9250506040613cb9868287016139e2565b9150509250925092565b600080fd5b600080fd5b600080fd5b60008083601f840112613ce857613ce7613cc3565b5b8235905067ffffffffffffffff811115613d0557613d04613cc8565b5b602083019150836020820283011115613d2157613d20613ccd565b5b9250929050565b60008060008060408587031215613d4257613d416138fc565b5b600085013567ffffffffffffffff811115613d6057613d5f613901565b5b613d6c87828801613cd2565b9450945050602085013567ffffffffffffffff811115613d8f57613d8e613901565b5b613d9b87828801613cd2565b925092505092959194509250565b60008083601f840112613dbf57613dbe613cc3565b5b8235905067ffffffffffffffff811115613ddc57613ddb613cc8565b5b602083019150836001820283011115613df857613df7613ccd565b5b9250929050565b60008060008060008060008060a0898b031215613e1f57613e1e6138fc565b5b6000613e2d8b828c01613ab7565b9850506020613e3e8b828c01613ab7565b975050604089013567ffffffffffffffff811115613e5f57613e5e613901565b5b613e6b8b828c01613cd2565b9650965050606089013567ffffffffffffffff811115613e8e57613e8d613901565b5b613e9a8b828c01613cd2565b9450945050608089013567ffffffffffffffff811115613ebd57613ebc613901565b5b613ec98b828c01613da9565b92509250509295985092959890939650565b613ee481613906565b82525050565b6000602082019050613eff6000830184613edb565b92915050565b600080fd5b6000601f19601f8301169050919050565b7f4e487b7100000000000000000000000000000000000000000000000000000000600052604160045260246000fd5b613f5382613f0a565b810181811067ffffffffffffffff82111715613f7257613f71613f1b565b5b80604052505050565b6000613f856138f2565b9050613f918282613f4a565b919050565b600067ffffffffffffffff821115613fb157613fb0613f1b565b5b613fba82613f0a565b9050602081019050919050565b82818337600083830152505050565b6000613fe9613fe484613f96565b613f7b565b90508281526020810184848401111561400557614004613f05565b5b614010848285613fc7565b509392505050565b600082601f83011261402d5761402c613cc3565b5b813561403d848260208601613fd6565b91505092915050565b6000806040838503121561405d5761405c6138fc565b5b600083013567ffffffffffffffff81111561407b5761407a613901565b5b61408785828601614018565b925050602083013567ffffffffffffffff8111156140a8576140a7613901565b5b6140b485828601614018565b9150509250929050565b60006140c9826138a4565b9050919050565b6140d9816140be565b82525050565b60006020820190506140f460008301846140d0565b92915050565b600060608201905061410f6000830186613a37565b61411c6020830185613997565b6141296040830184613a37565b949350505050565b60008060008060008060a0878903121561414e5761414d6138fc565b5b600061415c89828a01613ab7565b965050602061416d89828a01613ab7565b955050604061417e89828a016139e2565b945050606061418f89828a016139e2565b935050608087013567ffffffffffffffff8111156141b0576141af613901565b5b6141bc89828a01613da9565b92509250509295509295509295565b7f4e487b7100000000000000000000000000000000000000000000000000000000600052601260045260246000fd5b7f4e487b7100000000000000000000000000000000000000000000000000000000600052601160045260246000fd5b6000614234826139c1565b915061423f836139c1565b92508261424f5761424e6141cb565b5b828204905092915050565b60008151905061426981613b71565b92915050565b600060208284031215614285576142846138fc565b5b60006142938482850161425a565b91505092915050565b600082825260208201905092915050565b7f43616e277420616c74657220706172616d73207768656e20656c696d696e617460008201527f696f6e206d6f6465206973206f6e000000000000000000000000000000000000602082015250565b6000614309602e8361429c565b9150614314826142ad565b604082019050919050565b60006020820190508181036000830152614338816142fc565b9050919050565b7f596f752063616e206f6e6c792061646a757374206f6e63652070657220646179600082015250565b600061437560208361429c565b91506143808261433f565b602082019050919050565b600060208201905081810360008301526143a481614368565b9050919050565b7f496e61637469766520706c617965720000000000000000000000000000000000600082015250565b60006143e1600f8361429c565b91506143ec826143ab565b602082019050919050565b60006020820190508181036000830152614410816143d4565b9050919050565b600060408201905061442c6000830185613a37565b6144396020830184613c46565b9392505050565b7f4e6f204e46540000000000000000000000000000000000000000000000000000600082015250565b600061447660068361429c565b915061448182614440565b602082019050919050565b600060208201905081810360008301526144a581614469565b9050919050565b7f4e487b7100000000000000000000000000000000000000000000000000000000600052602160045260246000fd5b600c81106144ec576144eb6144ac565b5b50565b60008190506144fd826144db565b919050565b600061450d826144ef565b9050919050565b61451d81614502565b82525050565b60006040820190506145386000830185614514565b6145456020830184613a37565b9392505050565b60006040820190506145616000830185613c46565b61456e6020830184613a37565b9392505050565b600081519050614584816139cb565b92915050565b6000602082840312156145a05761459f6138fc565b5b60006145ae84828501614575565b91505092915050565b7f596f75206d757374206f776e206174206c65617374206f6e65206f662074686960008201527f732073706563696669656420746f6b656e2e0000000000000000000000000000602082015250565b600061461360328361429c565b915061461e826145b7565b604082019050919050565b6000602082019050818103600083015261464281614606565b9050919050565b600060408201905061465e6000830185613c46565b61466b6020830184613c46565b9392505050565b7f436f6e7472616374206973206e6f7420617070726f76656420746f207472616e60008201527f7366657220796f757220746f6b656e732e000000000000000000000000000000602082015250565b60006146ce60318361429c565b91506146d982614672565b604082019050919050565b600060208201905081810360008301526146fd816146c1565b9050919050565b600080fd5b600080fd5b60005b8381101561472c578082015181840152602081019050614711565b60008484015250505050565b600061474b61474684613f96565b613f7b565b90508281526020810184848401111561476757614766613f05565b5b61477284828561470e565b509392505050565b600082601f83011261478f5761478e613cc3565b5b815161479f848260208601614738565b91505092915050565b6000819050919050565b6147bb816147a8565b81146147c657600080fd5b50565b6000815190506147d8816147b2565b92915050565b6000604082840312156147f4576147f3614704565b5b6147fe6040613f7b565b9050600061480e84828501614575565b600083015250602082015167ffffffffffffffff81111561483257614831614709565b5b61483e8482850161477a565b60208301525092915050565b600067ffffffffffffffff82111561486557614864613f1b565b5b602082029050602081019050919050565b600067ffffffffffffffff82111561489157614890613f1b565b5b602082029050602081019050919050565b60006148b56148b084614876565b613f7b565b905080838252602082019050602084028301858111156148d8576148d7613ccd565b5b835b8181101561490157806148ed8882614575565b8452602084019350506020810190506148da565b5050509392505050565b600082601f8301126149205761491f613cc3565b5b81516149308482602086016148a2565b91505092915050565b600061012082840312156149505761494f614704565b5b61495b610120613f7b565b9050600061496b848285016147c9565b600083015250602061497f84828501614575565b602083015250604061499384828501614575565b60408301525060606149a784828501614575565b60608301525060806149bb84828501614575565b60808301525060a082015167ffffffffffffffff8111156149df576149de614709565b5b6149eb8482850161490b565b60a08301525060c082015167ffffffffffffffff811115614a0f57614a0e614709565b5b614a1b8482850161490b565b60c08301525060e082015167ffffffffffffffff811115614a3f57614a3e614709565b5b614a4b8482850161490b565b60e08301525061010082015167ffffffffffffffff811115614a7057614a6f614709565b5b614a7c8482850161490b565b6101008301525092915050565b600060a08284031215614a9f57614a9e614704565b5b614aa960a0613f7b565b90506000614ab984828501614575565b6000830152506020614acd84828501614575565b6020830152506040614ae184828501614575565b6040830152506060614af584828501614575565b606083015250608082015167ffffffffffffffff811115614b1957614b18614709565b5b614b258482850161477a565b60808301525092915050565b60006101808284031215614b4857614b47614704565b5b614b53610180613f7b565b90506000614b6384828501614575565b6000830152506020614b7784828501614575565b6020830152506040614b8b84828501614575565b6040830152506060614b9f84828501614575565b6060830152506080614bb384828501614575565b60808301525060a0614bc78482850161425a565b60a08301525060c082015167ffffffffffffffff811115614beb57614bea614709565b5b614bf78482850161477a565b60c08301525060e082015167ffffffffffffffff811115614c1b57614c1a614709565b5b614c278482850161477a565b60e083015250610100614c3c84828501614575565b61010083015250610120614c5284828501614575565b6101208301525061014082015167ffffffffffffffff811115614c7857614c77614709565b5b614c8484828501614939565b6101408301525061016082015167ffffffffffffffff811115614caa57614ca9614709565b5b614cb684828501614a89565b6101608301525092915050565b6000614cd6614cd18461484a565b613f7b565b90508083825260208201905060208402830185811115614cf957614cf8613ccd565b5b835b81811015614d4057805167ffffffffffffffff811115614d1e57614d1d613cc3565b5b808601614d2b8982614b31565b85526020850194505050602081019050614cfb565b5050509392505050565b600082601f830112614d5f57614d5e613cc3565b5b8151614d6f848260208601614cc3565b91505092915050565b60006101a08284031215614d8f57614d8e614704565b5b614d9a6101a0613f7b565b9050600082015167ffffffffffffffff811115614dba57614db9614709565b5b614dc68482850161477a565b600083015250602082015167ffffffffffffffff811115614dea57614de9614709565b5b614df68482850161477a565b6020830152506040614e0a848285016147c9565b6040830152506060614e1e84828501614575565b6060830152506080614e3284828501614575565b60808301525060a082015167ffffffffffffffff811115614e5657614e55614709565b5b614e62848285016147de565b60a08301525060c082015167ffffffffffffffff811115614e8657614e85614709565b5b614e9284828501614d4a565b60c08301525060e082015167ffffffffffffffff811115614eb657614eb5614709565b5b614ec284828501614d4a565b60e083015250610100614ed784828501614575565b61010083015250610120614eed84828501614575565b61012083015250610140614f0384828501614575565b61014083015250610160614f1984828501614575565b61016083015250610180614f2f84828501614575565b6101808301525092915050565b600060208284031215614f5257614f516138fc565b5b600082015167ffffffffffffffff811115614f7057614f6f613901565b5b614f7c84828501614d78565b91505092915050565b7f4d757374206265204d6f6c6563756c6500000000000000000000000000000000600082015250565b6000614fbb60108361429c565b9150614fc682614f85565b602082019050919050565b60006020820190508181036000830152614fea81614fae565b9050919050565b7f496e616374697665000000000000000000000000000000000000000000000000600082015250565b600061502760088361429c565b915061503282614ff1565b602082019050919050565b600060208201905081810360008301526150568161501a565b9050919050565b7f4461696c7920736869656c64206c696d69742072656163686564000000000000600082015250565b6000615093601a8361429c565b915061509e8261505d565b602082019050919050565b600060208201905081810360008301526150c281615086565b9050919050565b60006150d4826139c1565b91507fffffffffffffffffffffffffffffffffffffffffffffffffffffffffffffffff8203615106576151056141fa565b5b600182019050919050565b6000819050919050565b600061513661513161512c84615111565b613878565b6139c1565b9050919050565b6151468161511b565b82525050565b600082825260208201905092915050565b50565b600061516d60008361514c565b91506151788261515d565b600082019050919050565b600060a0820190506151986000830187613c46565b6151a56020830186613c46565b6151b26040830185613a37565b6151bf606083018461513d565b81810360808301526151d081615160565b905095945050505050565b60006040820190506151f06000830185613a37565b6151fd6020830184613a37565b9392505050565b60008151905061521381613aa0565b92915050565b60006020828403121561522f5761522e6138fc565b5b600061523d84828501615204565b91505092915050565b7f4e6f74204f776e65720000000000000000000000000000000000000000000000600082015250565b600061527c60098361429c565b915061528782615246565b602082019050919050565b600060208201905081810360008301526152ab8161526f565b9050919050565b7f4b65797320686173206265656e20757365640000000000000000000000000000600082015250565b60006152e860128361429c565b91506152f3826152b2565b602082019050919050565b60006020820190508181036000830152615317816152db565b9050919050565b7f596f7520616c72656164792065717569707065642061206b6579000000000000600082015250565b6000615354601a8361429c565b915061535f8261531e565b602082019050919050565b6000602082019050818103600083015261538381615347565b9050919050565b6000615395826139c1565b91506153a0836139c1565b92508282019050808211156153b8576153b76141fa565b5b92915050565b7f596f75206d757374207761697420612064617900000000000000000000000000600082015250565b60006153f460138361429c565b91506153ff826153be565b602082019050919050565b60006020820190508181036000830152615423816153e7565b9050919050565b7f496e73756666696369656e7420746f6b656e2062616c616e636520696e20636f60008201527f6e74726163740000000000000000000000000000000000000000000000000000602082015250565b600061548660268361429c565b91506154918261542a565b604082019050919050565b600060208201905081810360008301526154b581615479565b9050919050565b600060a0820190506154d16000830187613c46565b6154de6020830186613c46565b6154eb6040830185613a37565b6154f86060830184613a37565b818103608083015261550981615160565b905095945050505050565b7f656c656374696f6e206e6f74206f70656e000000000000000000000000000000600082015250565b600061554a60118361429c565b915061555582615514565b602082019050919050565b600060208201905081810360008301526155798161553d565b9050919050565b7f766f746564000000000000000000000000000000000000000000000000000000600082015250565b60006155b660058361429c565b91506155c182615580565b602082019050919050565b600060208201905081810360008301526155e5816155a9565b9050919050565b60006155f7826139c1565b9150615602836139c1565b9250828202615610816139c1565b91508282048414831517615627576156266141fa565b5b5092915050565b7f4d69736d61746368656420696e707574206c656e677468730000000000000000600082015250565b600061566460188361429c565b915061566f8261562e565b602082019050919050565b6000602082019050818103600083015261569381615657565b9050919050565b7f4e487b7100000000000000000000000000000000000000000000000000000000600052603260045260246000fd5b600081519050919050565b600081905092915050565b60006156ea826156c9565b6156f481856156d4565b935061570481856020860161470e565b80840191505092915050565b600061571c82846156df565b915081905092915050565b7f4579657320686173206265656e20757365640000000000000000000000000000600082015250565b600061575d60128361429c565b915061576882615727565b602082019050919050565b6000602082019050818103600083015261578c81615750565b9050919050565b7f596f7520616c726561647920657175697070656420616e206579650000000000600082015250565b60006157c9601b8361429c565b91506157d482615793565b602082019050919050565b600060208201905081810360008301526157f8816157bc565b905091905056fea2646970667358221220a141a9c83e90ef4b1c1986acda8d219a91125fedde1522539efb3e91b5f3de3a64736f6c634300081b0033",
  "linkReferences": {},
  "deployedLinkReferences": {}
}