{
  "_format": "hh-sol-artifact-1",
  "contractName": "ShieldCalculator",
  "sourceName": "contracts/ShieldCalculator.sol",
  "abi": [
    {
      "inputs": [
        {
          "internalType": "uint256",
          "name": "toughness",
          "type": "uint256"
        },
        {
          "internalType": "uint256",
          "name": "hardness",
          "type": "uint256"
        }
      ],
      "name": "computeShieldAmount",
      "outputs": [
        {
          "internalType": "uint256",
          "name": "",
          "type": "uint256"
        }
      ],
      "stateMutability": "pure",
      "type": "function"
    }
  ],
  "bytecode": "0x6080604052348015600f57600080fd5b506102768061001f6000396000f3fe608060405234801561001057600080fd5b506004361061002b5760003560e01c80630f51adfd14610030575b600080fd5b61004a600480360381019061004591906100d1565b610060565b6040516100579190610120565b60405180910390f35b6000670de0b6b3a7640000610e10838561007a919061016a565b610084919061019e565b61008e919061020f565b905092915050565b600080fd5b6000819050919050565b6100ae8161009b565b81146100b957600080fd5b50565b6000813590506100cb816100a5565b92915050565b600080604083850312156100e8576100e7610096565b5b60006100f6858286016100bc565b9250506020610107858286016100bc565b9150509250929050565b61011a8161009b565b82525050565b60006020820190506101356000830184610111565b92915050565b7f4e487b7100000000000000000000000000000000000000000000000000000000600052601160045260246000fd5b60006101758261009b565b91506101808361009b565b92508282019050808211156101985761019761013b565b5b92915050565b60006101a98261009b565b91506101b48361009b565b92508282026101c28161009b565b915082820484148315176101d9576101d861013b565b5b5092915050565b7f4e487b7100000000000000000000000000000000000000000000000000000000600052601260045260246000fd5b600061021a8261009b565b91506102258361009b565b925082610235576102346101e0565b5b82820490509291505056fea264697066735822122082838f6bdfccbb392eaa03b7bc2626d466c2e0a76d08f03e8d00f7ab9be6d6a664736f6c634300081b0033",
  "linkReferences": {},
  "deployedLinkReferences": {}
}