{
  "_format": "hh-sol-artifact-1",
  "contractName": "ZeroSumPac",
  "sourceName": "contracts/ZeroSumPac.sol",
  "abi": [
    {
      "inputs": [],
      "stateMutability": "nonpayable",
      "type": "constructor"
    },
    {
      "inputs": [],
      "name": "ERC721EnumerableForbiddenBatchMint",
      "type": "error"
    },
    {
      "inputs": [
        {
          "internalType": "address",
          "name": "sender",
          "type": "address"
        },
        {
          "internalType": "uint256",
          "name": "tokenId",
          "type": "uint256"
        },
        {
          "internalType": "address",
          "name": "owner",
          "type": "address"
        }
      ],
      "name": "ERC721IncorrectOwner",
      "type": "error"
    },
    {
      "inputs": [
        {
          "internalType": "address",
          "name": "operator",
          "type": "address"
        },
        {
          "internalType": "uint256",
          "name": "tokenId",
          "type": "uint256"
        }
      ],
      "name": "ERC721InsufficientApproval",
      "type": "error"
    },
    {
      "inputs": [
        {
          "internalType": "address",
          "name": "approver",
          "type": "address"
        }
      ],
      "name": "ERC721InvalidApprover",
      "type": "error"
    },
    {
      "inputs": [
        {
          "internalType": "address",
          "name": "operator",
          "type": "address"
        }
      ],
      "name": "ERC721InvalidOperator",
      "type": "error"
    },
    {
      "inputs": [
        {
          "internalType": "address",
          "name": "owner",
          "type": "address"
        }
      ],
      "name": "ERC721InvalidOwner",
      "type": "error"
    },
    {
      "inputs": [
        {
          "internalType": "address",
          "name": "receiver",
          "type": "address"
        }
      ],
      "name": "ERC721InvalidReceiver",
      "type": "error"
    },
    {
      "inputs": [
        {
          "internalType": "address",
          "name": "sender",
          "type": "address"
        }
      ],
      "name": "ERC721InvalidSender",
      "type": "error"
    },
    {
      "inputs": [
        {
          "internalType": "uint256",
          "name": "tokenId",
          "type": "uint256"
        }
      ],
      "name": "ERC721NonexistentToken",
      "type": "error"
    },
    {
      "inputs": [
        {
          "internalType": "address",
          "name": "owner",
          "type": "address"
        },
        {
          "internalType": "uint256",
          "name": "index",
          "type": "uint256"
        }
      ],
      "name": "ERC721OutOfBoundsIndex",
      "type": "error"
    },
    {
      "inputs": [
        {
          "internalType": "address",
          "name": "owner",
          "type": "address"
        }
      ],
      "name": "OwnableInvalidOwner",
      "type": "error"
    },
    {
      "inputs": [
        {
          "internalType": "address",
          "name": "account",
          "type": "address"
        }
      ],
      "name": "OwnableUnauthorizedAccount",
      "type": "error"
    },
    {
      "anonymous": false,
      "inputs": [
        {
          "indexed": true,
          "internalType": "address",
          "name": "owner",
          "type": "address"
        },
        {
          "indexed": true,
          "internalType": "address",
          "name": "approved",
          "type": "address"
        },
        {
          "indexed": true,
          "internalType": "uint256",
          "name": "tokenId",
          "type": "uint256"
        }
      ],
      "name": "Approval",
      "type": "event"
    },
    {
      "anonymous": false,
      "inputs": [
        {
          "indexed": true,
          "internalType": "address",
          "name": "owner",
          "type": "address"
        },
        {
          "indexed": true,
          "internalType": "address",
          "name": "operator",
          "type": "address"
        },
        {
          "indexed": false,
          "internalType": "bool",
          "name": "approved",
          "type": "bool"
        }
      ],
      "name": "ApprovalForAll",
      "type": "event"
    },
    {
      "anonymous": false,
      "inputs": [
        {
          "indexed": true,
          "internalType": "address",
          "name": "previousOwner",
          "type": "address"
        },
        {
          "indexed": true,
          "internalType": "address",
          "name": "newOwner",
          "type": "address"
        }
      ],
      "name": "OwnershipTransferred",
      "type": "event"
    },
    {
      "anonymous": false,
      "inputs": [
        {
          "indexed": true,
          "internalType": "address",
          "name": "from",
          "type": "address"
        },
        {
          "indexed": true,
          "internalType": "address",
          "name": "to",
          "type": "address"
        },
        {
          "indexed": true,
          "internalType": "uint256",
          "name": "tokenId",
          "type": "uint256"
        }
      ],
      "name": "Transfer",
      "type": "event"
    },
    {
      "inputs": [],
      "name": "_baseTokenURI",
      "outputs": [
        {
          "internalType": "string",
          "name": "",
          "type": "string"
        }
      ],
      "stateMutability": "view",
      "type": "function"
    },
    {
      "inputs": [
        {
          "internalType": "uint256",
          "name": "amount",
          "type": "uint256"
        }
      ],
      "name": "adjustMaxPublic",
      "outputs": [],
      "stateMutability": "nonpayable",
      "type": "function"
    },
    {
      "inputs": [
        {
          "internalType": "uint256",
          "name": "price",
          "type": "uint256"
        }
      ],
      "name": "adjustMintPrice",
      "outputs": [],
      "stateMutability": "nonpayable",
      "type": "function"
    },
    {
      "inputs": [
        {
          "internalType": "uint256",
          "name": "price",
          "type": "uint256"
        }
      ],
      "name": "adjustWhitelistPrice",
      "outputs": [],
      "stateMutability": "nonpayable",
      "type": "function"
    },
    {
      "inputs": [
        {
          "internalType": "address",
          "name": "",
          "type": "address"
        }
      ],
      "name": "allowedOperators",
      "outputs": [
        {
          "internalType": "bool",
          "name": "",
          "type": "bool"
        }
      ],
      "stateMutability": "view",
      "type": "function"
    },
    {
      "inputs": [
        {
          "internalType": "address",
          "name": "to",
          "type": "address"
        },
        {
          "internalType": "uint256",
          "name": "tokenId",
          "type": "uint256"
        }
      ],
      "name": "approve",
      "outputs": [],
      "stateMutability": "nonpayable",
      "type": "function"
    },
    {
      "inputs": [
        {
          "internalType": "address",
          "name": "",
          "type": "address"
        }
      ],
      "name": "approvedMintContracts",
      "outputs": [
        {
          "internalType": "bool",
          "name": "",
          "type": "bool"
        }
      ],
      "stateMutability": "view",
      "type": "function"
    },
    {
      "inputs": [
        {
          "internalType": "address",
          "name": "owner",
          "type": "address"
        }
      ],
      "name": "balanceOf",
      "outputs": [
        {
          "internalType": "uint256",
          "name": "",
          "type": "uint256"
        }
      ],
      "stateMutability": "view",
      "type": "function"
    },
    {
      "inputs": [
        {
          "internalType": "uint256",
          "name": "tokenId",
          "type": "uint256"
        }
      ],
      "name": "getApproved",
      "outputs": [
        {
          "internalType": "address",
          "name": "",
          "type": "address"
        }
      ],
      "stateMutability": "view",
      "type": "function"
    },
    {
      "inputs": [
        {
          "internalType": "address",
          "name": "owner",
          "type": "address"
        },
        {
          "internalType": "address",
          "name": "operator",
          "type": "address"
        }
      ],
      "name": "isApprovedForAll",
      "outputs": [
        {
          "internalType": "bool",
          "name": "",
          "type": "bool"
        }
      ],
      "stateMutability": "view",
      "type": "function"
    },
    {
      "inputs": [],
      "name": "maxPublicPerTransaction",
      "outputs": [
        {
          "internalType": "uint256",
          "name": "",
          "type": "uint256"
        }
      ],
      "stateMutability": "view",
      "type": "function"
    },
    {
      "inputs": [],
      "name": "maxSupply",
      "outputs": [
        {
          "internalType": "uint256",
          "name": "",
          "type": "uint256"
        }
      ],
      "stateMutability": "view",
      "type": "function"
    },
    {
      "inputs": [],
      "name": "mazeContract",
      "outputs": [
        {
          "internalType": "contract Maze",
          "name": "",
          "type": "address"
        }
      ],
      "stateMutability": "view",
      "type": "function"
    },
    {
      "inputs": [
        {
          "internalType": "address",
          "name": "to",
          "type": "address"
        },
        {
          "internalType": "uint256",
          "name": "amount",
          "type": "uint256"
        }
      ],
      "name": "mintFromApprovedContract",
      "outputs": [],
      "stateMutability": "nonpayable",
      "type": "function"
    },
    {
      "inputs": [],
      "name": "mintPrice",
      "outputs": [
        {
          "internalType": "uint256",
          "name": "",
          "type": "uint256"
        }
      ],
      "stateMutability": "view",
      "type": "function"
    },
    {
      "inputs": [],
      "name": "mintWindows",
      "outputs": [
        {
          "internalType": "uint256",
          "name": "whitelistStartTime",
          "type": "uint256"
        },
        {
          "internalType": "uint256",
          "name": "whitelistEndTime",
          "type": "uint256"
        },
        {
          "internalType": "uint256",
          "name": "publicMintStartTime",
          "type": "uint256"
        },
        {
          "internalType": "uint256",
          "name": "publicMintEndTime",
          "type": "uint256"
        }
      ],
      "stateMutability": "view",
      "type": "function"
    },
    {
      "inputs": [],
      "name": "name",
      "outputs": [
        {
          "internalType": "string",
          "name": "",
          "type": "string"
        }
      ],
      "stateMutability": "view",
      "type": "function"
    },
    {
      "inputs": [],
      "name": "nextTokenId",
      "outputs": [
        {
          "internalType": "uint256",
          "name": "",
          "type": "uint256"
        }
      ],
      "stateMutability": "view",
      "type": "function"
    },
    {
      "inputs": [],
      "name": "owner",
      "outputs": [
        {
          "internalType": "address",
          "name": "",
          "type": "address"
        }
      ],
      "stateMutability": "view",
      "type": "function"
    },
    {
      "inputs": [
        {
          "internalType": "address",
          "name": "to",
          "type": "address"
        },
        {
          "internalType": "uint256",
          "name": "amount",
          "type": "uint256"
        }
      ],
      "name": "ownerMint",
      "outputs": [],
      "stateMutability": "nonpayable",
      "type": "function"
    },
    {
      "inputs": [
        {
          "internalType": "uint256",
          "name": "tokenId",
          "type": "uint256"
        }
      ],
      "name": "ownerOf",
      "outputs": [
        {
          "internalType": "address",
          "name": "",
          "type": "address"
        }
      ],
      "stateMutability": "view",
      "type": "function"
    },
    {
      "inputs": [],
      "name": "publicCap",
      "outputs": [
        {
          "internalType": "uint256",
          "name": "",
          "type": "uint256"
        }
      ],
      "stateMutability": "view",
      "type": "function"
    },
    {
      "inputs": [
        {
          "internalType": "uint256",
          "name": "amount",
          "type": "uint256"
        }
      ],
      "name": "publicMint",
      "outputs": [],
      "stateMutability": "payable",
      "type": "function"
    },
    {
      "inputs": [],
      "name": "renounceOwnership",
      "outputs": [],
      "stateMutability": "nonpayable",
      "type": "function"
    },
    {
      "inputs": [],
      "name": "rewardContract",
      "outputs": [
        {
          "internalType": "contract Reward",
          "name": "",
          "type": "address"
        }
      ],
      "stateMutability": "view",
      "type": "function"
    },
    {
      "inputs": [],
      "name": "rewardPercentage",
      "outputs": [
        {
          "internalType": "uint256",
          "name": "",
          "type": "uint256"
        }
      ],
      "stateMutability": "view",
      "type": "function"
    },
    {
      "inputs": [
        {
          "internalType": "address",
          "name": "from",
          "type": "address"
        },
        {
          "internalType": "address",
          "name": "to",
          "type": "address"
        },
        {
          "internalType": "uint256",
          "name": "tokenId",
          "type": "uint256"
        }
      ],
      "name": "safeTransferFrom",
      "outputs": [],
      "stateMutability": "nonpayable",
      "type": "function"
    },
    {
      "inputs": [
        {
          "internalType": "address",
          "name": "from",
          "type": "address"
        },
        {
          "internalType": "address",
          "name": "to",
          "type": "address"
        },
        {
          "internalType": "uint256",
          "name": "tokenId",
          "type": "uint256"
        },
        {
          "internalType": "bytes",
          "name": "data",
          "type": "bytes"
        }
      ],
      "name": "safeTransferFrom",
      "outputs": [],
      "stateMutability": "nonpayable",
      "type": "function"
    },
    {
      "inputs": [
        {
          "internalType": "address",
          "name": "operator",
          "type": "address"
        },
        {
          "internalType": "bool",
          "name": "approved",
          "type": "bool"
        }
      ],
      "name": "setApprovalForAll",
      "outputs": [],
      "stateMutability": "nonpayable",
      "type": "function"
    },
    {
      "inputs": [
        {
          "internalType": "address",
          "name": "_contract",
          "type": "address"
        },
        {
          "internalType": "bool",
          "name": "allows",
          "type": "bool"
        }
      ],
      "name": "setApprovedMinter",
      "outputs": [],
      "stateMutability": "nonpayable",
      "type": "function"
    },
    {
      "inputs": [
        {
          "internalType": "string",
          "name": "baseURI",
          "type": "string"
        }
      ],
      "name": "setBaseURI",
      "outputs": [],
      "stateMutability": "nonpayable",
      "type": "function"
    },
    {
      "inputs": [
        {
          "internalType": "uint256",
          "name": "cap",
          "type": "uint256"
        }
      ],
      "name": "setMaxSupply",
      "outputs": [],
      "stateMutability": "nonpayable",
      "type": "function"
    },
    {
      "inputs": [
        {
          "internalType": "address",
          "name": "_contract",
          "type": "address"
        }
      ],
      "name": "setMazeContract",
      "outputs": [],
      "stateMutability": "nonpayable",
      "type": "function"
    },
    {
      "inputs": [
        {
          "internalType": "uint256",
          "name": "_whitelistStartTime",
          "type": "uint256"
        },
        {
          "internalType": "uint256",
          "name": "_whitelistEndTime",
          "type": "uint256"
        },
        {
          "internalType": "uint256",
          "name": "_publicMintStartTime",
          "type": "uint256"
        },
        {
          "internalType": "uint256",
          "name": "_publicMintEndTime",
          "type": "uint256"
        }
      ],
      "name": "setMintWindows",
      "outputs": [],
      "stateMutability": "nonpayable",
      "type": "function"
    },
    {
      "inputs": [
        {
          "internalType": "address",
          "name": "_operator",
          "type": "address"
        },
        {
          "internalType": "bool",
          "name": "allowed",
          "type": "bool"
        }
      ],
      "name": "setOperator",
      "outputs": [],
      "stateMutability": "nonpayable",
      "type": "function"
    },
    {
      "inputs": [
        {
          "internalType": "uint256",
          "name": "cap",
          "type": "uint256"
        }
      ],
      "name": "setPublicCap",
      "outputs": [],
      "stateMutability": "nonpayable",
      "type": "function"
    },
    {
      "inputs": [
        {
          "internalType": "address",
          "name": "_contract",
          "type": "address"
        }
      ],
      "name": "setRewardContract",
      "outputs": [],
      "stateMutability": "nonpayable",
      "type": "function"
    },
    {
      "inputs": [
        {
          "internalType": "uint256",
          "name": "_rewardPercentage",
          "type": "uint256"
        }
      ],
      "name": "setRewardPercentage",
      "outputs": [],
      "stateMutability": "nonpayable",
      "type": "function"
    },
    {
      "inputs": [
        {
          "internalType": "uint256",
          "name": "tokenId",
          "type": "uint256"
        },
        {
          "internalType": "bool",
          "name": "isSpecial",
          "type": "bool"
        }
      ],
      "name": "setSpecial",
      "outputs": [],
      "stateMutability": "nonpayable",
      "type": "function"
    },
    {
      "inputs": [
        {
          "internalType": "uint256",
          "name": "cap",
          "type": "uint256"
        }
      ],
      "name": "setWhitelistCap",
      "outputs": [],
      "stateMutability": "nonpayable",
      "type": "function"
    },
    {
      "inputs": [
        {
          "internalType": "bytes32",
          "name": "_merkleRoot",
          "type": "bytes32"
        }
      ],
      "name": "setWhitelistMerkleRoot",
      "outputs": [],
      "stateMutability": "nonpayable",
      "type": "function"
    },
    {
      "inputs": [
        {
          "internalType": "uint256",
          "name": "",
          "type": "uint256"
        }
      ],
      "name": "specialTrait",
      "outputs": [
        {
          "internalType": "bool",
          "name": "",
          "type": "bool"
        }
      ],
      "stateMutability": "view",
      "type": "function"
    },
    {
      "inputs": [
        {
          "internalType": "bytes4",
          "name": "interfaceId",
          "type": "bytes4"
        }
      ],
      "name": "supportsInterface",
      "outputs": [
        {
          "internalType": "bool",
          "name": "",
          "type": "bool"
        }
      ],
      "stateMutability": "view",
      "type": "function"
    },
    {
      "inputs": [],
      "name": "symbol",
      "outputs": [
        {
          "internalType": "string",
          "name": "",
          "type": "string"
        }
      ],
      "stateMutability": "view",
      "type": "function"
    },
    {
      "inputs": [
        {
          "internalType": "uint256",
          "name": "index",
          "type": "uint256"
        }
      ],
      "name": "tokenByIndex",
      "outputs": [
        {
          "internalType": "uint256",
          "name": "",
          "type": "uint256"
        }
      ],
      "stateMutability": "view",
      "type": "function"
    },
    {
      "inputs": [
        {
          "internalType": "address",
          "name": "owner",
          "type": "address"
        },
        {
          "internalType": "uint256",
          "name": "index",
          "type": "uint256"
        }
      ],
      "name": "tokenOfOwnerByIndex",
      "outputs": [
        {
          "internalType": "uint256",
          "name": "",
          "type": "uint256"
        }
      ],
      "stateMutability": "view",
      "type": "function"
    },
    {
      "inputs": [
        {
          "internalType": "uint256",
          "name": "tokenId",
          "type": "uint256"
        }
      ],
      "name": "tokenURI",
      "outputs": [
        {
          "internalType": "string",
          "name": "",
          "type": "string"
        }
      ],
      "stateMutability": "view",
      "type": "function"
    },
    {
      "inputs": [],
      "name": "totalSupply",
      "outputs": [
        {
          "internalType": "uint256",
          "name": "",
          "type": "uint256"
        }
      ],
      "stateMutability": "view",
      "type": "function"
    },
    {
      "inputs": [
        {
          "internalType": "address",
          "name": "from",
          "type": "address"
        },
        {
          "internalType": "address",
          "name": "to",
          "type": "address"
        },
        {
          "internalType": "uint256",
          "name": "tokenId",
          "type": "uint256"
        }
      ],
      "name": "transferFrom",
      "outputs": [],
      "stateMutability": "nonpayable",
      "type": "function"
    },
    {
      "inputs": [
        {
          "internalType": "address",
          "name": "newOwner",
          "type": "address"
        }
      ],
      "name": "transferOwnership",
      "outputs": [],
      "stateMutability": "nonpayable",
      "type": "function"
    },
    {
      "inputs": [],
      "name": "whitelistCap",
      "outputs": [
        {
          "internalType": "uint256",
          "name": "",
          "type": "uint256"
        }
      ],
      "stateMutability": "view",
      "type": "function"
    },
    {
      "inputs": [],
      "name": "whitelistMerkleRoot",
      "outputs": [
        {
          "internalType": "bytes32",
          "name": "",
          "type": "bytes32"
        }
      ],
      "stateMutability": "view",
      "type": "function"
    },
    {
      "inputs": [
        {
          "internalType": "uint256",
          "name": "amount",
          "type": "uint256"
        },
        {
          "internalType": "uint256",
          "name": "maxAllowed",
          "type": "uint256"
        },
        {
          "internalType": "bytes32[]",
          "name": "merkleProof",
          "type": "bytes32[]"
        }
      ],
      "name": "whitelistMint",
      "outputs": [],
      "stateMutability": "payable",
      "type": "function"
    },
    {
      "inputs": [
        {
          "internalType": "address",
          "name": "",
          "type": "address"
        }
      ],
      "name": "whitelistMinted",
      "outputs": [
        {
          "internalType": "uint256",
          "name": "",
          "type": "uint256"
        }
      ],
      "stateMutability": "view",
      "type": "function"
    },
    {
      "inputs": [],
      "name": "whitelistPrice",
      "outputs": [
        {
          "internalType": "uint256",
          "name": "",
          "type": "uint256"
        }
      ],
      "stateMutability": "view",
      "type": "function"
    },
    {
      "inputs": [],
      "name": "withdraw",
      "outputs": [],
      "stateMutability": "nonpayable",
      "type": "function"
    }
  ],
  "bytecode": "0x608060405261022b600d556101bc600e5561022b600f5566354a6ba7a18000601055663ff2e795f500006011556005601255600a60135534801561004257600080fd5b50336040518060400160405280600381526020017f5a535000000000000000000000000000000000000000000000000000000000008152506040518060400160405280600381526020017f5a5350000000000000000000000000000000000000000000000000000000000081525081600090816100bf91906104fd565b5080600190816100cf91906104fd565b505050600073ffffffffffffffffffffffffffffffffffffffff168173ffffffffffffffffffffffffffffffffffffffff16036101445760006040517f1e4fbdf700000000000000000000000000000000000000000000000000000000815260040161013b9190610610565b60405180910390fd5b610153816101e760201b60201c565b50600d54600e54111561019b576040517f08c379a000000000000000000000000000000000000000000000000000000000815260040161019290610688565b60405180910390fd5b600d54600f5411156101e2576040517f08c379a00000000000000000000000000000000000000000000000000000000081526004016101d9906106f4565b60405180910390fd5b610714565b6000600a60009054906101000a900473ffffffffffffffffffffffffffffffffffffffff16905081600a60006101000a81548173ffffffffffffffffffffffffffffffffffffffff021916908373ffffffffffffffffffffffffffffffffffffffff1602179055508173ffffffffffffffffffffffffffffffffffffffff168173ffffffffffffffffffffffffffffffffffffffff167f8be0079c531659141344cd1fd0a4f28419497f9722a3daafe3b4186f6b6457e060405160405180910390a35050565b600081519050919050565b7f4e487b7100000000000000000000000000000000000000000000000000000000600052604160045260246000fd5b7f4e487b7100000000000000000000000000000000000000000000000000000000600052602260045260246000fd5b6000600282049050600182168061032e57607f821691505b602082108103610341576103406102e7565b5b50919050565b60008190508160005260206000209050919050565b60006020601f8301049050919050565b600082821b905092915050565b6000600883026103a97fffffffffffffffffffffffffffffffffffffffffffffffffffffffffffffffff8261036c565b6103b3868361036c565b95508019841693508086168417925050509392505050565b6000819050919050565b6000819050919050565b60006103fa6103f56103f0846103cb565b6103d5565b6103cb565b9050919050565b6000819050919050565b610414836103df565b61042861042082610401565b848454610379565b825550505050565b600090565b61043d610430565b61044881848461040b565b505050565b5b8181101561046c57610461600082610435565b60018101905061044e565b5050565b601f8211156104b15761048281610347565b61048b8461035c565b8101602085101561049a578190505b6104ae6104a68561035c565b83018261044d565b50505b505050565b600082821c905092915050565b60006104d4600019846008026104b6565b1980831691505092915050565b60006104ed83836104c3565b9150826002028217905092915050565b610506826102ad565b67ffffffffffffffff81111561051f5761051e6102b8565b5b6105298254610316565b610534828285610470565b600060209050601f8311600181146105675760008415610555578287015190505b61055f85826104e1565b8655506105c7565b601f19841661057586610347565b60005b8281101561059d57848901518255600182019150602085019450602081019050610578565b868310156105ba57848901516105b6601f8916826104c3565b8355505b6001600288020188555050505b505050505050565b600073ffffffffffffffffffffffffffffffffffffffff82169050919050565b60006105fa826105cf565b9050919050565b61060a816105ef565b82525050565b60006020820190506106256000830184610601565b92915050565b600082825260208201905092915050565b7f57686974656c69737420636170203c206d617820737570706c79000000000000600082015250565b6000610672601a8361062b565b915061067d8261063c565b602082019050919050565b600060208201905081810360008301526106a181610665565b9050919050565b7f5075626c696320636170203c206d617820737570706c79000000000000000000600082015250565b60006106de60178361062b565b91506106e9826106a8565b602082019050919050565b6000602082019050818103600083015261070d816106d1565b9050919050565b614b6a806107236000396000f3fe60806040526004361061036b5760003560e01c80636ea69d62116101c6578063b88d4fde116100f7578063d62a2d2611610095578063f2fde38b1161006f578063f2fde38b14610c97578063f634d51914610cc0578063f9d3825f14610ceb578063fc1a1c3614610d145761036b565b8063d62a2d2614610c03578063e985e9c514610c2c578063eb2cdcf514610c695761036b565b8063c80416d2116100d1578063c80416d214610b47578063c87b56dd14610b70578063cfc86f7b14610bad578063d5abeb0114610bd85761036b565b8063b88d4fde14610ad9578063bd32fb6614610b02578063c4be5b5914610b2b5761036b565b806395d89b4111610164578063a20e0bca1161013e578063a20e0bca14610a1f578063a22cb46514610a48578063a6674f8814610a71578063aa98e0c614610aae5761036b565b806395d89b411461098e57806398a8cffe146109b95780639acffa12146109f65761036b565b8063715018a6116101a0578063715018a6146108f657806375794a3c1461090d5780638da5cb5b14610938578063949506f9146109635761036b565b80636ea69d62146108655780636f8b44b01461089057806370a08231146108b95761036b565b80633a1cafa8116102a057806351508f0a1161023e57806355f804b31161021857806355f804b3146107ab5780636352211e146107d4578063658fbaee146108115780636817c76c1461083a5761036b565b806351508f0a1461072e57806352d472eb14610757578063558a7297146107825761036b565b8063460b289c1161027a578063460b289c14610674578063484b973c1461069d5780634ca3ca2c146106c65780634f6ccce7146106f15761036b565b80633a1cafa81461060b5780633ccfd60b1461063457806342842e0e1461064b5761036b565b806318160ddd1161030d57806329ec16dd116102e757806329ec16dd1461054c5780632db11544146105755780632f745c59146105915780633123ca97146105ce5761036b565b806318160ddd146104bb57806321a9088d146104e657806323b872dd146105235761036b565b806307a0c8331161034957806307a0c83314610403578063081812fc1461042c578063095ea7b31461046957806309653674146104925761036b565b806301ffc9a714610370578063036f74e3146103ad57806306fdde03146103d8575b600080fd5b34801561037c57600080fd5b506103976004803603810190610392919061356c565b610d3f565b6040516103a491906135b4565b60405180910390f35b3480156103b957600080fd5b506103c2610db9565b6040516103cf91906135e8565b60405180910390f35b3480156103e457600080fd5b506103ed610dbf565b6040516103fa9190613693565b60405180910390f35b34801561040f57600080fd5b5061042a6004803603810190610425919061373f565b610e51565b005b34801561043857600080fd5b50610453600480360381019061044e919061377f565b610f3e565b60405161046091906137bb565b60405180910390f35b34801561047557600080fd5b50610490600480360381019061048b919061373f565b610f5a565b005b34801561049e57600080fd5b506104b960048036038101906104b4919061377f565b610f70565b005b3480156104c757600080fd5b506104d0610fbe565b6040516104dd91906135e8565b60405180910390f35b3480156104f257600080fd5b5061050d6004803603810190610508919061377f565b610fcb565b60405161051a91906135b4565b60405180910390f35b34801561052f57600080fd5b5061054a600480360381019061054591906137d6565b610feb565b005b34801561055857600080fd5b50610573600480360381019061056e9190613855565b6110ed565b005b61058f600480360381019061058a919061377f565b611150565b005b34801561059d57600080fd5b506105b860048036038101906105b3919061373f565b6112a7565b6040516105c591906135e8565b60405180910390f35b3480156105da57600080fd5b506105f560048036038101906105f09190613895565b611350565b60405161060291906135b4565b60405180910390f35b34801561061757600080fd5b50610632600480360381019061062d9190613895565b611370565b005b34801561064057600080fd5b506106496113bc565b005b34801561065757600080fd5b50610672600480360381019061066d91906137d6565b61140d565b005b34801561068057600080fd5b5061069b6004803603810190610696919061377f565b61142d565b005b3480156106a957600080fd5b506106c460048036038101906106bf919061373f565b61143f565b005b3480156106d257600080fd5b506106db6114a8565b6040516106e891906135e8565b60405180910390f35b3480156106fd57600080fd5b506107186004803603810190610713919061377f565b6114ae565b60405161072591906135e8565b60405180910390f35b34801561073a57600080fd5b5061075560048036038101906107509190613895565b611524565b005b34801561076357600080fd5b5061076c611570565b60405161077991906135e8565b60405180910390f35b34801561078e57600080fd5b506107a960048036038101906107a49190613855565b611576565b005b3480156107b757600080fd5b506107d260048036038101906107cd91906139f7565b6115d9565b005b3480156107e057600080fd5b506107fb60048036038101906107f6919061377f565b6115f4565b60405161080891906137bb565b60405180910390f35b34801561081d57600080fd5b506108386004803603810190610833919061377f565b611606565b005b34801561084657600080fd5b5061084f611618565b60405161085c91906135e8565b60405180910390f35b34801561087157600080fd5b5061087a61161e565b6040516108879190613a9f565b60405180910390f35b34801561089c57600080fd5b506108b760048036038101906108b2919061377f565b611644565b005b3480156108c557600080fd5b506108e060048036038101906108db9190613895565b611656565b6040516108ed91906135e8565b60405180910390f35b34801561090257600080fd5b5061090b611710565b005b34801561091957600080fd5b50610922611724565b60405161092f91906135e8565b60405180910390f35b34801561094457600080fd5b5061094d61172a565b60405161095a91906137bb565b60405180910390f35b34801561096f57600080fd5b50610978611754565b6040516109859190613adb565b60405180910390f35b34801561099a57600080fd5b506109a361177a565b6040516109b09190613693565b60405180910390f35b3480156109c557600080fd5b506109e060048036038101906109db9190613895565b61180c565b6040516109ed91906135e8565b60405180910390f35b348015610a0257600080fd5b50610a1d6004803603810190610a189190613af6565b611824565b005b348015610a2b57600080fd5b50610a466004803603810190610a41919061377f565b61191c565b005b348015610a5457600080fd5b50610a6f6004803603810190610a6a9190613855565b61193d565b005b348015610a7d57600080fd5b50610a986004803603810190610a939190613895565b611953565b604051610aa591906135b4565b60405180910390f35b348015610aba57600080fd5b50610ac3611973565b604051610ad09190613b4f565b60405180910390f35b348015610ae557600080fd5b50610b006004803603810190610afb9190613c0b565b611979565b005b348015610b0e57600080fd5b50610b296004803603810190610b249190613cba565b61199e565b005b610b456004803603810190610b409190613d47565b6119b0565b005b348015610b5357600080fd5b50610b6e6004803603810190610b699190613dbb565b611c63565b005b348015610b7c57600080fd5b50610b976004803603810190610b92919061377f565b611cbf565b604051610ba49190613693565b60405180910390f35b348015610bb957600080fd5b50610bc2611d95565b604051610bcf9190613693565b60405180910390f35b348015610be457600080fd5b50610bed611e23565b604051610bfa91906135e8565b60405180910390f35b348015610c0f57600080fd5b50610c2a6004803603810190610c25919061377f565b611e29565b005b348015610c3857600080fd5b50610c536004803603810190610c4e9190613e22565b611e3b565b604051610c6091906135b4565b60405180910390f35b348015610c7557600080fd5b50610c7e611ecf565b604051610c8e9493929190613e62565b60405180910390f35b348015610ca357600080fd5b50610cbe6004803603810190610cb99190613895565b611eed565b005b348015610ccc57600080fd5b50610cd5611f73565b604051610ce291906135e8565b60405180910390f35b348015610cf757600080fd5b50610d126004803603810190610d0d919061377f565b611f79565b005b348015610d2057600080fd5b50610d29611f9a565b604051610d3691906135e8565b60405180910390f35b60007f780e9d63000000000000000000000000000000000000000000000000000000007bffffffffffffffffffffffffffffffffffffffffffffffffffffffff1916827bffffffffffffffffffffffffffffffffffffffffffffffffffffffff19161480610db25750610db182611fa0565b5b9050919050565b600f5481565b606060008054610dce90613ed6565b80601f0160208091040260200160405190810160405280929190818152602001828054610dfa90613ed6565b8015610e475780601f10610e1c57610100808354040283529160200191610e47565b820191906000526020600020905b815481529060010190602001808311610e2a57829003601f168201915b5050505050905090565b80600d5481600b54610e639190613f36565b10610ea3576040517f08c379a0000000000000000000000000000000000000000000000000000000008152600401610e9a90613fb6565b60405180910390fd5b600c60003373ffffffffffffffffffffffffffffffffffffffff1673ffffffffffffffffffffffffffffffffffffffff16815260200190815260200160002060009054906101000a900460ff16610f2f576040517f08c379a0000000000000000000000000000000000000000000000000000000008152600401610f2690614022565b60405180910390fd5b610f398383612082565b505050565b6000610f4982612152565b50610f53826121da565b9050919050565b610f6c8282610f67612217565b61221f565b5050565b6064811115610fb4576040517f08c379a0000000000000000000000000000000000000000000000000000000008152600401610fab9061408e565b60405180910390fd5b8060138190555050565b6000600880549050905090565b601a6020528060005260406000206000915054906101000a900460ff1681565b600073ffffffffffffffffffffffffffffffffffffffff168273ffffffffffffffffffffffffffffffffffffffff160361105d5760006040517f64a0ae9200000000000000000000000000000000000000000000000000000000815260040161105491906137bb565b60405180910390fd5b6000611071838361106c612217565b612231565b90508373ffffffffffffffffffffffffffffffffffffffff168173ffffffffffffffffffffffffffffffffffffffff16146110e7578382826040517f64283d7b0000000000000000000000000000000000000000000000000000000081526004016110de939291906140ae565b60405180910390fd5b50505050565b6110f561234e565b80600c60008473ffffffffffffffffffffffffffffffffffffffff1673ffffffffffffffffffffffffffffffffffffffff16815260200190815260200160002060006101000a81548160ff0219169083151502179055505050565b80600f5481600b546111629190613f36565b106111a2576040517f08c379a000000000000000000000000000000000000000000000000000000000815260040161119990613fb6565b60405180910390fd5b816011546111b091906140e5565b3410156111f2576040517f08c379a00000000000000000000000000000000000000000000000000000000081526004016111e990614173565b60405180910390fd5b601254821115611237576040517f08c379a000000000000000000000000000000000000000000000000000000000815260040161122e906141df565b60405180910390fd5b601460020154421015801561125157506014600301544211155b611290576040517f08c379a00000000000000000000000000000000000000000000000000000000081526004016112879061424b565b60405180910390fd5b611299346123d5565b6112a33383612082565b5050565b60006112b283611656565b82106112f75782826040517fa57d13dc0000000000000000000000000000000000000000000000000000000081526004016112ee92919061426b565b60405180910390fd5b600660008473ffffffffffffffffffffffffffffffffffffffff1673ffffffffffffffffffffffffffffffffffffffff168152602001908152602001600020600083815260200190815260200160002054905092915050565b600c6020528060005260406000206000915054906101000a900460ff1681565b61137861234e565b80601c60006101000a81548173ffffffffffffffffffffffffffffffffffffffff021916908373ffffffffffffffffffffffffffffffffffffffff16021790555050565b6113c461234e565b3373ffffffffffffffffffffffffffffffffffffffff166108fc479081150290604051600060405180830381858888f1935050505015801561140a573d6000803e3d6000fd5b50565b61142883838360405180602001604052806000815250611979565b505050565b61143561234e565b8060118190555050565b61144761234e565b80600d5481600b546114599190613f36565b10611499576040517f08c379a000000000000000000000000000000000000000000000000000000000815260040161149090613fb6565b60405180910390fd5b6114a38383612082565b505050565b60125481565b60006114b8610fbe565b82106114fe576000826040517fa57d13dc0000000000000000000000000000000000000000000000000000000081526004016114f592919061426b565b60405180910390fd5b6008828154811061151257611511614294565b5b90600052602060002001549050919050565b61152c61234e565b80601d60006101000a81548173ffffffffffffffffffffffffffffffffffffffff021916908373ffffffffffffffffffffffffffffffffffffffff16021790555050565b60135481565b61157e61234e565b80601e60008473ffffffffffffffffffffffffffffffffffffffff1673ffffffffffffffffffffffffffffffffffffffff16815260200190815260200160002060006101000a81548160ff0219169083151502179055505050565b6115e161234e565b80601b90816115f09190614465565b5050565b60006115ff82612152565b9050919050565b61160e61234e565b8060108190555050565b60115481565b601d60009054906101000a900473ffffffffffffffffffffffffffffffffffffffff1681565b61164c61234e565b80600d8190555050565b60008073ffffffffffffffffffffffffffffffffffffffff168273ffffffffffffffffffffffffffffffffffffffff16036116c95760006040517f89c62b640000000000000000000000000000000000000000000000000000000081526004016116c091906137bb565b60405180910390fd5b600360008373ffffffffffffffffffffffffffffffffffffffff1673ffffffffffffffffffffffffffffffffffffffff168152602001908152602001600020549050919050565b61171861234e565b611722600061247a565b565b600b5481565b6000600a60009054906101000a900473ffffffffffffffffffffffffffffffffffffffff16905090565b601c60009054906101000a900473ffffffffffffffffffffffffffffffffffffffff1681565b60606001805461178990613ed6565b80601f01602080910402602001604051908101604052809291908181526020018280546117b590613ed6565b80156118025780601f106117d757610100808354040283529160200191611802565b820191906000526020600020905b8154815290600101906020018083116117e557829003601f168201915b5050505050905090565b60186020528060005260406000206000915090505481565b601e60003373ffffffffffffffffffffffffffffffffffffffff1673ffffffffffffffffffffffffffffffffffffffff16815260200190815260200160002060009054906101000a900460ff16806118ae575061187f61172a565b73ffffffffffffffffffffffffffffffffffffffff163373ffffffffffffffffffffffffffffffffffffffff16145b6118ed576040517f08c379a00000000000000000000000000000000000000000000000000000000081526004016118e490614583565b60405180910390fd5b80601a600084815260200190815260200160002060006101000a81548160ff0219169083151502179055505050565b61192461234e565b600d5481111561193357600080fd5b80600e8190555050565b61194f611948612217565b8383612540565b5050565b601e6020528060005260406000206000915054906101000a900460ff1681565b60195481565b611984848484610feb565b61199861198f612217565b858585856126af565b50505050565b6119a661234e565b8060198190555050565b83600e5481600b546119c29190613f36565b10611a02576040517f08c379a00000000000000000000000000000000000000000000000000000000081526004016119f990613fb6565b60405180910390fd5b6014600001544210158015611a1c57506014600101544211155b611a5b576040517f08c379a0000000000000000000000000000000000000000000000000000000008152600401611a52906145ef565b60405180910390fd5b84601054611a6991906140e5565b341015611aab576040517f08c379a0000000000000000000000000000000000000000000000000000000008152600401611aa290614173565b60405180910390fd5b8385601860003373ffffffffffffffffffffffffffffffffffffffff1673ffffffffffffffffffffffffffffffffffffffff16815260200190815260200160002054611af79190613f36565b1115611b38576040517f08c379a0000000000000000000000000000000000000000000000000000000008152600401611b2f9061465b565b60405180910390fd5b60003385604051602001611b4d9291906146e4565b604051602081830303815290604052805190602001209050611bb3848480806020026020016040519081016040528093929190818152602001838360200280828437600081840152601f19601f8201169050808301925050505050505060195483612860565b611bf2576040517f08c379a0000000000000000000000000000000000000000000000000000000008152600401611be99061475c565b60405180910390fd5b611bfb346123d5565b85601860003373ffffffffffffffffffffffffffffffffffffffff1673ffffffffffffffffffffffffffffffffffffffff1681526020019081526020016000206000828254611c4a9190613f36565b92505081905550611c5b3387612082565b505050505050565b611c6b61234e565b60405180608001604052808581526020018481526020018381526020018281525060146000820151816000015560208201518160010155604082015181600201556060820151816003015590505050505050565b6060611cc9610fbe565b8210611d0a576040517f08c379a0000000000000000000000000000000000000000000000000000000008152600401611d01906147c8565b60405180910390fd5b601a600083815260200190815260200160002060009054906101000a900460ff1615611d6257601b611d3b83612877565b604051602001611d4c9291906148f3565b6040516020818303038152906040529050611d90565b601b611d6d83612877565b604051602001611d7e929190614922565b60405160208183030381529060405290505b919050565b601b8054611da290613ed6565b80601f0160208091040260200160405190810160405280929190818152602001828054611dce90613ed6565b8015611e1b5780601f10611df057610100808354040283529160200191611e1b565b820191906000526020600020905b815481529060010190602001808311611dfe57829003601f168201915b505050505081565b600d5481565b611e3161234e565b8060128190555050565b6000600560008473ffffffffffffffffffffffffffffffffffffffff1673ffffffffffffffffffffffffffffffffffffffff16815260200190815260200160002060008373ffffffffffffffffffffffffffffffffffffffff1673ffffffffffffffffffffffffffffffffffffffff16815260200190815260200160002060009054906101000a900460ff16905092915050565b60148060000154908060010154908060020154908060030154905084565b611ef561234e565b600073ffffffffffffffffffffffffffffffffffffffff168173ffffffffffffffffffffffffffffffffffffffff1603611f675760006040517f1e4fbdf7000000000000000000000000000000000000000000000000000000008152600401611f5e91906137bb565b60405180910390fd5b611f708161247a565b50565b600e5481565b611f8161234e565b600d54811115611f9057600080fd5b80600f8190555050565b60105481565b60007f80ac58cd000000000000000000000000000000000000000000000000000000007bffffffffffffffffffffffffffffffffffffffffffffffffffffffff1916827bffffffffffffffffffffffffffffffffffffffffffffffffffffffff1916148061206b57507f5b5e139f000000000000000000000000000000000000000000000000000000007bffffffffffffffffffffffffffffffffffffffffffffffffffffffff1916827bffffffffffffffffffffffffffffffffffffffffffffffffffffffff1916145b8061207b575061207a82612945565b5b9050919050565b60005b818110156120be5761209983600b546129af565b600b60008154809291906120ac90614946565b91905055508080600101915050612085565b50601c60009054906101000a900473ffffffffffffffffffffffffffffffffffffffff1673ffffffffffffffffffffffffffffffffffffffff1663c43f27be600b546040518263ffffffff1660e01b815260040161211c91906135e8565b600060405180830381600087803b15801561213657600080fd5b505af115801561214a573d6000803e3d6000fd5b505050505050565b60008061215e836129cd565b9050600073ffffffffffffffffffffffffffffffffffffffff168173ffffffffffffffffffffffffffffffffffffffff16036121d157826040517f7e2732890000000000000000000000000000000000000000000000000000000081526004016121c891906135e8565b60405180910390fd5b80915050919050565b60006004600083815260200190815260200160002060009054906101000a900473ffffffffffffffffffffffffffffffffffffffff169050919050565b600033905090565b61222c8383836001612a0a565b505050565b60008061223f858585612bcf565b9050600073ffffffffffffffffffffffffffffffffffffffff168173ffffffffffffffffffffffffffffffffffffffff16036122835761227e84612de9565b6122c2565b8473ffffffffffffffffffffffffffffffffffffffff168173ffffffffffffffffffffffffffffffffffffffff16146122c1576122c08185612e32565b5b5b600073ffffffffffffffffffffffffffffffffffffffff168573ffffffffffffffffffffffffffffffffffffffff1603612304576122ff84612f1d565b612343565b8473ffffffffffffffffffffffffffffffffffffffff168173ffffffffffffffffffffffffffffffffffffffff1614612342576123418585612fee565b5b5b809150509392505050565b612356612217565b73ffffffffffffffffffffffffffffffffffffffff1661237461172a565b73ffffffffffffffffffffffffffffffffffffffff16146123d357612397612217565b6040517f118cdaa70000000000000000000000000000000000000000000000000000000081526004016123ca91906137bb565b60405180910390fd5b565b60006064601354836123e791906140e5565b6123f191906149bd565b9050601d60009054906101000a900473ffffffffffffffffffffffffffffffffffffffff1673ffffffffffffffffffffffffffffffffffffffff16635ec2dc8d826040518263ffffffff1660e01b81526004016000604051808303818588803b15801561245d57600080fd5b505af1158015612471573d6000803e3d6000fd5b50505050505050565b6000600a60009054906101000a900473ffffffffffffffffffffffffffffffffffffffff16905081600a60006101000a81548173ffffffffffffffffffffffffffffffffffffffff021916908373ffffffffffffffffffffffffffffffffffffffff1602179055508173ffffffffffffffffffffffffffffffffffffffff168173ffffffffffffffffffffffffffffffffffffffff167f8be0079c531659141344cd1fd0a4f28419497f9722a3daafe3b4186f6b6457e060405160405180910390a35050565b600073ffffffffffffffffffffffffffffffffffffffff168273ffffffffffffffffffffffffffffffffffffffff16036125b157816040517f5b08ba180000000000000000000000000000000000000000000000000000000081526004016125a891906137bb565b60405180910390fd5b80600560008573ffffffffffffffffffffffffffffffffffffffff1673ffffffffffffffffffffffffffffffffffffffff16815260200190815260200160002060008473ffffffffffffffffffffffffffffffffffffffff1673ffffffffffffffffffffffffffffffffffffffff16815260200190815260200160002060006101000a81548160ff0219169083151502179055508173ffffffffffffffffffffffffffffffffffffffff168373ffffffffffffffffffffffffffffffffffffffff167f17307eab39ab6107e8899845ad3d59bd9653f200f220920489ca2b5937696c31836040516126a291906135b4565b60405180910390a3505050565b60008373ffffffffffffffffffffffffffffffffffffffff163b1115612859578273ffffffffffffffffffffffffffffffffffffffff1663150b7a02868685856040518563ffffffff1660e01b815260040161270e9493929190614a43565b6020604051808303816000875af192505050801561274a57506040513d601f19601f820116820180604052508101906127479190614aa4565b60015b6127ce573d806000811461277a576040519150601f19603f3d011682016040523d82523d6000602084013e61277f565b606091505b5060008151036127c657836040517f64a0ae920000000000000000000000000000000000000000000000000000000081526004016127bd91906137bb565b60405180910390fd5b805181602001fd5b63150b7a0260e01b7bffffffffffffffffffffffffffffffffffffffffffffffffffffffff1916817bffffffffffffffffffffffffffffffffffffffffffffffffffffffff19161461285757836040517f64a0ae9200000000000000000000000000000000000000000000000000000000815260040161284e91906137bb565b60405180910390fd5b505b5050505050565b60008261286d8584613079565b1490509392505050565b606060006001612886846130c9565b01905060008167ffffffffffffffff8111156128a5576128a46138cc565b5b6040519080825280601f01601f1916602001820160405280156128d75781602001600182028036833780820191505090505b509050600082602001820190505b60011561293a578080600190039150507f3031323334353637383961626364656600000000000000000000000000000000600a86061a8153600a858161292e5761292d61498e565b5b049450600085036128e5575b819350505050919050565b60007f01ffc9a7000000000000000000000000000000000000000000000000000000007bffffffffffffffffffffffffffffffffffffffffffffffffffffffff1916827bffffffffffffffffffffffffffffffffffffffffffffffffffffffff1916149050919050565b6129c982826040518060200160405280600081525061321c565b5050565b60006002600083815260200190815260200160002060009054906101000a900473ffffffffffffffffffffffffffffffffffffffff169050919050565b8080612a435750600073ffffffffffffffffffffffffffffffffffffffff168273ffffffffffffffffffffffffffffffffffffffff1614155b15612b77576000612a5384612152565b9050600073ffffffffffffffffffffffffffffffffffffffff168373ffffffffffffffffffffffffffffffffffffffff1614158015612abe57508273ffffffffffffffffffffffffffffffffffffffff168173ffffffffffffffffffffffffffffffffffffffff1614155b8015612ad15750612acf8184611e3b565b155b15612b1357826040517fa9fbf51f000000000000000000000000000000000000000000000000000000008152600401612b0a91906137bb565b60405180910390fd5b8115612b7557838573ffffffffffffffffffffffffffffffffffffffff168273ffffffffffffffffffffffffffffffffffffffff167f8c5be1e5ebec7d5bd14f71427d1e84f3dd0314c0f7b2291e5b200ac8c7c3b92560405160405180910390a45b505b836004600085815260200190815260200160002060006101000a81548173ffffffffffffffffffffffffffffffffffffffff021916908373ffffffffffffffffffffffffffffffffffffffff16021790555050505050565b600080612bdb846129cd565b9050600073ffffffffffffffffffffffffffffffffffffffff168373ffffffffffffffffffffffffffffffffffffffff1614612c1d57612c1c818486613240565b5b600073ffffffffffffffffffffffffffffffffffffffff168173ffffffffffffffffffffffffffffffffffffffff1614612cae57612c5f600085600080612a0a565b6001600360008373ffffffffffffffffffffffffffffffffffffffff1673ffffffffffffffffffffffffffffffffffffffff168152602001908152602001600020600082825403925050819055505b600073ffffffffffffffffffffffffffffffffffffffff168573ffffffffffffffffffffffffffffffffffffffff1614612d31576001600360008773ffffffffffffffffffffffffffffffffffffffff1673ffffffffffffffffffffffffffffffffffffffff168152602001908152602001600020600082825401925050819055505b846002600086815260200190815260200160002060006101000a81548173ffffffffffffffffffffffffffffffffffffffff021916908373ffffffffffffffffffffffffffffffffffffffff160217905550838573ffffffffffffffffffffffffffffffffffffffff168273ffffffffffffffffffffffffffffffffffffffff167fddf252ad1be2c89b69c2b068fc378daa952ba7f163c4a11628f55a4df523b3ef60405160405180910390a4809150509392505050565b6008805490506009600083815260200190815260200160002081905550600881908060018154018082558091505060019003906000526020600020016000909190919091505550565b6000612e3d83611656565b90506000600760008481526020019081526020016000205490506000600660008673ffffffffffffffffffffffffffffffffffffffff1673ffffffffffffffffffffffffffffffffffffffff1681526020019081526020016000209050828214612ee95760008160008581526020019081526020016000205490508082600085815260200190815260200160002081905550826007600083815260200190815260200160002081905550505b6007600085815260200190815260200160002060009055806000848152602001908152602001600020600090555050505050565b60006001600880549050612f319190614ad1565b9050600060096000848152602001908152602001600020549050600060088381548110612f6157612f60614294565b5b906000526020600020015490508060088381548110612f8357612f82614294565b5b906000526020600020018190555081600960008381526020019081526020016000208190555060096000858152602001908152602001600020600090556008805480612fd257612fd1614b05565b5b6001900381819060005260206000200160009055905550505050565b60006001612ffb84611656565b6130059190614ad1565b905081600660008573ffffffffffffffffffffffffffffffffffffffff1673ffffffffffffffffffffffffffffffffffffffff168152602001908152602001600020600083815260200190815260200160002081905550806007600084815260200190815260200160002081905550505050565b60008082905060005b84518110156130be576130af828683815181106130a2576130a1614294565b5b6020026020010151613304565b91508080600101915050613082565b508091505092915050565b600080600090507a184f03e93ff9f4daa797ed6e38ed64bf6a1f0100000000000000008310613127577a184f03e93ff9f4daa797ed6e38ed64bf6a1f010000000000000000838161311d5761311c61498e565b5b0492506040810190505b6d04ee2d6d415b85acef81000000008310613164576d04ee2d6d415b85acef8100000000838161315a5761315961498e565b5b0492506020810190505b662386f26fc10000831061319357662386f26fc1000083816131895761318861498e565b5b0492506010810190505b6305f5e10083106131bc576305f5e10083816131b2576131b161498e565b5b0492506008810190505b61271083106131e15761271083816131d7576131d661498e565b5b0492506004810190505b6064831061320457606483816131fa576131f961498e565b5b0492506002810190505b600a8310613213576001810190505b80915050919050565b613226838361332f565b61323b613231612217565b60008585856126af565b505050565b61324b838383613428565b6132ff57600073ffffffffffffffffffffffffffffffffffffffff168373ffffffffffffffffffffffffffffffffffffffff16036132c057806040517f7e2732890000000000000000000000000000000000000000000000000000000081526004016132b791906135e8565b60405180910390fd5b81816040517f177e802f0000000000000000000000000000000000000000000000000000000081526004016132f692919061426b565b60405180910390fd5b505050565b600081831061331c5761331782846134e9565b613327565b61332683836134e9565b5b905092915050565b600073ffffffffffffffffffffffffffffffffffffffff168273ffffffffffffffffffffffffffffffffffffffff16036133a15760006040517f64a0ae9200000000000000000000000000000000000000000000000000000000815260040161339891906137bb565b60405180910390fd5b60006133af83836000612231565b9050600073ffffffffffffffffffffffffffffffffffffffff168173ffffffffffffffffffffffffffffffffffffffff16146134235760006040517f73c6ac6e00000000000000000000000000000000000000000000000000000000815260040161341a91906137bb565b60405180910390fd5b505050565b60008073ffffffffffffffffffffffffffffffffffffffff168373ffffffffffffffffffffffffffffffffffffffff16141580156134e057508273ffffffffffffffffffffffffffffffffffffffff168473ffffffffffffffffffffffffffffffffffffffff1614806134a157506134a08484611e3b565b5b806134df57508273ffffffffffffffffffffffffffffffffffffffff166134c7836121da565b73ffffffffffffffffffffffffffffffffffffffff16145b5b90509392505050565b600082600052816020526040600020905092915050565b6000604051905090565b600080fd5b600080fd5b60007fffffffff0000000000000000000000000000000000000000000000000000000082169050919050565b61354981613514565b811461355457600080fd5b50565b60008135905061356681613540565b92915050565b6000602082840312156135825761358161350a565b5b600061359084828501613557565b91505092915050565b60008115159050919050565b6135ae81613599565b82525050565b60006020820190506135c960008301846135a5565b92915050565b6000819050919050565b6135e2816135cf565b82525050565b60006020820190506135fd60008301846135d9565b92915050565b600081519050919050565b600082825260208201905092915050565b60005b8381101561363d578082015181840152602081019050613622565b60008484015250505050565b6000601f19601f8301169050919050565b600061366582613603565b61366f818561360e565b935061367f81856020860161361f565b61368881613649565b840191505092915050565b600060208201905081810360008301526136ad818461365a565b905092915050565b600073ffffffffffffffffffffffffffffffffffffffff82169050919050565b60006136e0826136b5565b9050919050565b6136f0816136d5565b81146136fb57600080fd5b50565b60008135905061370d816136e7565b92915050565b61371c816135cf565b811461372757600080fd5b50565b60008135905061373981613713565b92915050565b600080604083850312156137565761375561350a565b5b6000613764858286016136fe565b92505060206137758582860161372a565b9150509250929050565b6000602082840312156137955761379461350a565b5b60006137a38482850161372a565b91505092915050565b6137b5816136d5565b82525050565b60006020820190506137d060008301846137ac565b92915050565b6000806000606084860312156137ef576137ee61350a565b5b60006137fd868287016136fe565b935050602061380e868287016136fe565b925050604061381f8682870161372a565b9150509250925092565b61383281613599565b811461383d57600080fd5b50565b60008135905061384f81613829565b92915050565b6000806040838503121561386c5761386b61350a565b5b600061387a858286016136fe565b925050602061388b85828601613840565b9150509250929050565b6000602082840312156138ab576138aa61350a565b5b60006138b9848285016136fe565b91505092915050565b600080fd5b600080fd5b7f4e487b7100000000000000000000000000000000000000000000000000000000600052604160045260246000fd5b61390482613649565b810181811067ffffffffffffffff82111715613923576139226138cc565b5b80604052505050565b6000613936613500565b905061394282826138fb565b919050565b600067ffffffffffffffff821115613962576139616138cc565b5b61396b82613649565b9050602081019050919050565b82818337600083830152505050565b600061399a61399584613947565b61392c565b9050828152602081018484840111156139b6576139b56138c7565b5b6139c1848285613978565b509392505050565b600082601f8301126139de576139dd6138c2565b5b81356139ee848260208601613987565b91505092915050565b600060208284031215613a0d57613a0c61350a565b5b600082013567ffffffffffffffff811115613a2b57613a2a61350f565b5b613a37848285016139c9565b91505092915050565b6000819050919050565b6000613a65613a60613a5b846136b5565b613a40565b6136b5565b9050919050565b6000613a7782613a4a565b9050919050565b6000613a8982613a6c565b9050919050565b613a9981613a7e565b82525050565b6000602082019050613ab46000830184613a90565b92915050565b6000613ac582613a6c565b9050919050565b613ad581613aba565b82525050565b6000602082019050613af06000830184613acc565b92915050565b60008060408385031215613b0d57613b0c61350a565b5b6000613b1b8582860161372a565b9250506020613b2c85828601613840565b9150509250929050565b6000819050919050565b613b4981613b36565b82525050565b6000602082019050613b646000830184613b40565b92915050565b600067ffffffffffffffff821115613b8557613b846138cc565b5b613b8e82613649565b9050602081019050919050565b6000613bae613ba984613b6a565b61392c565b905082815260208101848484011115613bca57613bc96138c7565b5b613bd5848285613978565b509392505050565b600082601f830112613bf257613bf16138c2565b5b8135613c02848260208601613b9b565b91505092915050565b60008060008060808587031215613c2557613c2461350a565b5b6000613c33878288016136fe565b9450506020613c44878288016136fe565b9350506040613c558782880161372a565b925050606085013567ffffffffffffffff811115613c7657613c7561350f565b5b613c8287828801613bdd565b91505092959194509250565b613c9781613b36565b8114613ca257600080fd5b50565b600081359050613cb481613c8e565b92915050565b600060208284031215613cd057613ccf61350a565b5b6000613cde84828501613ca5565b91505092915050565b600080fd5b600080fd5b60008083601f840112613d0757613d066138c2565b5b8235905067ffffffffffffffff811115613d2457613d23613ce7565b5b602083019150836020820283011115613d4057613d3f613cec565b5b9250929050565b60008060008060608587031215613d6157613d6061350a565b5b6000613d6f8782880161372a565b9450506020613d808782880161372a565b935050604085013567ffffffffffffffff811115613da157613da061350f565b5b613dad87828801613cf1565b925092505092959194509250565b60008060008060808587031215613dd557613dd461350a565b5b6000613de38782880161372a565b9450506020613df48782880161372a565b9350506040613e058782880161372a565b9250506060613e168782880161372a565b91505092959194509250565b60008060408385031215613e3957613e3861350a565b5b6000613e47858286016136fe565b9250506020613e58858286016136fe565b9150509250929050565b6000608082019050613e7760008301876135d9565b613e8460208301866135d9565b613e9160408301856135d9565b613e9e60608301846135d9565b95945050505050565b7f4e487b7100000000000000000000000000000000000000000000000000000000600052602260045260246000fd5b60006002820490506001821680613eee57607f821691505b602082108103613f0157613f00613ea7565b5b50919050565b7f4e487b7100000000000000000000000000000000000000000000000000000000600052601160045260246000fd5b6000613f41826135cf565b9150613f4c836135cf565b9250828201905080821115613f6457613f63613f07565b5b92915050565b7f4f7574206f662053746f636b0000000000000000000000000000000000000000600082015250565b6000613fa0600c8361360e565b9150613fab82613f6a565b602082019050919050565b60006020820190508181036000830152613fcf81613f93565b9050919050565b7f4e6f7420616e20617070726f766564206d696e74657200000000000000000000600082015250565b600061400c60168361360e565b915061401782613fd6565b602082019050919050565b6000602082019050818103600083015261403b81613fff565b9050919050565b7f50657263656e746167652063616e6e6f74206578636565642031303000000000600082015250565b6000614078601c8361360e565b915061408382614042565b602082019050919050565b600060208201905081810360008301526140a78161406b565b9050919050565b60006060820190506140c360008301866137ac565b6140d060208301856135d9565b6140dd60408301846137ac565b949350505050565b60006140f0826135cf565b91506140fb836135cf565b9250828202614109816135cf565b915082820484148315176141205761411f613f07565b5b5092915050565b7f496e73756666696369656e742046756e64000000000000000000000000000000600082015250565b600061415d60118361360e565b915061416882614127565b602082019050919050565b6000602082019050818103600083015261418c81614150565b9050919050565b7f4d696e7420746f6f206d616e7900000000000000000000000000000000000000600082015250565b60006141c9600d8361360e565b91506141d482614193565b602082019050919050565b600060208201905081810360008301526141f8816141bc565b9050919050565b7f5075626c6963206d696e74206e6f742061637469766500000000000000000000600082015250565b600061423560168361360e565b9150614240826141ff565b602082019050919050565b6000602082019050818103600083015261426481614228565b9050919050565b600060408201905061428060008301856137ac565b61428d60208301846135d9565b9392505050565b7f4e487b7100000000000000000000000000000000000000000000000000000000600052603260045260246000fd5b60008190508160005260206000209050919050565b60006020601f8301049050919050565b600082821b905092915050565b6000600883026143257fffffffffffffffffffffffffffffffffffffffffffffffffffffffffffffffff826142e8565b61432f86836142e8565b95508019841693508086168417925050509392505050565b600061436261435d614358846135cf565b613a40565b6135cf565b9050919050565b6000819050919050565b61437c83614347565b61439061438882614369565b8484546142f5565b825550505050565b600090565b6143a5614398565b6143b0818484614373565b505050565b5b818110156143d4576143c960008261439d565b6001810190506143b6565b5050565b601f821115614419576143ea816142c3565b6143f3846142d8565b81016020851015614402578190505b61441661440e856142d8565b8301826143b5565b50505b505050565b600082821c905092915050565b600061443c6000198460080261441e565b1980831691505092915050565b6000614455838361442b565b9150826002028217905092915050565b61446e82613603565b67ffffffffffffffff811115614487576144866138cc565b5b6144918254613ed6565b61449c8282856143d8565b600060209050601f8311600181146144cf57600084156144bd578287015190505b6144c78582614449565b86555061452f565b601f1984166144dd866142c3565b60005b82811015614505578489015182556001820191506020850194506020810190506144e0565b86831015614522578489015161451e601f89168261442b565b8355505b6001600288020188555050505b505050505050565b7f4e6f7420616c6c6f776564000000000000000000000000000000000000000000600082015250565b600061456d600b8361360e565b915061457882614537565b602082019050919050565b6000602082019050818103600083015261459c81614560565b9050919050565b7f57686974656c697374206d696e74206e6f742061637469766500000000000000600082015250565b60006145d960198361360e565b91506145e4826145a3565b602082019050919050565b60006020820190508181036000830152614608816145cc565b9050919050565b7f457863656564732077686974656c69737420616c6c6f77616e63650000000000600082015250565b6000614645601b8361360e565b91506146508261460f565b602082019050919050565b6000602082019050818103600083015261467481614638565b9050919050565b60008160601b9050919050565b60006146938261467b565b9050919050565b60006146a582614688565b9050919050565b6146bd6146b8826136d5565b61469a565b82525050565b6000819050919050565b6146de6146d9826135cf565b6146c3565b82525050565b60006146f082856146ac565b60148201915061470082846146cd565b6020820191508190509392505050565b7f496e76616c6964204d65726b6c652070726f6f66000000000000000000000000600082015250565b600061474660148361360e565b915061475182614710565b602082019050919050565b6000602082019050818103600083015261477581614739565b9050919050565b7f746f6b656e20646f6573206e6f74206578697374000000000000000000000000600082015250565b60006147b260148361360e565b91506147bd8261477c565b602082019050919050565b600060208201905081810360008301526147e1816147a5565b9050919050565b600081905092915050565b6000815461480081613ed6565b61480a81866147e8565b94506001821660008114614825576001811461483a5761486d565b60ff198316865281151582028601935061486d565b614843856142c3565b60005b8381101561486557815481890152600182019150602081019050614846565b838801955050505b50505092915050565b600061488182613603565b61488b81856147e8565b935061489b81856020860161361f565b80840191505092915050565b7f2d7370656369616c000000000000000000000000000000000000000000000000600082015250565b60006148dd6008836147e8565b91506148e8826148a7565b600882019050919050565b60006148ff82856147f3565b915061490b8284614876565b9150614916826148d0565b91508190509392505050565b600061492e82856147f3565b915061493a8284614876565b91508190509392505050565b6000614951826135cf565b91507fffffffffffffffffffffffffffffffffffffffffffffffffffffffffffffffff820361498357614982613f07565b5b600182019050919050565b7f4e487b7100000000000000000000000000000000000000000000000000000000600052601260045260246000fd5b60006149c8826135cf565b91506149d3836135cf565b9250826149e3576149e261498e565b5b828204905092915050565b600081519050919050565b600082825260208201905092915050565b6000614a15826149ee565b614a1f81856149f9565b9350614a2f81856020860161361f565b614a3881613649565b840191505092915050565b6000608082019050614a5860008301876137ac565b614a6560208301866137ac565b614a7260408301856135d9565b8181036060830152614a848184614a0a565b905095945050505050565b600081519050614a9e81613540565b92915050565b600060208284031215614aba57614ab961350a565b5b6000614ac884828501614a8f565b91505092915050565b6000614adc826135cf565b9150614ae7836135cf565b9250828203905081811115614aff57614afe613f07565b5b92915050565b7f4e487b7100000000000000000000000000000000000000000000000000000000600052603160045260246000fdfea264697066735822122012a5583552664988f5f073d8957e6bee3ae3f1e511bc016623345794b39c6ba764736f6c634300081b0033",
  "linkReferences": {},
  "deployedLinkReferences": {}
}