{
  "_format": "hh-sol-artifact-1",
  "contractName": "Reward",
  "sourceName": "contracts/Reward.sol",
  "abi": [
    {
      "inputs": [],
      "stateMutability": "nonpayable",
      "type": "constructor"
    },
    {
      "inputs": [
        {
          "internalType": "address",
          "name": "owner",
          "type": "address"
        }
      ],
      "name": "OwnableInvalidOwner",
      "type": "error"
    },
    {
      "inputs": [
        {
          "internalType": "address",
          "name": "account",
          "type": "address"
        }
      ],
      "name": "OwnableUnauthorizedAccount",
      "type": "error"
    },
    {
      "anonymous": false,
      "inputs": [
        {
          "indexed": true,
          "internalType": "address",
          "name": "previousOwner",
          "type": "address"
        },
        {
          "indexed": true,
          "internalType": "address",
          "name": "newOwner",
          "type": "address"
        }
      ],
      "name": "OwnershipTransferred",
      "type": "event"
    },
    {
      "inputs": [
        {
          "internalType": "uint256",
          "name": "tokenId",
          "type": "uint256"
        }
      ],
      "name": "ClaimNFTByOwner",
      "outputs": [],
      "stateMutability": "nonpayable",
      "type": "function"
    },
    {
      "inputs": [
        {
          "internalType": "uint256",
          "name": "tokenId",
          "type": "uint256"
        }
      ],
      "name": "ClaimNFTOneOne",
      "outputs": [],
      "stateMutability": "nonpayable",
      "type": "function"
    },
    {
      "inputs": [
        {
          "internalType": "address",
          "name": "_address",
          "type": "address"
        },
        {
          "internalType": "uint256",
          "name": "level",
          "type": "uint256"
        }
      ],
      "name": "GiveReward",
      "outputs": [],
      "stateMutability": "nonpayable",
      "type": "function"
    },
    {
      "inputs": [
        {
          "internalType": "uint256",
          "name": "level",
          "type": "uint256"
        },
        {
          "internalType": "uint256",
          "name": "tokenId",
          "type": "uint256"
        },
        {
          "internalType": "address",
          "name": "contractAddress",
          "type": "address"
        }
      ],
      "name": "GiveReward",
      "outputs": [],
      "stateMutability": "nonpayable",
      "type": "function"
    },
    {
      "inputs": [],
      "name": "MAX_WHITELIST",
      "outputs": [
        {
          "internalType": "uint256",
          "name": "",
          "type": "uint256"
        }
      ],
      "stateMutability": "view",
      "type": "function"
    },
    {
      "inputs": [
        {
          "internalType": "address",
          "name": "",
          "type": "address"
        }
      ],
      "name": "allowedOperators",
      "outputs": [
        {
          "internalType": "bool",
          "name": "",
          "type": "bool"
        }
      ],
      "stateMutability": "view",
      "type": "function"
    },
    {
      "inputs": [],
      "name": "claimNFTSpecial",
      "outputs": [],
      "stateMutability": "nonpayable",
      "type": "function"
    },
    {
      "inputs": [],
      "name": "depositReward",
      "outputs": [],
      "stateMutability": "payable",
      "type": "function"
    },
    {
      "inputs": [
        {
          "internalType": "address[]",
          "name": "recipients",
          "type": "address[]"
        },
        {
          "internalType": "uint256[]",
          "name": "amounts",
          "type": "uint256[]"
        }
      ],
      "name": "distributeFunds",
      "outputs": [],
      "stateMutability": "payable",
      "type": "function"
    },
    {
      "inputs": [],
      "name": "getClaimableNFTs",
      "outputs": [
        {
          "internalType": "uint256[]",
          "name": "",
          "type": "uint256[]"
        }
      ],
      "stateMutability": "view",
      "type": "function"
    },
    {
      "inputs": [
        {
          "internalType": "uint256",
          "name": "amount",
          "type": "uint256"
        }
      ],
      "name": "mintAndStoreNFT",
      "outputs": [],
      "stateMutability": "nonpayable",
      "type": "function"
    },
    {
      "inputs": [
        {
          "internalType": "address",
          "name": "operator",
          "type": "address"
        },
        {
          "internalType": "address",
          "name": "from",
          "type": "address"
        },
        {
          "internalType": "uint256",
          "name": "tokenId",
          "type": "uint256"
        },
        {
          "internalType": "bytes",
          "name": "data",
          "type": "bytes"
        }
      ],
      "name": "onERC721Received",
      "outputs": [
        {
          "internalType": "bytes4",
          "name": "",
          "type": "bytes4"
        }
      ],
      "stateMutability": "nonpayable",
      "type": "function"
    },
    {
      "inputs": [
        {
          "internalType": "address",
          "name": "",
          "type": "address"
        }
      ],
      "name": "oneofone_claimed",
      "outputs": [
        {
          "internalType": "uint256",
          "name": "",
          "type": "uint256"
        }
      ],
      "stateMutability": "view",
      "type": "function"
    },
    {
      "inputs": [
        {
          "internalType": "address",
          "name": "",
          "type": "address"
        }
      ],
      "name": "oneofone_whitelist",
      "outputs": [
        {
          "internalType": "uint256",
          "name": "",
          "type": "uint256"
        }
      ],
      "stateMutability": "view",
      "type": "function"
    },
    {
      "inputs": [],
      "name": "owner",
      "outputs": [
        {
          "internalType": "address",
          "name": "",
          "type": "address"
        }
      ],
      "stateMutability": "view",
      "type": "function"
    },
    {
      "inputs": [],
      "name": "renounceOwnership",
      "outputs": [],
      "stateMutability": "nonpayable",
      "type": "function"
    },
    {
      "inputs": [
        {
          "internalType": "address",
          "name": "_operator",
          "type": "address"
        },
        {
          "internalType": "bool",
          "name": "allowed",
          "type": "bool"
        }
      ],
      "name": "setOperator",
      "outputs": [],
      "stateMutability": "nonpayable",
      "type": "function"
    },
    {
      "inputs": [
        {
          "internalType": "uint256",
          "name": "tokenId",
          "type": "uint256"
        }
      ],
      "name": "setSpecialTokenId",
      "outputs": [],
      "stateMutability": "nonpayable",
      "type": "function"
    },
    {
      "inputs": [
        {
          "internalType": "address",
          "name": "_zspContract",
          "type": "address"
        }
      ],
      "name": "setZSPContract",
      "outputs": [],
      "stateMutability": "nonpayable",
      "type": "function"
    },
    {
      "inputs": [],
      "name": "specialTokenId",
      "outputs": [
        {
          "internalType": "uint256",
          "name": "",
          "type": "uint256"
        }
      ],
      "stateMutability": "view",
      "type": "function"
    },
    {
      "inputs": [],
      "name": "special_claim",
      "outputs": [
        {
          "internalType": "address",
          "name": "",
          "type": "address"
        }
      ],
      "stateMutability": "view",
      "type": "function"
    },
    {
      "inputs": [
        {
          "internalType": "address",
          "name": "newOwner",
          "type": "address"
        }
      ],
      "name": "transferOwnership",
      "outputs": [],
      "stateMutability": "nonpayable",
      "type": "function"
    },
    {
      "inputs": [],
      "name": "whitelist_count",
      "outputs": [
        {
          "internalType": "uint256",
          "name": "",
          "type": "uint256"
        }
      ],
      "stateMutability": "view",
      "type": "function"
    },
    {
      "inputs": [],
      "name": "withdraw",
      "outputs": [],
      "stateMutability": "nonpayable",
      "type": "function"
    },
    {
      "inputs": [],
      "name": "zspContract",
      "outputs": [
        {
          "internalType": "contract ZeroSumPac",
          "name": "",
          "type": "address"
        }
      ],
      "stateMutability": "view",
      "type": "function"
    }
  ],
  "bytecode": "0x60806040526000600555600060065534801561001a57600080fd5b5033600073ffffffffffffffffffffffffffffffffffffffff168173ffffffffffffffffffffffffffffffffffffffff160361008e5760006040517f1e4fbdf700000000000000000000000000000000000000000000000000000000815260040161008591906101a8565b60405180910390fd5b61009d816100a360201b60201c565b506101c3565b60008060009054906101000a900473ffffffffffffffffffffffffffffffffffffffff169050816000806101000a81548173ffffffffffffffffffffffffffffffffffffffff021916908373ffffffffffffffffffffffffffffffffffffffff1602179055508173ffffffffffffffffffffffffffffffffffffffff168173ffffffffffffffffffffffffffffffffffffffff167f8be0079c531659141344cd1fd0a4f28419497f9722a3daafe3b4186f6b6457e060405160405180910390a35050565b600073ffffffffffffffffffffffffffffffffffffffff82169050919050565b600061019282610167565b9050919050565b6101a281610187565b82525050565b60006020820190506101bd6000830184610199565b92915050565b612720806101d26000396000f3fe6080604052600436106101665760003560e01c8063715018a6116100d1578063a9ef4ce71161008a578063d72afbb211610064578063d72afbb2146104c0578063d7eef9e0146104eb578063e356912314610514578063f2fde38b1461053f57610166565b8063a9ef4ce714610445578063c4bd73a61461046e578063c6fca20b1461049757610166565b8063715018a61461035b5780638a169f64146103725780638da5cb5b1461039b57806395f61c48146103c65780639696ad28146103f1578063a6674f881461040857610166565b8063558a729711610123578063558a72971461027d57806357e4d5f1146102a65780635ec2dc8d146102cf5780636bd4d4ac146102d95780636bd59ec0146103165780636f9fd2fc1461033257610166565b80630e5a38eb1461016b5780630ed303a2146101965780630ef4bf0f146101d3578063150b7a02146101fe578063199ebbaf1461023b5780633ccfd60b14610266575b600080fd5b34801561017757600080fd5b50610180610568565b60405161018d9190611977565b60405180910390f35b3480156101a257600080fd5b506101bd60048036038101906101b891906119c8565b61058e565b6040516101ca9190611a0e565b60405180910390f35b3480156101df57600080fd5b506101e86105a6565b6040516101f59190611a0e565b60405180910390f35b34801561020a57600080fd5b5061022560048036038101906102209190611aba565b6105ac565b6040516102329190611b7d565b60405180910390f35b34801561024757600080fd5b506102506105c1565b60405161025d9190611c56565b60405180910390f35b34801561027257600080fd5b5061027b61078e565b005b34801561028957600080fd5b506102a4600480360381019061029f9190611cb0565b6107df565b005b3480156102b257600080fd5b506102cd60048036038101906102c89190611cf0565b610842565b005b6102d7610854565b005b3480156102e557600080fd5b5061030060048036038101906102fb91906119c8565b610899565b60405161030d9190611a0e565b60405180910390f35b610330600480360381019061032b9190611dc9565b6108b1565b005b34801561033e57600080fd5b5061035960048036038101906103549190611e4a565b610b82565b005b34801561036757600080fd5b50610370610c36565b005b34801561037e57600080fd5b5061039960048036038101906103949190611cf0565b610c4a565b005b3480156103a757600080fd5b506103b0610f4e565b6040516103bd9190611977565b60405180910390f35b3480156103d257600080fd5b506103db610f77565b6040516103e89190611a0e565b60405180910390f35b3480156103fd57600080fd5b50610406610f7c565b005b34801561041457600080fd5b5061042f600480360381019061042a91906119c8565b611176565b60405161043c9190611e99565b60405180910390f35b34801561045157600080fd5b5061046c600480360381019061046791906119c8565b611196565b005b34801561047a57600080fd5b5061049560048036038101906104909190611cf0565b6111e2565b005b3480156104a357600080fd5b506104be60048036038101906104b99190611eb4565b6112bf565b005b3480156104cc57600080fd5b506104d56113b8565b6040516104e29190611f66565b60405180910390f35b3480156104f757600080fd5b50610512600480360381019061050d9190611cf0565b6113de565b005b34801561052057600080fd5b5061052961158a565b6040516105369190611a0e565b60405180910390f35b34801561054b57600080fd5b50610566600480360381019061056191906119c8565b611590565b005b600260009054906101000a900473ffffffffffffffffffffffffffffffffffffffff1681565b60046020528060005260406000206000915090505481565b60065481565b600063150b7a0260e01b905095945050505050565b60606000600160009054906101000a900473ffffffffffffffffffffffffffffffffffffffff1673ffffffffffffffffffffffffffffffffffffffff166370a08231306040518263ffffffff1660e01b81526004016106209190611977565b602060405180830381865afa15801561063d573d6000803e3d6000fd5b505050506040513d601f19601f820116820180604052508101906106619190611f96565b905060008167ffffffffffffffff81111561067f5761067e611fc3565b5b6040519080825280602002602001820160405280156106ad5781602001602082028036833780820191505090505b50905060005b8281101561078557600160009054906101000a900473ffffffffffffffffffffffffffffffffffffffff1673ffffffffffffffffffffffffffffffffffffffff16632f745c5930836040518363ffffffff1660e01b8152600401610718929190611ff2565b602060405180830381865afa158015610735573d6000803e3d6000fd5b505050506040513d601f19601f820116820180604052508101906107599190611f96565b82828151811061076c5761076b61201b565b5b60200260200101818152505080806001019150506106b3565b50809250505090565b610796611616565b3373ffffffffffffffffffffffffffffffffffffffff166108fc479081150290604051600060405180830381858888f193505050501580156107dc573d6000803e3d6000fd5b50565b6107e7611616565b80600760008473ffffffffffffffffffffffffffffffffffffffff1673ffffffffffffffffffffffffffffffffffffffff16815260200190815260200160002060006101000a81548160ff0219169083151502179055505050565b61084a611616565b8060068190555050565b60003411610897576040517f08c379a000000000000000000000000000000000000000000000000000000000815260040161088e906120a7565b60405180910390fd5b565b60036020528060005260406000206000915090505481565b8181905084849050146108f9576040517f08c379a00000000000000000000000000000000000000000000000000000000081526004016108f090612113565b60405180910390fd5b6000805b8383905081101561093c5783838281811061091b5761091a61201b565b5b905060200201358261092d9190612162565b915080806001019150506108fd565b5047811115610980576040517f08c379a0000000000000000000000000000000000000000000000000000000008152600401610977906121e2565b60405180910390fd5b60005b85859050811015610b7a57600073ffffffffffffffffffffffffffffffffffffffff168686838181106109b9576109b861201b565b5b90506020020160208101906109ce91906119c8565b73ffffffffffffffffffffffffffffffffffffffff1603610a24576040517f08c379a0000000000000000000000000000000000000000000000000000000008152600401610a1b9061224e565b60405180910390fd5b6000848483818110610a3957610a3861201b565b5b9050602002013511610a80576040517f08c379a0000000000000000000000000000000000000000000000000000000008152600401610a77906122ba565b60405180910390fd5b6000868683818110610a9557610a9461201b565b5b9050602002016020810190610aaa91906119c8565b73ffffffffffffffffffffffffffffffffffffffff16858584818110610ad357610ad261201b565b5b90506020020135604051610ae69061230b565b60006040518083038185875af1925050503d8060008114610b23576040519150601f19603f3d011682016040523d82523d6000602084013e610b28565b606091505b5050905080610b6c576040517f08c379a0000000000000000000000000000000000000000000000000000000008152600401610b639061236c565b60405180910390fd5b508080600101915050610983565b505050505050565b600760003373ffffffffffffffffffffffffffffffffffffffff1673ffffffffffffffffffffffffffffffffffffffff16815260200190815260200160002060009054906101000a900460ff16610c0e576040517f08c379a0000000000000000000000000000000000000000000000000000000008152600401610c05906123d8565b60405180910390fd5b60048103610c2057610c1f8261169d565b5b60058103610c3257610c31826116ab565b5b5050565b610c3e611616565b610c4860006116cf565b565b6006548103610c8e576040517f08c379a0000000000000000000000000000000000000000000000000000000008152600401610c8590612444565b60405180910390fd5b3073ffffffffffffffffffffffffffffffffffffffff16600160009054906101000a900473ffffffffffffffffffffffffffffffffffffffff1673ffffffffffffffffffffffffffffffffffffffff16636352211e836040518263ffffffff1660e01b8152600401610d009190611a0e565b602060405180830381865afa158015610d1d573d6000803e3d6000fd5b505050506040513d601f19601f82011682018060405250810190610d419190612479565b73ffffffffffffffffffffffffffffffffffffffff1614610d97576040517f08c379a0000000000000000000000000000000000000000000000000000000008152600401610d8e906124f2565b60405180910390fd5b6000600460003373ffffffffffffffffffffffffffffffffffffffff1673ffffffffffffffffffffffffffffffffffffffff16815260200190815260200160002054600360003373ffffffffffffffffffffffffffffffffffffffff1673ffffffffffffffffffffffffffffffffffffffff16815260200190815260200160002054610e239190612512565b11610e63576040517f08c379a0000000000000000000000000000000000000000000000000000000008152600401610e5a90612592565b60405180910390fd5b6001600460003373ffffffffffffffffffffffffffffffffffffffff1673ffffffffffffffffffffffffffffffffffffffff1681526020019081526020016000206000828254610eb39190612162565b92505081905550600160009054906101000a900473ffffffffffffffffffffffffffffffffffffffff1673ffffffffffffffffffffffffffffffffffffffff166342842e0e3033846040518463ffffffff1660e01b8152600401610f19939291906125b2565b600060405180830381600087803b158015610f3357600080fd5b505af1158015610f47573d6000803e3d6000fd5b5050505050565b60008060009054906101000a900473ffffffffffffffffffffffffffffffffffffffff16905090565b600a81565b3073ffffffffffffffffffffffffffffffffffffffff16600160009054906101000a900473ffffffffffffffffffffffffffffffffffffffff1673ffffffffffffffffffffffffffffffffffffffff16636352211e6006546040518263ffffffff1660e01b8152600401610ff09190611a0e565b602060405180830381865afa15801561100d573d6000803e3d6000fd5b505050506040513d601f19601f820116820180604052508101906110319190612479565b73ffffffffffffffffffffffffffffffffffffffff1614611087576040517f08c379a000000000000000000000000000000000000000000000000000000000815260040161107e906124f2565b60405180910390fd5b3373ffffffffffffffffffffffffffffffffffffffff16600260009054906101000a900473ffffffffffffffffffffffffffffffffffffffff1673ffffffffffffffffffffffffffffffffffffffff16146110e157600080fd5b600160009054906101000a900473ffffffffffffffffffffffffffffffffffffffff1673ffffffffffffffffffffffffffffffffffffffff166342842e0e30336006546040518463ffffffff1660e01b8152600401611142939291906125b2565b600060405180830381600087803b15801561115c57600080fd5b505af1158015611170573d6000803e3d6000fd5b50505050565b60076020528060005260406000206000915054906101000a900460ff1681565b61119e611616565b80600160006101000a81548173ffffffffffffffffffffffffffffffffffffffff021916908373ffffffffffffffffffffffffffffffffffffffff16021790555050565b6111ea611616565b6000811161122d576040517f08c379a000000000000000000000000000000000000000000000000000000000815260040161122490612635565b60405180910390fd5b600160009054906101000a900473ffffffffffffffffffffffffffffffffffffffff1673ffffffffffffffffffffffffffffffffffffffff166307a0c83330836040518363ffffffff1660e01b815260040161128a929190611ff2565b600060405180830381600087803b1580156112a457600080fd5b505af11580156112b8573d6000803e3d6000fd5b5050505050565b600760003373ffffffffffffffffffffffffffffffffffffffff1673ffffffffffffffffffffffffffffffffffffffff16815260200190815260200160002060009054906101000a900460ff1661134b576040517f08c379a0000000000000000000000000000000000000000000000000000000008152600401611342906123d8565b60405180910390fd5b600383036113b357600160009054906101000a900473ffffffffffffffffffffffffffffffffffffffff1673ffffffffffffffffffffffffffffffffffffffff168173ffffffffffffffffffffffffffffffffffffffff16036113b2576113b182611793565b5b5b505050565b600160009054906101000a900473ffffffffffffffffffffffffffffffffffffffff1681565b6113e6611616565b3073ffffffffffffffffffffffffffffffffffffffff16600160009054906101000a900473ffffffffffffffffffffffffffffffffffffffff1673ffffffffffffffffffffffffffffffffffffffff16636352211e836040518263ffffffff1660e01b81526004016114589190611a0e565b602060405180830381865afa158015611475573d6000803e3d6000fd5b505050506040513d601f19601f820116820180604052508101906114999190612479565b73ffffffffffffffffffffffffffffffffffffffff16146114ef576040517f08c379a00000000000000000000000000000000000000000000000000000000081526004016114e6906124f2565b60405180910390fd5b600160009054906101000a900473ffffffffffffffffffffffffffffffffffffffff1673ffffffffffffffffffffffffffffffffffffffff166342842e0e30611536610f4e565b846040518463ffffffff1660e01b8152600401611555939291906125b2565b600060405180830381600087803b15801561156f57600080fd5b505af1158015611583573d6000803e3d6000fd5b5050505050565b60055481565b611598611616565b600073ffffffffffffffffffffffffffffffffffffffff168173ffffffffffffffffffffffffffffffffffffffff160361160a5760006040517f1e4fbdf70000000000000000000000000000000000000000000000000000000081526004016116019190611977565b60405180910390fd5b611613816116cf565b50565b61161e611826565b73ffffffffffffffffffffffffffffffffffffffff1661163c610f4e565b73ffffffffffffffffffffffffffffffffffffffff161461169b5761165f611826565b6040517f118cdaa70000000000000000000000000000000000000000000000000000000081526004016116929190611977565b60405180910390fd5b565b6116a881600161182e565b50565b6116b4816118f2565b6116cc81600554600a6116c79190612512565b61182e565b50565b60008060009054906101000a900473ffffffffffffffffffffffffffffffffffffffff169050816000806101000a81548173ffffffffffffffffffffffffffffffffffffffff021916908373ffffffffffffffffffffffffffffffffffffffff1602179055508173ffffffffffffffffffffffffffffffffffffffff168173ffffffffffffffffffffffffffffffffffffffff167f8be0079c531659141344cd1fd0a4f28419497f9722a3daafe3b4186f6b6457e060405160405180910390a35050565b600160009054906101000a900473ffffffffffffffffffffffffffffffffffffffff1673ffffffffffffffffffffffffffffffffffffffff16639acffa128260016040518363ffffffff1660e01b81526004016117f1929190612655565b600060405180830381600087803b15801561180b57600080fd5b505af115801561181f573d6000803e3d6000fd5b5050505050565b600033905090565b600a8160055461183e9190612162565b111561187f576040517f08c379a0000000000000000000000000000000000000000000000000000000008152600401611876906126ca565b60405180910390fd5b80600360008473ffffffffffffffffffffffffffffffffffffffff1673ffffffffffffffffffffffffffffffffffffffff16815260200190815260200160002060008282546118ce9190612162565b9250508190555080600560008282546118e79190612162565b925050819055505050565b80600260006101000a81548173ffffffffffffffffffffffffffffffffffffffff021916908373ffffffffffffffffffffffffffffffffffffffff16021790555050565b600073ffffffffffffffffffffffffffffffffffffffff82169050919050565b600061196182611936565b9050919050565b61197181611956565b82525050565b600060208201905061198c6000830184611968565b92915050565b600080fd5b600080fd5b6119a581611956565b81146119b057600080fd5b50565b6000813590506119c28161199c565b92915050565b6000602082840312156119de576119dd611992565b5b60006119ec848285016119b3565b91505092915050565b6000819050919050565b611a08816119f5565b82525050565b6000602082019050611a2360008301846119ff565b92915050565b611a32816119f5565b8114611a3d57600080fd5b50565b600081359050611a4f81611a29565b92915050565b600080fd5b600080fd5b600080fd5b60008083601f840112611a7a57611a79611a55565b5b8235905067ffffffffffffffff811115611a9757611a96611a5a565b5b602083019150836001820283011115611ab357611ab2611a5f565b5b9250929050565b600080600080600060808688031215611ad657611ad5611992565b5b6000611ae4888289016119b3565b9550506020611af5888289016119b3565b9450506040611b0688828901611a40565b935050606086013567ffffffffffffffff811115611b2757611b26611997565b5b611b3388828901611a64565b92509250509295509295909350565b60007fffffffff0000000000000000000000000000000000000000000000000000000082169050919050565b611b7781611b42565b82525050565b6000602082019050611b926000830184611b6e565b92915050565b600081519050919050565b600082825260208201905092915050565b6000819050602082019050919050565b611bcd816119f5565b82525050565b6000611bdf8383611bc4565b60208301905092915050565b6000602082019050919050565b6000611c0382611b98565b611c0d8185611ba3565b9350611c1883611bb4565b8060005b83811015611c49578151611c308882611bd3565b9750611c3b83611beb565b925050600181019050611c1c565b5085935050505092915050565b60006020820190508181036000830152611c708184611bf8565b905092915050565b60008115159050919050565b611c8d81611c78565b8114611c9857600080fd5b50565b600081359050611caa81611c84565b92915050565b60008060408385031215611cc757611cc6611992565b5b6000611cd5858286016119b3565b9250506020611ce685828601611c9b565b9150509250929050565b600060208284031215611d0657611d05611992565b5b6000611d1484828501611a40565b91505092915050565b60008083601f840112611d3357611d32611a55565b5b8235905067ffffffffffffffff811115611d5057611d4f611a5a565b5b602083019150836020820283011115611d6c57611d6b611a5f565b5b9250929050565b60008083601f840112611d8957611d88611a55565b5b8235905067ffffffffffffffff811115611da657611da5611a5a565b5b602083019150836020820283011115611dc257611dc1611a5f565b5b9250929050565b60008060008060408587031215611de357611de2611992565b5b600085013567ffffffffffffffff811115611e0157611e00611997565b5b611e0d87828801611d1d565b9450945050602085013567ffffffffffffffff811115611e3057611e2f611997565b5b611e3c87828801611d73565b925092505092959194509250565b60008060408385031215611e6157611e60611992565b5b6000611e6f858286016119b3565b9250506020611e8085828601611a40565b9150509250929050565b611e9381611c78565b82525050565b6000602082019050611eae6000830184611e8a565b92915050565b600080600060608486031215611ecd57611ecc611992565b5b6000611edb86828701611a40565b9350506020611eec86828701611a40565b9250506040611efd868287016119b3565b9150509250925092565b6000819050919050565b6000611f2c611f27611f2284611936565b611f07565b611936565b9050919050565b6000611f3e82611f11565b9050919050565b6000611f5082611f33565b9050919050565b611f6081611f45565b82525050565b6000602082019050611f7b6000830184611f57565b92915050565b600081519050611f9081611a29565b92915050565b600060208284031215611fac57611fab611992565b5b6000611fba84828501611f81565b91505092915050565b7f4e487b7100000000000000000000000000000000000000000000000000000000600052604160045260246000fd5b60006040820190506120076000830185611968565b61201460208301846119ff565b9392505050565b7f4e487b7100000000000000000000000000000000000000000000000000000000600052603260045260246000fd5b600082825260208201905092915050565b7f4e6f2045746865722073656e7400000000000000000000000000000000000000600082015250565b6000612091600d8361204a565b915061209c8261205b565b602082019050919050565b600060208201905081810360008301526120c081612084565b9050919050565b7f4d69736d61746368656420617272617973000000000000000000000000000000600082015250565b60006120fd60118361204a565b9150612108826120c7565b602082019050919050565b6000602082019050818103600083015261212c816120f0565b9050919050565b7f4e487b7100000000000000000000000000000000000000000000000000000000600052601160045260246000fd5b600061216d826119f5565b9150612178836119f5565b92508282019050808211156121905761218f612133565b5b92915050565b7f496e73756666696369656e7420636f6e74726163742062616c616e6365000000600082015250565b60006121cc601d8361204a565b91506121d782612196565b602082019050919050565b600060208201905081810360008301526121fb816121bf565b9050919050565b7f496e76616c696420726563697069656e74000000000000000000000000000000600082015250565b600061223860118361204a565b915061224382612202565b602082019050919050565b600060208201905081810360008301526122678161222b565b9050919050565b7f496e76616c696420616d6f756e74000000000000000000000000000000000000600082015250565b60006122a4600e8361204a565b91506122af8261226e565b602082019050919050565b600060208201905081810360008301526122d381612297565b9050919050565b600081905092915050565b50565b60006122f56000836122da565b9150612300826122e5565b600082019050919050565b6000612316826122e8565b9150819050919050565b7f5472616e73666572206661696c65640000000000000000000000000000000000600082015250565b6000612356600f8361204a565b915061236182612320565b602082019050919050565b6000602082019050818103600083015261238581612349565b9050919050565b7f4e6f7420616e20616c6c6f776564206f70657261746f72000000000000000000600082015250565b60006123c260178361204a565b91506123cd8261238c565b602082019050919050565b600060208201905081810360008301526123f1816123b5565b9050919050565b7f546f6b656e206973206e6f7420312f3100000000000000000000000000000000600082015250565b600061242e60108361204a565b9150612439826123f8565b602082019050919050565b6000602082019050818103600083015261245d81612421565b9050919050565b6000815190506124738161199c565b92915050565b60006020828403121561248f5761248e611992565b5b600061249d84828501612464565b91505092915050565b7f4e4654206e6f74206f776e656420627920636f6e747261637400000000000000600082015250565b60006124dc60198361204a565b91506124e7826124a6565b602082019050919050565b6000602082019050818103600083015261250b816124cf565b9050919050565b600061251d826119f5565b9150612528836119f5565b92508282039050818111156125405761253f612133565b5b92915050565b7f6e6f2077686974656c697374206c656674000000000000000000000000000000600082015250565b600061257c60118361204a565b915061258782612546565b602082019050919050565b600060208201905081810360008301526125ab8161256f565b9050919050565b60006060820190506125c76000830186611968565b6125d46020830185611968565b6125e160408301846119ff565b949350505050565b7f616d6f756e74206d7573742062652067726561746572207468616e207a65726f600082015250565b600061261f60208361204a565b915061262a826125e9565b602082019050919050565b6000602082019050818103600083015261264e81612612565b9050919050565b600060408201905061266a60008301856119ff565b6126776020830184611e8a565b9392505050565b7f57686974656c6973742069732066756c6c000000000000000000000000000000600082015250565b60006126b460118361204a565b91506126bf8261267e565b602082019050919050565b600060208201905081810360008301526126e3816126a7565b905091905056fea264697066735822122073616c1aeda4adebfdce6a90586ee814e7ec3004e6f416a2068e9a03ad3a760e64736f6c634300081b0033",
  "linkReferences": {},
  "deployedLinkReferences": {}
}