{
  "_format": "hh-sol-artifact-1",
  "contractName": "Game",
  "sourceName": "contracts/Game.sol",
  "abi": [
    {
      "inputs": [],
      "stateMutability": "nonpayable",
      "type": "constructor"
    },
    {
      "inputs": [
        {
          "internalType": "address",
          "name": "owner",
          "type": "address"
        }
      ],
      "name": "OwnableInvalidOwner",
      "type": "error"
    },
    {
      "inputs": [
        {
          "internalType": "address",
          "name": "account",
          "type": "address"
        }
      ],
      "name": "OwnableUnauthorizedAccount",
      "type": "error"
    },
    {
      "anonymous": false,
      "inputs": [
        {
          "indexed": true,
          "internalType": "address",
          "name": "nftContract",
          "type": "address"
        },
        {
          "indexed": false,
          "internalType": "bool",
          "name": "isAllowed",
          "type": "bool"
        }
      ],
      "name": "AllowedNFTContract",
      "type": "event"
    },
    {
      "anonymous": false,
      "inputs": [
        {
          "indexed": false,
          "internalType": "int256",
          "name": "dotdelta",
          "type": "int256"
        },
        {
          "indexed": true,
          "internalType": "uint256",
          "name": "playerid",
          "type": "uint256"
        }
      ],
      "name": "DotChanged",
      "type": "event"
    },
    {
      "anonymous": false,
      "inputs": [
        {
          "indexed": false,
          "internalType": "uint256",
          "name": "dot",
          "type": "uint256"
        },
        {
          "indexed": false,
          "internalType": "uint256",
          "name": "level",
          "type": "uint256"
        }
      ],
      "name": "DotLocked",
      "type": "event"
    },
    {
      "anonymous": false,
      "inputs": [
        {
          "indexed": false,
          "internalType": "uint256",
          "name": "ending",
          "type": "uint256"
        }
      ],
      "name": "GameEnded",
      "type": "event"
    },
    {
      "anonymous": false,
      "inputs": [
        {
          "indexed": true,
          "internalType": "address",
          "name": "nftContract",
          "type": "address"
        },
        {
          "indexed": true,
          "internalType": "uint256",
          "name": "tokenId",
          "type": "uint256"
        },
        {
          "indexed": true,
          "internalType": "address",
          "name": "owner",
          "type": "address"
        },
        {
          "indexed": false,
          "internalType": "uint256",
          "name": "playerid",
          "type": "uint256"
        }
      ],
      "name": "NFTRegistered",
      "type": "event"
    },
    {
      "anonymous": false,
      "inputs": [
        {
          "indexed": true,
          "internalType": "address",
          "name": "previousOwner",
          "type": "address"
        },
        {
          "indexed": true,
          "internalType": "address",
          "name": "newOwner",
          "type": "address"
        }
      ],
      "name": "OwnershipTransferred",
      "type": "event"
    },
    {
      "anonymous": false,
      "inputs": [
        {
          "indexed": false,
          "internalType": "uint256",
          "name": "attackerplayerid",
          "type": "uint256"
        },
        {
          "indexed": false,
          "internalType": "uint256",
          "name": "victimplayerid",
          "type": "uint256"
        },
        {
          "indexed": false,
          "internalType": "uint256",
          "name": "dotdelta",
          "type": "uint256"
        }
      ],
      "name": "PlayerAttacked",
      "type": "event"
    },
    {
      "anonymous": false,
      "inputs": [
        {
          "indexed": false,
          "internalType": "uint256",
          "name": "maze",
          "type": "uint256"
        },
        {
          "indexed": false,
          "internalType": "uint256",
          "name": "x",
          "type": "uint256"
        },
        {
          "indexed": false,
          "internalType": "uint256",
          "name": "y",
          "type": "uint256"
        },
        {
          "indexed": false,
          "internalType": "uint256",
          "name": "playerid",
          "type": "uint256"
        }
      ],
      "name": "PlayerMoved",
      "type": "event"
    },
    {
      "anonymous": false,
      "inputs": [
        {
          "indexed": false,
          "internalType": "uint256",
          "name": "attackerplayerid",
          "type": "uint256"
        },
        {
          "indexed": false,
          "internalType": "uint256",
          "name": "victimplayerid",
          "type": "uint256"
        }
      ],
      "name": "PlayerRobbed",
      "type": "event"
    },
    {
      "anonymous": false,
      "inputs": [
        {
          "indexed": false,
          "internalType": "enum PlayerStatus",
          "name": "status",
          "type": "uint8"
        },
        {
          "indexed": false,
          "internalType": "uint256",
          "name": "playerid",
          "type": "uint256"
        }
      ],
      "name": "PlayerStatusChanged",
      "type": "event"
    },
    {
      "inputs": [
        {
          "internalType": "uint256",
          "name": "",
          "type": "uint256"
        }
      ],
      "name": "DAILY_MOVES_FOR_LEVELS",
      "outputs": [
        {
          "internalType": "uint256",
          "name": "",
          "type": "uint256"
        }
      ],
      "stateMutability": "view",
      "type": "function"
    },
    {
      "inputs": [
        {
          "internalType": "uint256",
          "name": "",
          "type": "uint256"
        }
      ],
      "name": "DOTS_REQUIRED_FOR_LEVELS",
      "outputs": [
        {
          "internalType": "uint256",
          "name": "",
          "type": "uint256"
        }
      ],
      "stateMutability": "view",
      "type": "function"
    },
    {
      "inputs": [],
      "name": "GAME_ENDED",
      "outputs": [
        {
          "internalType": "enum Ending",
          "name": "",
          "type": "uint8"
        }
      ],
      "stateMutability": "view",
      "type": "function"
    },
    {
      "inputs": [
        {
          "internalType": "uint256",
          "name": "playerid",
          "type": "uint256"
        },
        {
          "internalType": "uint256",
          "name": "shieldsecond",
          "type": "uint256"
        }
      ],
      "name": "_addShieldTime",
      "outputs": [],
      "stateMutability": "nonpayable",
      "type": "function"
    },
    {
      "inputs": [
        {
          "internalType": "uint256",
          "name": "playerid",
          "type": "uint256"
        }
      ],
      "name": "_getPlayerIdAddress",
      "outputs": [
        {
          "internalType": "address",
          "name": "",
          "type": "address"
        }
      ],
      "stateMutability": "view",
      "type": "function"
    },
    {
      "inputs": [
        {
          "internalType": "address",
          "name": "",
          "type": "address"
        }
      ],
      "name": "allowedNFTContracts",
      "outputs": [
        {
          "internalType": "bool",
          "name": "",
          "type": "bool"
        }
      ],
      "stateMutability": "view",
      "type": "function"
    },
    {
      "inputs": [
        {
          "internalType": "address",
          "name": "",
          "type": "address"
        }
      ],
      "name": "allowedOperators",
      "outputs": [
        {
          "internalType": "bool",
          "name": "",
          "type": "bool"
        }
      ],
      "stateMutability": "view",
      "type": "function"
    },
    {
      "inputs": [
        {
          "internalType": "uint256",
          "name": "playerid",
          "type": "uint256"
        },
        {
          "internalType": "uint256",
          "name": "shieldhours",
          "type": "uint256"
        }
      ],
      "name": "buyShield",
      "outputs": [],
      "stateMutability": "payable",
      "type": "function"
    },
    {
      "inputs": [
        {
          "internalType": "address",
          "name": "nftContract",
          "type": "address"
        },
        {
          "internalType": "uint256",
          "name": "tokenId",
          "type": "uint256"
        }
      ],
      "name": "checkPlayerId",
      "outputs": [
        {
          "internalType": "uint256",
          "name": "",
          "type": "uint256"
        }
      ],
      "stateMutability": "view",
      "type": "function"
    },
    {
      "inputs": [],
      "name": "eliminationModeOn",
      "outputs": [
        {
          "internalType": "bool",
          "name": "",
          "type": "bool"
        }
      ],
      "stateMutability": "view",
      "type": "function"
    },
    {
      "inputs": [
        {
          "internalType": "address",
          "name": "nftContract",
          "type": "address"
        },
        {
          "internalType": "uint256",
          "name": "tokenId",
          "type": "uint256"
        },
        {
          "internalType": "uint8",
          "name": "maze",
          "type": "uint8"
        },
        {
          "internalType": "uint8",
          "name": "x",
          "type": "uint8"
        },
        {
          "internalType": "uint8",
          "name": "y",
          "type": "uint8"
        }
      ],
      "name": "enterGame",
      "outputs": [],
      "stateMutability": "nonpayable",
      "type": "function"
    },
    {
      "inputs": [
        {
          "internalType": "uint256",
          "name": "playerid",
          "type": "uint256"
        },
        {
          "internalType": "uint256",
          "name": "destination_playerid",
          "type": "uint256"
        }
      ],
      "name": "forfeit",
      "outputs": [],
      "stateMutability": "nonpayable",
      "type": "function"
    },
    {
      "inputs": [
        {
          "internalType": "enum Game.ConfigKey",
          "name": "key",
          "type": "uint8"
        }
      ],
      "name": "getConfigUint",
      "outputs": [
        {
          "internalType": "uint256",
          "name": "",
          "type": "uint256"
        }
      ],
      "stateMutability": "view",
      "type": "function"
    },
    {
      "inputs": [],
      "name": "level3DotsLocked",
      "outputs": [
        {
          "internalType": "uint256",
          "name": "",
          "type": "uint256"
        }
      ],
      "stateMutability": "view",
      "type": "function"
    },
    {
      "inputs": [],
      "name": "level4DotsLocked",
      "outputs": [
        {
          "internalType": "uint256",
          "name": "",
          "type": "uint256"
        }
      ],
      "stateMutability": "view",
      "type": "function"
    },
    {
      "inputs": [
        {
          "internalType": "uint256",
          "name": "playerid",
          "type": "uint256"
        }
      ],
      "name": "lockIn",
      "outputs": [],
      "stateMutability": "nonpayable",
      "type": "function"
    },
    {
      "inputs": [],
      "name": "mazeContract",
      "outputs": [
        {
          "internalType": "contract Maze",
          "name": "",
          "type": "address"
        }
      ],
      "stateMutability": "view",
      "type": "function"
    },
    {
      "inputs": [
        {
          "internalType": "uint256",
          "name": "playerid",
          "type": "uint256"
        },
        {
          "internalType": "uint8",
          "name": "maze",
          "type": "uint8"
        },
        {
          "internalType": "uint8",
          "name": "x",
          "type": "uint8"
        },
        {
          "internalType": "uint8",
          "name": "y",
          "type": "uint8"
        }
      ],
      "name": "movePlayerTo",
      "outputs": [],
      "stateMutability": "payable",
      "type": "function"
    },
    {
      "inputs": [],
      "name": "next_player_id",
      "outputs": [
        {
          "internalType": "uint256",
          "name": "",
          "type": "uint256"
        }
      ],
      "stateMutability": "view",
      "type": "function"
    },
    {
      "inputs": [
        {
          "internalType": "address",
          "name": "",
          "type": "address"
        },
        {
          "internalType": "uint256",
          "name": "",
          "type": "uint256"
        }
      ],
      "name": "nft_to_playerid",
      "outputs": [
        {
          "internalType": "uint256",
          "name": "",
          "type": "uint256"
        }
      ],
      "stateMutability": "view",
      "type": "function"
    },
    {
      "inputs": [],
      "name": "owner",
      "outputs": [
        {
          "internalType": "address",
          "name": "",
          "type": "address"
        }
      ],
      "stateMutability": "view",
      "type": "function"
    },
    {
      "inputs": [
        {
          "internalType": "uint256",
          "name": "playerid",
          "type": "uint256"
        },
        {
          "internalType": "address",
          "name": "addr",
          "type": "address"
        }
      ],
      "name": "ownsNft",
      "outputs": [
        {
          "internalType": "bool",
          "name": "",
          "type": "bool"
        }
      ],
      "stateMutability": "view",
      "type": "function"
    },
    {
      "inputs": [
        {
          "internalType": "uint256",
          "name": "playerid",
          "type": "uint256"
        }
      ],
      "name": "playerActive",
      "outputs": [
        {
          "internalType": "bool",
          "name": "",
          "type": "bool"
        }
      ],
      "stateMutability": "view",
      "type": "function"
    },
    {
      "inputs": [
        {
          "internalType": "uint256",
          "name": "",
          "type": "uint256"
        }
      ],
      "name": "players",
      "outputs": [
        {
          "components": [
            {
              "internalType": "uint8",
              "name": "x",
              "type": "uint8"
            },
            {
              "internalType": "uint8",
              "name": "y",
              "type": "uint8"
            },
            {
              "internalType": "uint8",
              "name": "maze",
              "type": "uint8"
            }
          ],
          "internalType": "struct PlayerPosition",
          "name": "playerposition",
          "type": "tuple"
        },
        {
          "internalType": "uint256",
          "name": "dots",
          "type": "uint256"
        },
        {
          "internalType": "uint256",
          "name": "level",
          "type": "uint256"
        },
        {
          "internalType": "uint256",
          "name": "nextMoveTime",
          "type": "uint256"
        },
        {
          "internalType": "uint256",
          "name": "nextSwitchMazeTime",
          "type": "uint256"
        },
        {
          "internalType": "uint256",
          "name": "shieldExpireTime",
          "type": "uint256"
        },
        {
          "internalType": "uint256",
          "name": "protectionExpireTime",
          "type": "uint256"
        },
        {
          "internalType": "uint256",
          "name": "vulnerableTime",
          "type": "uint256"
        },
        {
          "internalType": "address",
          "name": "nftContract",
          "type": "address"
        },
        {
          "internalType": "uint256",
          "name": "tokenId",
          "type": "uint256"
        },
        {
          "components": [
            {
              "internalType": "uint256",
              "name": "day",
              "type": "uint256"
            },
            {
              "internalType": "uint256",
              "name": "move",
              "type": "uint256"
            }
          ],
          "internalType": "struct DailyMove",
          "name": "moveInfo",
          "type": "tuple"
        },
        {
          "internalType": "enum PlayerStatus",
          "name": "status",
          "type": "uint8"
        }
      ],
      "stateMutability": "view",
      "type": "function"
    },
    {
      "inputs": [],
      "name": "renounceOwnership",
      "outputs": [],
      "stateMutability": "nonpayable",
      "type": "function"
    },
    {
      "inputs": [],
      "name": "rewardContract",
      "outputs": [
        {
          "internalType": "contract Reward",
          "name": "",
          "type": "address"
        }
      ],
      "stateMutability": "view",
      "type": "function"
    },
    {
      "inputs": [
        {
          "internalType": "uint256",
          "name": "attacker_playerid",
          "type": "uint256"
        },
        {
          "internalType": "uint256",
          "name": "victim_playerid",
          "type": "uint256"
        }
      ],
      "name": "rob",
      "outputs": [],
      "stateMutability": "nonpayable",
      "type": "function"
    },
    {
      "inputs": [
        {
          "internalType": "address",
          "name": "nftContract",
          "type": "address"
        },
        {
          "internalType": "bool",
          "name": "isAllowed",
          "type": "bool"
        }
      ],
      "name": "setAllowedNFTContract",
      "outputs": [],
      "stateMutability": "nonpayable",
      "type": "function"
    },
    {
      "inputs": [
        {
          "internalType": "enum Game.ConfigKey",
          "name": "key",
          "type": "uint8"
        },
        {
          "internalType": "uint256",
          "name": "value",
          "type": "uint256"
        }
      ],
      "name": "setConfigUint",
      "outputs": [],
      "stateMutability": "nonpayable",
      "type": "function"
    },
    {
      "inputs": [
        {
          "internalType": "uint256",
          "name": "level",
          "type": "uint256"
        },
        {
          "internalType": "uint256",
          "name": "value",
          "type": "uint256"
        }
      ],
      "name": "setDailyMovesForLevel",
      "outputs": [],
      "stateMutability": "nonpayable",
      "type": "function"
    },
    {
      "inputs": [
        {
          "internalType": "uint256",
          "name": "level",
          "type": "uint256"
        },
        {
          "internalType": "uint256",
          "name": "value",
          "type": "uint256"
        }
      ],
      "name": "setDotsRequiredForLevel",
      "outputs": [],
      "stateMutability": "nonpayable",
      "type": "function"
    },
    {
      "inputs": [
        {
          "internalType": "address",
          "name": "_contract",
          "type": "address"
        }
      ],
      "name": "setMazeContract",
      "outputs": [],
      "stateMutability": "nonpayable",
      "type": "function"
    },
    {
      "inputs": [
        {
          "internalType": "address",
          "name": "_operator",
          "type": "address"
        },
        {
          "internalType": "bool",
          "name": "allowed",
          "type": "bool"
        }
      ],
      "name": "setOperator",
      "outputs": [],
      "stateMutability": "nonpayable",
      "type": "function"
    },
    {
      "inputs": [
        {
          "internalType": "address",
          "name": "_contract",
          "type": "address"
        }
      ],
      "name": "setRewardContract",
      "outputs": [],
      "stateMutability": "nonpayable",
      "type": "function"
    },
    {
      "inputs": [],
      "name": "toggleGame",
      "outputs": [],
      "stateMutability": "nonpayable",
      "type": "function"
    },
    {
      "inputs": [
        {
          "internalType": "address",
          "name": "newOwner",
          "type": "address"
        }
      ],
      "name": "transferOwnership",
      "outputs": [],
      "stateMutability": "nonpayable",
      "type": "function"
    },
    {
      "inputs": [],
      "name": "withdraw",
      "outputs": [],
      "stateMutability": "nonpayable",
      "type": "function"
    }
  ],
  "bytecode": "0x608060405260016006556000600a60006101000a81548160ff0219169083600481111561002f5761002e610614565b5b02179055506040518060c00160405280600061ffff168152602001600061ffff168152602001601561ffff168152602001605a61ffff16815260200160bd61ffff16815260200161076361ffff16815250600c906006610090929190610552565b506040518060c00160405280600060ff168152602001600a60ff168152602001600f60ff168152602001601460ff168152602001601960ff168152602001601e60ff16815250600d9060066100e69291906105a5565b506000600e60006101000a81548160ff02191690831515021790555034801561010e57600080fd5b5033600073ffffffffffffffffffffffffffffffffffffffff168173ffffffffffffffffffffffffffffffffffffffff16036101825760006040517f1e4fbdf70000000000000000000000000000000000000000000000000000000081526004016101799190610684565b60405180910390fd5b6101918161048e60201b60201c565b50603c600b600080600b8111156101ab576101aa610614565b5b600b8111156101bd576101bc610614565b5b815260200190815260200160002081905550600a600b60006001600b8111156101e9576101e8610614565b5b600b8111156101fb576101fa610614565b5b81526020019081526020016000208190555061a8c0600b60006002600b81111561022857610227610614565b5b600b81111561023a57610239610614565b5b81526020019081526020016000208190555062015180600b60006003600b81111561026857610267610614565b5b600b81111561027a57610279610614565b5b8152602001908152602001600020819055506203f480600b60006004600b8111156102a8576102a7610614565b5b600b8111156102ba576102b9610614565b5b81526020019081526020016000208190555066038d7ea4c68000600b60006005600b8111156102ec576102eb610614565b5b600b8111156102fe576102fd610614565b5b815260200190815260200160002081905550652d79883d2000600b60006006600b81111561032f5761032e610614565b5b600b81111561034157610340610614565b5b8152602001908152602001600020819055506003600b60006007600b81111561036d5761036c610614565b5b600b81111561037f5761037e610614565b5b8152602001908152602001600020819055506003600b60006008600b8111156103ab576103aa610614565b5b600b8111156103bd576103bc610614565b5b815260200190815260200160002081905550600a600b60006009600b8111156103e9576103e8610614565b5b600b8111156103fb576103fa610614565b5b815260200190815260200160002081905550600a600b6000600a600b81111561042757610426610614565b5b600b81111561043957610438610614565b5b815260200190815260200160002081905550610258600b6000600b8081111561046557610464610614565b5b600b81111561047757610476610614565b5b81526020019081526020016000208190555061069f565b60008060009054906101000a900473ffffffffffffffffffffffffffffffffffffffff169050816000806101000a81548173ffffffffffffffffffffffffffffffffffffffff021916908373ffffffffffffffffffffffffffffffffffffffff1602179055508173ffffffffffffffffffffffffffffffffffffffff168173ffffffffffffffffffffffffffffffffffffffff167f8be0079c531659141344cd1fd0a4f28419497f9722a3daafe3b4186f6b6457e060405160405180910390a35050565b828054828255906000526020600020908101928215610594579160200282015b82811115610593578251829061ffff16905591602001919060010190610572565b5b5090506105a191906105f7565b5090565b8280548282559060005260206000209081019282156105e6579160200282015b828111156105e5578251829060ff169055916020019190600101906105c5565b5b5090506105f391906105f7565b5090565b5b808211156106105760008160009055506001016105f8565b5090565b7f4e487b7100000000000000000000000000000000000000000000000000000000600052602160045260246000fd5b600073ffffffffffffffffffffffffffffffffffffffff82169050919050565b600061066e82610643565b9050919050565b61067e81610663565b82525050565b60006020820190506106996000830184610675565b92915050565b615e86806106ae6000396000f3fe60806040526004361061021a5760003560e01c80638da5cb5b11610123578063cb392393116100ab578063deef2a0e1161006f578063deef2a0e146107cd578063f10dcc6b1461080a578063f2fde38b14610826578063f44ca0911461084f578063f71d96cb1461086b5761021a565b8063cb392393146106d6578063ce01f1a4146106ff578063cec3344a1461072a578063cf5a0d4614610767578063d8691bff146107905761021a565b80639fed85ef116100f25780639fed85ef146105df578063a3e2030514610608578063a6674f8814610631578063bba01e491461066e578063c0f6ae97146106995761021a565b80638da5cb5b14610521578063949506f91461054c5780639c96fb20146105775780639fd6865e146105a25761021a565b80636579ee29116101a65780637159292c116101755780637159292c1461042a57806378dccede146104675780637b33d0de146104a45780637fd60e42146104e157806380df50a8146104f85761021a565b80636579ee29146103945780636ea69d62146103bd57806370d3133e146103e8578063715018a6146104135761021a565b806329ad77f9116101ed57806329ad77f9146102d95780633a1cafa8146103025780633ccfd60b1461032b57806351508f0a14610342578063558a72971461036b5761021a565b8063020e33961461021f5780630d601427146102485780631c9a88231461027157806327d3732a1461029c575b600080fd5b34801561022b57600080fd5b50610246600480360381019061024191906146ab565b6108b3565b005b34801561025457600080fd5b5061026f600480360381019061026a91906146ab565b6112b6565b005b34801561027d57600080fd5b506102866114e7565b60405161029391906146fa565b60405180910390f35b3480156102a857600080fd5b506102c360048036038101906102be9190614715565b6114ed565b6040516102d091906146fa565b60405180910390f35b3480156102e557600080fd5b5061030060048036038101906102fb91906147d9565b611511565b005b34801561030e57600080fd5b5061032960048036038101906103249190614854565b611c3d565b005b34801561033757600080fd5b50610340611c89565b005b34801561034e57600080fd5b5061036960048036038101906103649190614854565b611cda565b005b34801561037757600080fd5b50610392600480360381019061038d91906148b9565b611d26565b005b3480156103a057600080fd5b506103bb60048036038101906103b69190614715565b611d89565b005b3480156103c957600080fd5b506103d26121af565b6040516103df9190614958565b60405180910390f35b3480156103f457600080fd5b506103fd6121d5565b60405161040a9190614982565b60405180910390f35b34801561041f57600080fd5b506104286121e8565b005b34801561043657600080fd5b50610451600480360381019061044c919061499d565b6121fc565b60405161045e9190614982565b60405180910390f35b34801561047357600080fd5b5061048e600480360381019061048991906149dd565b6122fa565b60405161049b91906146fa565b60405180910390f35b3480156104b057600080fd5b506104cb60048036038101906104c69190614715565b612355565b6040516104d89190614a2c565b60405180910390f35b3480156104ed57600080fd5b506104f661242f565b005b34801561050457600080fd5b5061051f600480360381019061051a91906148b9565b61250b565b005b34801561052d57600080fd5b506105366125bc565b6040516105439190614a2c565b60405180910390f35b34801561055857600080fd5b506105616125e5565b60405161056e9190614a68565b60405180910390f35b34801561058357600080fd5b5061058c61260b565b6040516105999190614afa565b60405180910390f35b3480156105ae57600080fd5b506105c960048036038101906105c49190614715565b61261e565b6040516105d691906146fa565b60405180910390f35b3480156105eb57600080fd5b5061060660048036038101906106019190614b3a565b612642565b005b34801561061457600080fd5b5061062f600480360381019061062a91906146ab565b61274b565b005b34801561063d57600080fd5b5061065860048036038101906106539190614854565b61277a565b6040516106659190614982565b60405180910390f35b34801561067a57600080fd5b5061068361279a565b60405161069091906146fa565b60405180910390f35b3480156106a557600080fd5b506106c060048036038101906106bb9190614854565b6127a0565b6040516106cd9190614982565b60405180910390f35b3480156106e257600080fd5b506106fd60048036038101906106f891906146ab565b6127c0565b005b34801561070b57600080fd5b506107146127ef565b60405161072191906146fa565b60405180910390f35b34801561073657600080fd5b50610751600480360381019061074c91906149dd565b6127f5565b60405161075e91906146fa565b60405180910390f35b34801561077357600080fd5b5061078e600480360381019061078991906146ab565b61281a565b005b34801561079c57600080fd5b506107b760048036038101906107b29190614715565b612b51565b6040516107c49190614982565b60405180910390f35b3480156107d957600080fd5b506107f460048036038101906107ef9190614b7a565b612ba5565b60405161080191906146fa565b60405180910390f35b610824600480360381019061081f91906146ab565b612be6565b005b34801561083257600080fd5b5061084d60048036038101906108489190614854565b612c9a565b005b61086960048036038101906108649190614ba7565b612d20565b005b34801561087757600080fd5b50610892600480360381019061088d9190614715565b61366c565b6040516108aa9c9b9a99989796959493929190614ce5565b60405180910390f35b600060048111156108c7576108c6614a83565b5b600a60009054906101000a900460ff1660048111156108e9576108e8614a83565b5b14610929576040517f08c379a000000000000000000000000000000000000000000000000000000000815260040161092090614dfe565b60405180910390fd5b61093382336121fc565b61093c57600080fd5b6000600760008481526020019081526020016000209050600060076000848152602001908152602001600020905060008160000160000160009054906101000a900460ff16905060008260000160000160019054906101000a900460ff16905060008360000160000160029054906101000a900460ff16905060008560000160000160009054906101000a900460ff16905060008660000160000160019054906101000a900460ff16905060008660000160000160029054906101000a900460ff169050600487600101541015610a1257600080fd5b600460009054906101000a900473ffffffffffffffffffffffffffffffffffffffff1673ffffffffffffffffffffffffffffffffffffffff16637fef46f58787876040518463ffffffff1660e01b8152600401610a7193929190614e2d565b602060405180830381865afa158015610a8e573d6000803e3d6000fd5b505050506040513d601f19601f82011682018060405250810190610ab29190614e79565b610af1576040517f08c379a0000000000000000000000000000000000000000000000000000000008152600401610ae890614ef2565b60405180910390fd5b8060ff168460ff16148015610b0e5750610b0d86868585613778565b5b610b4d576040517f08c379a0000000000000000000000000000000000000000000000000000000008152600401610b4490614ef2565b60405180910390fd5b866005015442118015610b635750866006015442115b80610b715750866007015442105b610bb0576040517f08c379a0000000000000000000000000000000000000000000000000000000008152600401610ba790614f5e565b60405180910390fd5b600b60006002600b811115610bc857610bc7614a83565b5b600b811115610bda57610bd9614a83565b5b81526020019081526020016000205442610bf49190614fad565b8760060181905550600060646063600b60006009600b811115610c1a57610c19614a83565b5b600b811115610c2c57610c2b614a83565b5b8152602001908152602001600020548a60010154610c4a9190614fe1565b610c549190614fad565b610c5e9190615052565b90506000600760008c8152602001908152602001600020600701819055506000600460009054906101000a900473ffffffffffffffffffffffffffffffffffffffff1673ffffffffffffffffffffffffffffffffffffffff1663d2e80879878a60018b610ccb9190615083565b6040518463ffffffff1660e01b8152600401610ce993929190614e2d565b602060405180830381865afa158015610d06573d6000803e3d6000fd5b505050506040513d601f19601f82011682018060405250810190610d2a91906150cd565b1115610df957610d438a82610d3e90615104565b613796565b610df8600460009054906101000a900473ffffffffffffffffffffffffffffffffffffffff1673ffffffffffffffffffffffffffffffffffffffff1663d2e80879878a60018b610d939190615083565b6040518463ffffffff1660e01b8152600401610db193929190614e2d565b602060405180830381865afa158015610dce573d6000803e3d6000fd5b505050506040513d601f19601f82011682018060405250810190610df291906150cd565b82613796565b5b6000600460009054906101000a900473ffffffffffffffffffffffffffffffffffffffff1673ffffffffffffffffffffffffffffffffffffffff1663d2e80879878a60018b610e48919061514c565b6040518463ffffffff1660e01b8152600401610e6693929190614e2d565b602060405180830381865afa158015610e83573d6000803e3d6000fd5b505050506040513d601f19601f82011682018060405250810190610ea791906150cd565b1115610f7657610ec08a82610ebb90615104565b613796565b610f75600460009054906101000a900473ffffffffffffffffffffffffffffffffffffffff1673ffffffffffffffffffffffffffffffffffffffff1663d2e80879878a60018b610f10919061514c565b6040518463ffffffff1660e01b8152600401610f2e93929190614e2d565b602060405180830381865afa158015610f4b573d6000803e3d6000fd5b505050506040513d601f19601f82011682018060405250810190610f6f91906150cd565b82613796565b5b6000600460009054906101000a900473ffffffffffffffffffffffffffffffffffffffff1673ffffffffffffffffffffffffffffffffffffffff1663d2e808798760018b610fc49190615083565b8a6040518463ffffffff1660e01b8152600401610fe393929190614e2d565b602060405180830381865afa158015611000573d6000803e3d6000fd5b505050506040513d601f19601f8201168201806040525081019061102491906150cd565b11156110f35761103d8a8261103890615104565b613796565b6110f2600460009054906101000a900473ffffffffffffffffffffffffffffffffffffffff1673ffffffffffffffffffffffffffffffffffffffff1663d2e808798760018b61108c9190615083565b8a6040518463ffffffff1660e01b81526004016110ab93929190614e2d565b602060405180830381865afa1580156110c8573d6000803e3d6000fd5b505050506040513d601f19601f820116820180604052508101906110ec91906150cd565b82613796565b5b6000600460009054906101000a900473ffffffffffffffffffffffffffffffffffffffff1673ffffffffffffffffffffffffffffffffffffffff1663d2e808798760018b611141919061514c565b8a6040518463ffffffff1660e01b815260040161116093929190614e2d565b602060405180830381865afa15801561117d573d6000803e3d6000fd5b505050506040513d601f19601f820116820180604052508101906111a191906150cd565b1115611270576111ba8a826111b590615104565b613796565b61126f600460009054906101000a900473ffffffffffffffffffffffffffffffffffffffff1673ffffffffffffffffffffffffffffffffffffffff1663d2e808798760018b611209919061514c565b8a6040518463ffffffff1660e01b815260040161122893929190614e2d565b602060405180830381865afa158015611245573d6000803e3d6000fd5b505050506040513d601f19601f8201168201806040525081019061126991906150cd565b82613796565b5b7f039acdbcd12dc628ff78fef26945113fc3d9ca7dcca364e7d7807178768266ad8b8b6040516112a1929190615181565b60405180910390a15050505050505050505050565b6112c082336121fc565b6112c957600080fd5b600060048111156112dd576112dc614a83565b5b600a60009054906101000a900460ff1660048111156112ff576112fe614a83565b5b1461133f576040517f08c379a0000000000000000000000000000000000000000000000000000000008152600401611336906151f6565b60405180910390fd5b80820361134b57600080fd5b6001600481111561135f5761135e614a83565b5b60076000848152602001908152602001600020600c0160009054906101000a900460ff16600481111561139557611394614a83565b5b1480156113e95750600160048111156113b1576113b0614a83565b5b60076000838152602001908152602001600020600c0160009054906101000a900460ff1660048111156113e7576113e6614a83565b5b145b611428576040517f08c379a000000000000000000000000000000000000000000000000000000000815260040161141f90615262565b60405180910390fd5b600060076000848152602001908152602001600020600101549050600360076000858152602001908152602001600020600c0160006101000a81548160ff0219169083600481111561147d5761147c614a83565b5b0217905550611495838261149090615104565b613796565b61149f8282613796565b6114a8836138f7565b7f225f3b692ac11cdafcafb064a6e0d96cb25948e1d431d5f5e2dfd3dea63896066003846040516114da929190615282565b60405180910390a1505050565b60085481565b600c81815481106114fd57600080fd5b906000526020600020016000915090505481565b60008590506000600481111561152a57611529614a83565b5b600a60009054906101000a900460ff16600481111561154c5761154b614a83565b5b1480156115665750600e60009054906101000a900460ff16155b6115a5576040517f08c379a000000000000000000000000000000000000000000000000000000000815260040161159c90614ef2565b60405180910390fd5b600160008773ffffffffffffffffffffffffffffffffffffffff1673ffffffffffffffffffffffffffffffffffffffff16815260200190815260200160002060009054906101000a900460ff16611631576040517f08c379a0000000000000000000000000000000000000000000000000000000008152600401611628906152f7565b60405180910390fd5b3373ffffffffffffffffffffffffffffffffffffffff168173ffffffffffffffffffffffffffffffffffffffff16636352211e876040518263ffffffff1660e01b815260040161168191906146fa565b602060405180830381865afa15801561169e573d6000803e3d6000fd5b505050506040513d601f19601f820116820180604052508101906116c2919061532c565b73ffffffffffffffffffffffffffffffffffffffff1614611718576040517f08c379a000000000000000000000000000000000000000000000000000000000815260040161170f906153a5565b60405180910390fd5b6000600560008873ffffffffffffffffffffffffffffffffffffffff1673ffffffffffffffffffffffffffffffffffffffff168152602001908152602001600020600087815260200190815260200160002054146117ab576040517f08c379a00000000000000000000000000000000000000000000000000000000081526004016117a290615411565b60405180910390fd5b6000600460009054906101000a900473ffffffffffffffffffffffffffffffffffffffff1673ffffffffffffffffffffffffffffffffffffffff1663d2e808798686866040518463ffffffff1660e01b815260040161180c93929190614e2d565b602060405180830381865afa158015611829573d6000803e3d6000fd5b505050506040513d601f19601f8201168201806040525081019061184d91906150cd565b1461185757600080fd5b600654600560008873ffffffffffffffffffffffffffffffffffffffff1673ffffffffffffffffffffffffffffffffffffffff16815260200190815260200160002060008781526020019081526020016000208190555060405180610180016040528060405180606001604052808660ff1681526020018560ff1681526020018760ff1681525081526020016000815260200160018152602001600b600080600b81111561190857611907614a83565b5b600b81111561191a57611919614a83565b5b815260200190815260200160002054426119349190614fad565b8152602001600b60006004600b81111561195157611950614a83565b5b600b81111561196357611962614a83565b5b8152602001908152602001600020544261197d9190614fad565b81526020016000815260200160008152602001600081526020018773ffffffffffffffffffffffffffffffffffffffff16815260200186815260200160405180604001604052806000815260200160008152508152602001600160048111156119e9576119e8614a83565b5b81525060076000600654815260200190815260200160002060008201518160000160008201518160000160006101000a81548160ff021916908360ff16021790555060208201518160000160016101000a81548160ff021916908360ff16021790555060408201518160000160026101000a81548160ff021916908360ff16021790555050506020820151816001015560408201518160020155606082015181600301556080820151816004015560a0820151816005015560c0820151816006015560e082015181600701556101008201518160080160006101000a81548173ffffffffffffffffffffffffffffffffffffffff021916908373ffffffffffffffffffffffffffffffffffffffff160217905550610120820151816009015561014082015181600a016000820151816000015560208201518160010155505061016082015181600c0160006101000a81548160ff02191690836004811115611b5457611b53614a83565b5b02179055509050503373ffffffffffffffffffffffffffffffffffffffff16858773ffffffffffffffffffffffffffffffffffffffff167fa9894c605a4e71658774ce8b7875aec503c277b93e274f8788c1fce5f896bc74600654604051611bbc91906146fa565b60405180910390a47f225f3b692ac11cdafcafb064a6e0d96cb25948e1d431d5f5e2dfd3dea63896066001600654604051611bf8929190615282565b60405180910390a1611c108484846006546001613ada565b611c1b600654613ce1565b600160066000828254611c2e9190614fad565b92505081905550505050505050565b611c45613e21565b80600460006101000a81548173ffffffffffffffffffffffffffffffffffffffff021916908373ffffffffffffffffffffffffffffffffffffffff16021790555050565b611c91613e21565b3373ffffffffffffffffffffffffffffffffffffffff166108fc479081150290604051600060405180830381858888f19350505050158015611cd7573d6000803e3d6000fd5b50565b611ce2613e21565b80600360006101000a81548173ffffffffffffffffffffffffffffffffffffffff021916908373ffffffffffffffffffffffffffffffffffffffff16021790555050565b611d2e613e21565b80600260008473ffffffffffffffffffffffffffffffffffffffff1673ffffffffffffffffffffffffffffffffffffffff16815260200190815260200160002060006101000a81548160ff0219169083151502179055505050565b611d9381336121fc565b611d9c57600080fd5b60006004811115611db057611daf614a83565b5b600a60009054906101000a900460ff166004811115611dd257611dd1614a83565b5b14611ddc57600080fd5b60016004811115611df057611def614a83565b5b60076000838152602001908152602001600020600c0160009054906101000a900460ff166004811115611e2657611e25614a83565b5b14611e66576040517f08c379a0000000000000000000000000000000000000000000000000000000008152600401611e5d9061547d565b60405180910390fd5b600b60006007600b811115611e7e57611e7d614a83565b5b600b811115611e9057611e8f614a83565b5b81526020019081526020016000205460076000838152602001908152602001600020600201541015611ef7576040517f08c379a0000000000000000000000000000000000000000000000000000000008152600401611eee906154e9565b60405180910390fd5b600260076000838152602001908152602001600020600c0160006101000a81548160ff02191690836004811115611f3157611f30614a83565b5b02179055506000600760008381526020019081526020016000206001015490506000600760008481526020019081526020016000206002015490506003810361206c578160086000828254611f869190614fad565b92505081905550600360009054906101000a900473ffffffffffffffffffffffffffffffffffffffff1673ffffffffffffffffffffffffffffffffffffffff1663c6fca20b600360076000878152602001908152602001600020600901546007600088815260200190815260200160002060080160009054906101000a900473ffffffffffffffffffffffffffffffffffffffff166040518463ffffffff1660e01b815260040161203993929190615544565b600060405180830381600087803b15801561205357600080fd5b505af1158015612067573d6000803e3d6000fd5b505050505b600481036121265781600960008282546120869190614fad565b92505081905550600360009054906101000a900473ffffffffffffffffffffffffffffffffffffffff1673ffffffffffffffffffffffffffffffffffffffff16636f9fd2fc6120d485612355565b60046040518363ffffffff1660e01b81526004016120f39291906155b6565b600060405180830381600087803b15801561210d57600080fd5b505af1158015612121573d6000803e3d6000fd5b505050505b7f225f3b692ac11cdafcafb064a6e0d96cb25948e1d431d5f5e2dfd3dea6389606600284604051612158929190615282565b60405180910390a17f96471c5c697a4607b045eea2a27fa36868cf52b83096e1d665e58535386dfc7f8282604051612191929190615181565b60405180910390a16121a2836138f7565b6121aa613ea8565b505050565b600360009054906101000a900473ffffffffffffffffffffffffffffffffffffffff1681565b600e60009054906101000a900460ff1681565b6121f0613e21565b6121fa6000614028565b565b60008173ffffffffffffffffffffffffffffffffffffffff166007600085815260200190815260200160002060080160009054906101000a900473ffffffffffffffffffffffffffffffffffffffff1673ffffffffffffffffffffffffffffffffffffffff16636352211e60076000878152602001908152602001600020600901546040518263ffffffff1660e01b815260040161229a91906146fa565b602060405180830381865afa1580156122b7573d6000803e3d6000fd5b505050506040513d601f19601f820116820180604052508101906122db919061532c565b73ffffffffffffffffffffffffffffffffffffffff1614905092915050565b6000600560008473ffffffffffffffffffffffffffffffffffffffff1673ffffffffffffffffffffffffffffffffffffffff168152602001908152602001600020600083815260200190815260200160002054905092915050565b6000806007600084815260200190815260200160002060080160009054906101000a900473ffffffffffffffffffffffffffffffffffffffff1690506000600760008581526020019081526020016000206009015490508173ffffffffffffffffffffffffffffffffffffffff16636352211e826040518263ffffffff1660e01b81526004016123e591906146fa565b602060405180830381865afa158015612402573d6000803e3d6000fd5b505050506040513d601f19601f82011682018060405250810190612426919061532c565b92505050919050565b612437613e21565b6000600481111561244b5761244a614a83565b5b600a60009054906101000a900460ff16600481111561246d5761246c614a83565b5b036124a2576004600a60006101000a81548160ff0219169083600481111561249857612497614a83565b5b0217905550612509565b6004808111156124b5576124b4614a83565b5b600a60009054906101000a900460ff1660048111156124d7576124d6614a83565b5b03612508576000600a60006101000a81548160ff0219169083600481111561250257612501614a83565b5b02179055505b5b565b612513613e21565b80600160008473ffffffffffffffffffffffffffffffffffffffff1673ffffffffffffffffffffffffffffffffffffffff16815260200190815260200160002060006101000a81548160ff0219169083151502179055508173ffffffffffffffffffffffffffffffffffffffff167fab7ee07d6fcd55d3521af17f0fc9a09487385d36c421d23bdd1eac42e532043c826040516125b09190614982565b60405180910390a25050565b60008060009054906101000a900473ffffffffffffffffffffffffffffffffffffffff16905090565b600460009054906101000a900473ffffffffffffffffffffffffffffffffffffffff1681565b600a60009054906101000a900460ff1681565b600d818154811061262e57600080fd5b906000526020600020016000915090505481565b600260003373ffffffffffffffffffffffffffffffffffffffff1673ffffffffffffffffffffffffffffffffffffffff16815260200190815260200160002060009054906101000a900460ff16806126cc575061269d6125bc565b73ffffffffffffffffffffffffffffffffffffffff163373ffffffffffffffffffffffffffffffffffffffff16145b61270b576040517f08c379a00000000000000000000000000000000000000000000000000000000081526004016127029061562b565b60405180910390fd5b80600b600084600b81111561272357612722614a83565b5b600b81111561273557612734614a83565b5b8152602001908152602001600020819055505050565b612753613e21565b80600c83815481106127685761276761564b565b5b90600052602060002001819055505050565b60026020528060005260406000206000915054906101000a900460ff1681565b60065481565b60016020528060005260406000206000915054906101000a900460ff1681565b6127c8613e21565b80600d83815481106127dd576127dc61564b565b5b90600052602060002001819055505050565b60095481565b6005602052816000526040600020602052806000526040600020600091509150505481565b600260003373ffffffffffffffffffffffffffffffffffffffff1673ffffffffffffffffffffffffffffffffffffffff16815260200190815260200160002060009054906101000a900460ff16806128a457506128756125bc565b73ffffffffffffffffffffffffffffffffffffffff163373ffffffffffffffffffffffffffffffffffffffff16145b6128e3576040517f08c379a00000000000000000000000000000000000000000000000000000000081526004016128da9061562b565b60405180910390fd5b600060048111156128f7576128f6614a83565b5b600a60009054906101000a900460ff16600481111561291957612918614a83565b5b14612959576040517f08c379a000000000000000000000000000000000000000000000000000000000815260040161295090614dfe565b60405180910390fd5b600b60006003600b81111561297157612970614a83565b5b600b81111561298357612982614a83565b5b8152602001908152602001600020544261299d9190614fad565b8160076000858152602001908152602001600020600501546129bf9190614fad565b1115612a00576040517f08c379a00000000000000000000000000000000000000000000000000000000081526004016129f7906156ec565b60405180910390fd5b600b60006003600b811115612a1857612a17614a83565b5b600b811115612a2a57612a29614a83565b5b815260200190815260200160002054811115612a7b576040517f08c379a0000000000000000000000000000000000000000000000000000000008152600401612a7290614ef2565b60405180910390fd5b600b60006008600b811115612a9357612a92614a83565b5b600b811115612aa557612aa4614a83565b5b81526020019081526020016000205460076000848152602001908152602001600020600201541015612ad657600080fd5b4260076000848152602001908152602001600020600501541115612b265780600760008481526020019081526020016000206005016000828254612b1a9190614fad565b92505081905550612b4d565b8042612b329190614fad565b60076000848152602001908152602001600020600501819055505b5050565b600060016004811115612b6757612b66614a83565b5b60076000848152602001908152602001600020600c0160009054906101000a900460ff166004811115612b9d57612b9c614a83565b5b149050919050565b6000600b600083600b811115612bbe57612bbd614a83565b5b600b811115612bd057612bcf614a83565b5b8152602001908152602001600020549050919050565b80600b60006006600b811115612bff57612bfe614a83565b5b600b811115612c1157612c10614a83565b5b815260200190815260200160002054612c2a9190614fe1565b341015612c6c576040517f08c379a0000000000000000000000000000000000000000000000000000000008152600401612c6390615758565b60405180910390fd5b612c7682336121fc565b612c7f57600080fd5b612c9682610e1083612c919190614fe1565b61281a565b5050565b612ca2613e21565b600073ffffffffffffffffffffffffffffffffffffffff168173ffffffffffffffffffffffffffffffffffffffff1603612d145760006040517f1e4fbdf7000000000000000000000000000000000000000000000000000000008152600401612d0b9190614a2c565b60405180910390fd5b612d1d81614028565b50565b60006004811115612d3457612d33614a83565b5b600a60009054906101000a900460ff166004811115612d5657612d55614a83565b5b14612d96576040517f08c379a0000000000000000000000000000000000000000000000000000000008152600401612d8d90614dfe565b60405180910390fd5b42600760008681526020019081526020016000206003015410612dee576040517f08c379a0000000000000000000000000000000000000000000000000000000008152600401612de5906157c4565b60405180910390fd5b612df884336121fc565b612e0157600080fd5b60016004811115612e1557612e14614a83565b5b60076000868152602001908152602001600020600c0160009054906101000a900460ff166004811115612e4b57612e4a614a83565b5b14612e8b576040517f08c379a0000000000000000000000000000000000000000000000000000000008152600401612e829061547d565b60405180910390fd5b60006007600086815260200190815260200160002060000160000160009054906101000a900460ff16905060006007600087815260200190815260200160002060000160000160019054906101000a900460ff1690508460ff166007600088815260200190815260200160002060000160000160029054906101000a900460ff1660ff161461315f576000600460009054906101000a900473ffffffffffffffffffffffffffffffffffffffff1673ffffffffffffffffffffffffffffffffffffffff1663d2e808798787876040518463ffffffff1660e01b8152600401612f7593929190614e2d565b602060405180830381865afa158015612f92573d6000803e3d6000fd5b505050506040513d601f19601f82011682018060405250810190612fb691906150cd565b14612ff6576040517f08c379a0000000000000000000000000000000000000000000000000000000008152600401612fed90615830565b60405180910390fd5b60076000878152602001908152602001600020600401544211806130525750600b60006005600b81111561302d5761302c614a83565b5b600b81111561303f5761303e614a83565b5b8152602001908152602001600020543410155b613091576040517f08c379a00000000000000000000000000000000000000000000000000000000081526004016130889061589c565b60405180910390fd5b600b600080600b8111156130a8576130a7614a83565b5b600b8111156130ba576130b9614a83565b5b815260200190815260200160002054426130d49190614fad565b6007600088815260200190815260200160002060030181905550600b60006004600b81111561310657613105614a83565b5b600b81111561311857613117614a83565b5b815260200190815260200160002054426131329190614fad565b600760008881526020019081526020016000206004018190555061315a858585896001613ada565b6135e2565b6000600460009054906101000a900473ffffffffffffffffffffffffffffffffffffffff1673ffffffffffffffffffffffffffffffffffffffff1663d2e808798787876040518463ffffffff1660e01b81526004016131c093929190614e2d565b602060405180830381865afa1580156131dd573d6000803e3d6000fd5b505050506040513d601f19601f8201168201806040525081019061320191906150cd565b0361321957613214858585896000613ada565b613583565b6000600460009054906101000a900473ffffffffffffffffffffffffffffffffffffffff1673ffffffffffffffffffffffffffffffffffffffff1663d2e808798787876040518463ffffffff1660e01b815260040161327a93929190614e2d565b602060405180830381865afa158015613297573d6000803e3d6000fd5b505050506040513d601f19601f820116820180604052508101906132bb91906150cd565b9050600060646063600b60006009600b8111156132db576132da614a83565b5b600b8111156132ed576132ec614a83565b5b815260200190815260200160002054600760008681526020019081526020016000206001015461331d9190614fe1565b6133279190614fad565b6133319190615052565b90506007600083815260200190815260200160002060020154600760008a81526020019081526020016000206002015410156133a2576040517f08c379a000000000000000000000000000000000000000000000000000000000815260040161339990615908565b60405180910390fd5b60076000838152602001908152602001600020600501544211806133db5750600760008381526020019081526020016000206007015442105b61341a576040517f08c379a000000000000000000000000000000000000000000000000000000000815260040161341190615974565b60405180910390fd5b60076000838152602001908152602001600020600601544211806134535750600760008381526020019081526020016000206007015442105b613492576040517f08c379a0000000000000000000000000000000000000000000000000000000008152600401613489906159e0565b60405180910390fd5b600b60006002600b8111156134aa576134a9614a83565b5b600b8111156134bc576134bb614a83565b5b815260200190815260200160002054426134d69190614fad565b6007600084815260200190815260200160002060060181905550600060076000848152602001908152602001600020600701819055506135168882613796565b613529828261352490615104565b613796565b6135378787878b6000613ada565b613545878585856001613ada565b7f8e94011834e20398e9c758cc1be311eab76fd80b1e439bd2c59fc4ed3195a8b088838360405161357893929190615a00565b60405180910390a150505b600b60006001600b81111561359b5761359a614a83565b5b600b8111156135ad576135ac614a83565b5b815260200190815260200160002054426135c79190614fad565b60076000888152602001908152602001600020600301819055505b600b6000600b808111156135f9576135f8614a83565b5b600b81111561360b5761360a614a83565b5b815260200190815260200160002054426136259190614fad565b60076000888152602001908152602001600020600701819055506000600760008881526020019081526020016000206006018190555061366486613ce1565b505050505050565b6007602052806000526040600020600091509050806000016040518060600160405290816000820160009054906101000a900460ff1660ff1660ff1681526020016000820160019054906101000a900460ff1660ff1660ff1681526020016000820160029054906101000a900460ff1660ff1660ff1681525050908060010154908060020154908060030154908060040154908060050154908060060154908060070154908060080160009054906101000a900473ffffffffffffffffffffffffffffffffffffffff169080600901549080600a01604051806040016040529081600082015481526020016001820154815250509080600c0160009054906101000a900460ff1690508c565b60006001613788868686866140ec565b60ff16149050949350505050565b6000600760008481526020019081526020016000206001015490506000821215806137ca5750816137c690615104565b8110155b613809576040517f08c379a000000000000000000000000000000000000000000000000000000000815260040161380090615a83565b60405180910390fd5b6000821315806138445750807fffffffffffffffffffffffffffffffffffffffffffffffffffffffffffffffff6138409190615aa3565b8211155b613883576040517f08c379a000000000000000000000000000000000000000000000000000000000815260040161387a90615b23565b60405180910390fd5b818161388f9190615b43565b60076000858152602001908152602001600020600101819055506138b283614163565b6138ba6144a7565b827f3c4a2e2bac8926425dd3e4e1487869f1a441950df5336e151eada44d5550a11e836040516138ea9190615b96565b60405180910390a2505050565b600460009054906101000a900473ffffffffffffffffffffffffffffffffffffffff1673ffffffffffffffffffffffffffffffffffffffff16633b3188d56007600084815260200190815260200160002060000160000160029054906101000a900460ff166007600085815260200190815260200160002060000160000160009054906101000a900460ff166007600086815260200190815260200160002060000160000160019054906101000a900460ff1660006040518563ffffffff1660e01b81526004016139cb9493929190615bec565b600060405180830381600087803b1580156139e557600080fd5b505af11580156139f9573d6000803e3d6000fd5b50505050600060ff9050806007600084815260200190815260200160002060000160000160006101000a81548160ff021916908360ff160217905550806007600084815260200190815260200160002060000160000160016101000a81548160ff021916908360ff160217905550806007600084815260200190815260200160002060000160000160026101000a81548160ff021916908360ff1602179055507f6eaf6cd27015002a7e738b270d088d51e2be41e4a8729c7276157c1801c3d03f81828385604051613ace9493929190615c62565b60405180910390a15050565b6000600460009054906101000a900473ffffffffffffffffffffffffffffffffffffffff1673ffffffffffffffffffffffffffffffffffffffff1663cffd91268787876007600089815260200190815260200160002060000160000160029054906101000a900460ff16600760008a815260200190815260200160002060000160000160009054906101000a900460ff16600760008b815260200190815260200160002060000160000160019054906101000a900460ff168a8a6040518963ffffffff1660e01b8152600401613bb7989796959493929190615ca7565b6020604051808303816000875af1158015613bd6573d6000803e3d6000fd5b505050506040513d601f19601f82011682018060405250810190613bfa91906150cd565b9050846007600085815260200190815260200160002060000160000160006101000a81548160ff021916908360ff160217905550836007600085815260200190815260200160002060000160000160016101000a81548160ff021916908360ff160217905550856007600085815260200190815260200160002060000160000160026101000a81548160ff021916908360ff160217905550613c9c8382613796565b7f6eaf6cd27015002a7e738b270d088d51e2be41e4a8729c7276157c1801c3d03f86868686604051613cd19493929190615c62565b60405180910390a1505050505050565b60006201518042613cf29190615052565b905060076000838152602001908152602001600020600a01600001548103613ddf576000600d600760008581526020019081526020016000206002015481548110613d4057613d3f61564b565b5b906000526020600020015490508060076000858152602001908152602001600020600a016001015410613da8576040517f08c379a0000000000000000000000000000000000000000000000000000000008152600401613d9f906154e9565b60405180910390fd5b600160076000858152602001908152602001600020600a016001016000828254613dd29190614fad565b9250508190555050613e1d565b8060076000848152602001908152602001600020600a0160000181905550600160076000848152602001908152602001600020600a01600101819055505b5050565b613e29614668565b73ffffffffffffffffffffffffffffffffffffffff16613e476125bc565b73ffffffffffffffffffffffffffffffffffffffff1614613ea657613e6a614668565b6040517f118cdaa7000000000000000000000000000000000000000000000000000000008152600401613e9d9190614a2c565b60405180910390fd5b565b60006002600460009054906101000a900473ffffffffffffffffffffffffffffffffffffffff1673ffffffffffffffffffffffffffffffffffffffff1663b298d9116040518163ffffffff1660e01b8152600401602060405180830381865afa158015613f19573d6000803e3d6000fd5b505050506040513d601f19601f82011682018060405250810190613f3d91906150cd565b613f479190615052565b9050806008541115613fb7576001600a60006101000a81548160ff02191690836004811115613f7957613f78614a83565b5b02179055507fce24807f7e4b60b4e641462f13029fa5e5f79075bbc3f8e5cd43ecd19661d7606001604051613fae9190615d60565b60405180910390a15b806009541115614025576002600a60006101000a81548160ff02191690836004811115613fe757613fe6614a83565b5b02179055507fce24807f7e4b60b4e641462f13029fa5e5f79075bbc3f8e5cd43ecd19661d760600260405161401c9190615db6565b60405180910390a15b50565b60008060009054906101000a900473ffffffffffffffffffffffffffffffffffffffff169050816000806101000a81548173ffffffffffffffffffffffffffffffffffffffff021916908373ffffffffffffffffffffffffffffffffffffffff1602179055508173ffffffffffffffffffffffffffffffffffffffff168173ffffffffffffffffffffffffffffffffffffffff167f8be0079c531659141344cd1fd0a4f28419497f9722a3daafe3b4186f6b6457e060405160405180910390a35050565b6000808360ff168660ff161161410d5785846141089190615083565b61411a565b83866141199190615083565b5b905060008360ff168660ff161161413c5785846141379190615083565b614149565b83866141489190615083565b5b90508082614157919061514c565b92505050949350505050565b600060076000838152602001908152602001600020600101549050600c6005815481106141935761419261564b565b5b906000526020600020015481106142c057600560076000848152602001908152602001600020600201819055506003600a60006101000a81548160ff021916908360048111156141e6576141e5614a83565b5b0217905550600360009054906101000a900473ffffffffffffffffffffffffffffffffffffffff1673ffffffffffffffffffffffffffffffffffffffff16636f9fd2fc61423284612355565b60056040518363ffffffff1660e01b8152600401614251929190615e0c565b600060405180830381600087803b15801561426b57600080fd5b505af115801561427f573d6000803e3d6000fd5b505050507fce24807f7e4b60b4e641462f13029fa5e5f79075bbc3f8e5cd43ecd19661d76060036040516142b39190615e35565b60405180910390a16143b5565b600c6004815481106142d5576142d461564b565b5b9060005260206000200154811061430757600460076000848152602001908152602001600020600201819055506143b4565b600c60038154811061431c5761431b61564b565b5b9060005260206000200154811061434e57600360076000848152602001908152602001600020600201819055506143b3565b600c6002815481106143635761436261564b565b5b9060005260206000200154811061439557600260076000848152602001908152602001600020600201819055506143b2565b600160076000848152602001908152602001600020600201819055505b5b5b5b600e60009054906101000a900460ff1680156143d15750600081145b80156144245750600160048111156143ec576143eb614a83565b5b60076000848152602001908152602001600020600c0160009054906101000a900460ff16600481111561442257614421614a83565b5b145b156144a357600460076000848152602001908152602001600020600c0160006101000a81548160ff0219169083600481111561446357614462614a83565b5b02179055507f225f3b692ac11cdafcafb064a6e0d96cb25948e1d431d5f5e2dfd3dea638960660048360405161449a929190615282565b60405180910390a15b5050565b600460009054906101000a900473ffffffffffffffffffffffffffffffffffffffff1673ffffffffffffffffffffffffffffffffffffffff1663b298d9116040518163ffffffff1660e01b8152600401602060405180830381865afa158015614514573d6000803e3d6000fd5b505050506040513d601f19601f8201168201806040525081019061453891906150cd565b600460009054906101000a900473ffffffffffffffffffffffffffffffffffffffff1673ffffffffffffffffffffffffffffffffffffffff16638fd7b3846040518163ffffffff1660e01b8152600401602060405180830381865afa1580156145a5573d6000803e3d6000fd5b505050506040513d601f19601f820116820180604052508101906145c991906150cd565b03614666576001600e60006101000a81548160ff0219169083151502179055506064600b60006009600b81111561460357614602614a83565b5b600b81111561461557614614614a83565b5b8152602001908152602001600020819055506019600b6000600a600b81111561464157614640614a83565b5b600b81111561465357614652614a83565b5b8152602001908152602001600020819055505b565b600033905090565b600080fd5b6000819050919050565b61468881614675565b811461469357600080fd5b50565b6000813590506146a58161467f565b92915050565b600080604083850312156146c2576146c1614670565b5b60006146d085828601614696565b92505060206146e185828601614696565b9150509250929050565b6146f481614675565b82525050565b600060208201905061470f60008301846146eb565b92915050565b60006020828403121561472b5761472a614670565b5b600061473984828501614696565b91505092915050565b600073ffffffffffffffffffffffffffffffffffffffff82169050919050565b600061476d82614742565b9050919050565b61477d81614762565b811461478857600080fd5b50565b60008135905061479a81614774565b92915050565b600060ff82169050919050565b6147b6816147a0565b81146147c157600080fd5b50565b6000813590506147d3816147ad565b92915050565b600080600080600060a086880312156147f5576147f4614670565b5b60006148038882890161478b565b955050602061481488828901614696565b9450506040614825888289016147c4565b9350506060614836888289016147c4565b9250506080614847888289016147c4565b9150509295509295909350565b60006020828403121561486a57614869614670565b5b60006148788482850161478b565b91505092915050565b60008115159050919050565b61489681614881565b81146148a157600080fd5b50565b6000813590506148b38161488d565b92915050565b600080604083850312156148d0576148cf614670565b5b60006148de8582860161478b565b92505060206148ef858286016148a4565b9150509250929050565b6000819050919050565b600061491e61491961491484614742565b6148f9565b614742565b9050919050565b600061493082614903565b9050919050565b600061494282614925565b9050919050565b61495281614937565b82525050565b600060208201905061496d6000830184614949565b92915050565b61497c81614881565b82525050565b60006020820190506149976000830184614973565b92915050565b600080604083850312156149b4576149b3614670565b5b60006149c285828601614696565b92505060206149d38582860161478b565b9150509250929050565b600080604083850312156149f4576149f3614670565b5b6000614a028582860161478b565b9250506020614a1385828601614696565b9150509250929050565b614a2681614762565b82525050565b6000602082019050614a416000830184614a1d565b92915050565b6000614a5282614925565b9050919050565b614a6281614a47565b82525050565b6000602082019050614a7d6000830184614a59565b92915050565b7f4e487b7100000000000000000000000000000000000000000000000000000000600052602160045260246000fd5b60058110614ac357614ac2614a83565b5b50565b6000819050614ad482614ab2565b919050565b6000614ae482614ac6565b9050919050565b614af481614ad9565b82525050565b6000602082019050614b0f6000830184614aeb565b92915050565b600c8110614b2257600080fd5b50565b600081359050614b3481614b15565b92915050565b60008060408385031215614b5157614b50614670565b5b6000614b5f85828601614b25565b9250506020614b7085828601614696565b9150509250929050565b600060208284031215614b9057614b8f614670565b5b6000614b9e84828501614b25565b91505092915050565b60008060008060808587031215614bc157614bc0614670565b5b6000614bcf87828801614696565b9450506020614be0878288016147c4565b9350506040614bf1878288016147c4565b9250506060614c02878288016147c4565b91505092959194509250565b614c17816147a0565b82525050565b606082016000820151614c336000850182614c0e565b506020820151614c466020850182614c0e565b506040820151614c596040850182614c0e565b50505050565b614c6881614675565b82525050565b604082016000820151614c846000850182614c5f565b506020820151614c976020850182614c5f565b50505050565b60058110614cae57614cad614a83565b5b50565b6000819050614cbf82614c9d565b919050565b6000614ccf82614cb1565b9050919050565b614cdf81614cc4565b82525050565b60006101e082019050614cfb600083018f614c1d565b614d08606083018e6146eb565b614d15608083018d6146eb565b614d2260a083018c6146eb565b614d2f60c083018b6146eb565b614d3c60e083018a6146eb565b614d4a6101008301896146eb565b614d586101208301886146eb565b614d66610140830187614a1d565b614d746101608301866146eb565b614d82610180830185614c6e565b614d906101c0830184614cd6565b9d9c50505050505050505050505050565b600082825260208201905092915050565b7f47616d6520456e64656400000000000000000000000000000000000000000000600082015250565b6000614de8600a83614da1565b9150614df382614db2565b602082019050919050565b60006020820190508181036000830152614e1781614ddb565b9050919050565b614e27816147a0565b82525050565b6000606082019050614e426000830186614e1e565b614e4f6020830185614e1e565b614e5c6040830184614e1e565b949350505050565b600081519050614e738161488d565b92915050565b600060208284031215614e8f57614e8e614670565b5b6000614e9d84828501614e64565b91505092915050565b7f4e6f000000000000000000000000000000000000000000000000000000000000600082015250565b6000614edc600283614da1565b9150614ee782614ea6565b602082019050919050565b60006020820190508181036000830152614f0b81614ecf565b9050919050565b7f43616e27742041747461636b0000000000000000000000000000000000000000600082015250565b6000614f48600c83614da1565b9150614f5382614f12565b602082019050919050565b60006020820190508181036000830152614f7781614f3b565b9050919050565b7f4e487b7100000000000000000000000000000000000000000000000000000000600052601160045260246000fd5b6000614fb882614675565b9150614fc383614675565b9250828201905080821115614fdb57614fda614f7e565b5b92915050565b6000614fec82614675565b9150614ff783614675565b925082820261500581614675565b9150828204841483151761501c5761501b614f7e565b5b5092915050565b7f4e487b7100000000000000000000000000000000000000000000000000000000600052601260045260246000fd5b600061505d82614675565b915061506883614675565b92508261507857615077615023565b5b828204905092915050565b600061508e826147a0565b9150615099836147a0565b9250828203905060ff8111156150b2576150b1614f7e565b5b92915050565b6000815190506150c78161467f565b92915050565b6000602082840312156150e3576150e2614670565b5b60006150f1848285016150b8565b91505092915050565b6000819050919050565b600061510f826150fa565b91507f8000000000000000000000000000000000000000000000000000000000000000820361514157615140614f7e565b5b816000039050919050565b6000615157826147a0565b9150615162836147a0565b9250828201905060ff81111561517b5761517a614f7e565b5b92915050565b600060408201905061519660008301856146eb565b6151a360208301846146eb565b9392505050565b7f496e616374697665000000000000000000000000000000000000000000000000600082015250565b60006151e0600883614da1565b91506151eb826151aa565b602082019050919050565b6000602082019050818103600083015261520f816151d3565b9050919050565b7f4e41000000000000000000000000000000000000000000000000000000000000600082015250565b600061524c600283614da1565b915061525782615216565b602082019050919050565b6000602082019050818103600083015261527b8161523f565b9050919050565b60006040820190506152976000830185614cd6565b6152a460208301846146eb565b9392505050565b7f4e6f7420496e7669746564000000000000000000000000000000000000000000600082015250565b60006152e1600b83614da1565b91506152ec826152ab565b602082019050919050565b60006020820190508181036000830152615310816152d4565b9050919050565b60008151905061532681614774565b92915050565b60006020828403121561534257615341614670565b5b600061535084828501615317565b91505092915050565b7f4e6f74204f776e65720000000000000000000000000000000000000000000000600082015250565b600061538f600983614da1565b915061539a82615359565b602082019050919050565b600060208201905081810360008301526153be81615382565b9050919050565b7f5265676973746572656400000000000000000000000000000000000000000000600082015250565b60006153fb600a83614da1565b9150615406826153c5565b602082019050919050565b6000602082019050818103600083015261542a816153ee565b9050919050565b7f4e31000000000000000000000000000000000000000000000000000000000000600082015250565b6000615467600283614da1565b915061547282615431565b602082019050919050565b600060208201905081810360008301526154968161545a565b9050919050565b7f4d31000000000000000000000000000000000000000000000000000000000000600082015250565b60006154d3600283614da1565b91506154de8261549d565b602082019050919050565b60006020820190508181036000830152615502816154c6565b9050919050565b6000819050919050565b600061552e61552961552484615509565b6148f9565b614675565b9050919050565b61553e81615513565b82525050565b60006060820190506155596000830186615535565b61556660208301856146eb565b6155736040830184614a1d565b949350505050565b6000819050919050565b60006155a061559b6155968461557b565b6148f9565b614675565b9050919050565b6155b081615585565b82525050565b60006040820190506155cb6000830185614a1d565b6155d860208301846155a7565b9392505050565b7f4e6f7420616c6c6f776564000000000000000000000000000000000000000000600082015250565b6000615615600b83614da1565b9150615620826155df565b602082019050919050565b6000602082019050818103600083015261564481615608565b9050919050565b7f4e487b7100000000000000000000000000000000000000000000000000000000600052603260045260246000fd5b7f596f752063616e206f6e6c7920626520736869656c64656420666f722061206d60008201527f617820706572696f64206f662074696d65000000000000000000000000000000602082015250565b60006156d6603183614da1565b91506156e18261567a565b604082019050919050565b60006020820190508181036000830152615705816156c9565b9050919050565b7f4e6f7420656e6f75676820455448000000000000000000000000000000000000600082015250565b6000615742600e83614da1565b915061574d8261570c565b602082019050919050565b6000602082019050818103600083015261577181615735565b9050919050565b7f5761697400000000000000000000000000000000000000000000000000000000600082015250565b60006157ae600483614da1565b91506157b982615778565b602082019050919050565b600060208201905081810360008301526157dd816157a1565b9050919050565b7f4f63637570696564000000000000000000000000000000000000000000000000600082015250565b600061581a600883614da1565b9150615825826157e4565b602082019050919050565b600060208201905081810360008301526158498161580d565b9050919050565b7f50656e616c747900000000000000000000000000000000000000000000000000600082015250565b6000615886600783614da1565b915061589182615850565b602082019050919050565b600060208201905081810360008301526158b581615879565b9050919050565b7f4869676865722072616e6b656400000000000000000000000000000000000000600082015250565b60006158f2600d83614da1565b91506158fd826158bc565b602082019050919050565b60006020820190508181036000830152615921816158e5565b9050919050565b7f536869656c646564000000000000000000000000000000000000000000000000600082015250565b600061595e600883614da1565b915061596982615928565b602082019050919050565b6000602082019050818103600083015261598d81615951565b9050919050565b7f50726f7465637465640000000000000000000000000000000000000000000000600082015250565b60006159ca600983614da1565b91506159d582615994565b602082019050919050565b600060208201905081810360008301526159f9816159bd565b9050919050565b6000606082019050615a1560008301866146eb565b615a2260208301856146eb565b615a2f60408301846146eb565b949350505050565b7f4f31000000000000000000000000000000000000000000000000000000000000600082015250565b6000615a6d600283614da1565b9150615a7882615a37565b602082019050919050565b60006020820190508181036000830152615a9c81615a60565b9050919050565b6000615aae82614675565b9150615ab983614675565b9250828203905081811115615ad157615ad0614f7e565b5b92915050565b7f4f32000000000000000000000000000000000000000000000000000000000000600082015250565b6000615b0d600283614da1565b9150615b1882615ad7565b602082019050919050565b60006020820190508181036000830152615b3c81615b00565b9050919050565b6000615b4e826150fa565b9150615b59836150fa565b925082820190508281121560008312168382126000841215161715615b8157615b80614f7e565b5b92915050565b615b90816150fa565b82525050565b6000602082019050615bab6000830184615b87565b92915050565b6000819050919050565b6000615bd6615bd1615bcc84615bb1565b6148f9565b614675565b9050919050565b615be681615bbb565b82525050565b6000608082019050615c016000830187614e1e565b615c0e6020830186614e1e565b615c1b6040830185614e1e565b615c286060830184615bdd565b95945050505050565b6000615c4c615c47615c42846147a0565b6148f9565b614675565b9050919050565b615c5c81615c31565b82525050565b6000608082019050615c776000830187615c53565b615c846020830186615c53565b615c916040830185615c53565b615c9e60608301846146eb565b95945050505050565b600061010082019050615cbd600083018b614e1e565b615cca602083018a614e1e565b615cd76040830189614e1e565b615ce46060830188614e1e565b615cf16080830187614e1e565b615cfe60a0830186614e1e565b615d0b60c08301856146eb565b615d1860e0830184614973565b9998505050505050505050565b6000819050919050565b6000615d4a615d45615d4084615d25565b6148f9565b614675565b9050919050565b615d5a81615d2f565b82525050565b6000602082019050615d756000830184615d51565b92915050565b6000819050919050565b6000615da0615d9b615d9684615d7b565b6148f9565b614675565b9050919050565b615db081615d85565b82525050565b6000602082019050615dcb6000830184615da7565b92915050565b6000819050919050565b6000615df6615df1615dec84615dd1565b6148f9565b614675565b9050919050565b615e0681615ddb565b82525050565b6000604082019050615e216000830185614a1d565b615e2e6020830184615dfd565b9392505050565b6000602082019050615e4a6000830184615535565b9291505056fea2646970667358221220515224cda419df29ab5db1d37182d6018043b60c94e8b1ef2615430ecb4088f964736f6c634300081b0033",
  "linkReferences": {},
  "deployedLinkReferences": {}
}