{
  "_format": "hh-sol-artifact-1",
  "contractName": "TestNFT",
  "sourceName": "contracts/TestNFT.sol",
  "abi": [
    {
      "inputs": [],
      "stateMutability": "nonpayable",
      "type": "constructor"
    },
    {
      "inputs": [],
      "name": "ERC721EnumerableForbiddenBatchMint",
      "type": "error"
    },
    {
      "inputs": [
        {
          "internalType": "address",
          "name": "sender",
          "type": "address"
        },
        {
          "internalType": "uint256",
          "name": "tokenId",
          "type": "uint256"
        },
        {
          "internalType": "address",
          "name": "owner",
          "type": "address"
        }
      ],
      "name": "ERC721IncorrectOwner",
      "type": "error"
    },
    {
      "inputs": [
        {
          "internalType": "address",
          "name": "operator",
          "type": "address"
        },
        {
          "internalType": "uint256",
          "name": "tokenId",
          "type": "uint256"
        }
      ],
      "name": "ERC721InsufficientApproval",
      "type": "error"
    },
    {
      "inputs": [
        {
          "internalType": "address",
          "name": "approver",
          "type": "address"
        }
      ],
      "name": "ERC721InvalidApprover",
      "type": "error"
    },
    {
      "inputs": [
        {
          "internalType": "address",
          "name": "operator",
          "type": "address"
        }
      ],
      "name": "ERC721InvalidOperator",
      "type": "error"
    },
    {
      "inputs": [
        {
          "internalType": "address",
          "name": "owner",
          "type": "address"
        }
      ],
      "name": "ERC721InvalidOwner",
      "type": "error"
    },
    {
      "inputs": [
        {
          "internalType": "address",
          "name": "receiver",
          "type": "address"
        }
      ],
      "name": "ERC721InvalidReceiver",
      "type": "error"
    },
    {
      "inputs": [
        {
          "internalType": "address",
          "name": "sender",
          "type": "address"
        }
      ],
      "name": "ERC721InvalidSender",
      "type": "error"
    },
    {
      "inputs": [
        {
          "internalType": "uint256",
          "name": "tokenId",
          "type": "uint256"
        }
      ],
      "name": "ERC721NonexistentToken",
      "type": "error"
    },
    {
      "inputs": [
        {
          "internalType": "address",
          "name": "owner",
          "type": "address"
        },
        {
          "internalType": "uint256",
          "name": "index",
          "type": "uint256"
        }
      ],
      "name": "ERC721OutOfBoundsIndex",
      "type": "error"
    },
    {
      "inputs": [
        {
          "internalType": "address",
          "name": "owner",
          "type": "address"
        }
      ],
      "name": "OwnableInvalidOwner",
      "type": "error"
    },
    {
      "inputs": [
        {
          "internalType": "address",
          "name": "account",
          "type": "address"
        }
      ],
      "name": "OwnableUnauthorizedAccount",
      "type": "error"
    },
    {
      "anonymous": false,
      "inputs": [
        {
          "indexed": true,
          "internalType": "address",
          "name": "owner",
          "type": "address"
        },
        {
          "indexed": true,
          "internalType": "address",
          "name": "approved",
          "type": "address"
        },
        {
          "indexed": true,
          "internalType": "uint256",
          "name": "tokenId",
          "type": "uint256"
        }
      ],
      "name": "Approval",
      "type": "event"
    },
    {
      "anonymous": false,
      "inputs": [
        {
          "indexed": true,
          "internalType": "address",
          "name": "owner",
          "type": "address"
        },
        {
          "indexed": true,
          "internalType": "address",
          "name": "operator",
          "type": "address"
        },
        {
          "indexed": false,
          "internalType": "bool",
          "name": "approved",
          "type": "bool"
        }
      ],
      "name": "ApprovalForAll",
      "type": "event"
    },
    {
      "anonymous": false,
      "inputs": [
        {
          "indexed": true,
          "internalType": "address",
          "name": "previousOwner",
          "type": "address"
        },
        {
          "indexed": true,
          "internalType": "address",
          "name": "newOwner",
          "type": "address"
        }
      ],
      "name": "OwnershipTransferred",
      "type": "event"
    },
    {
      "anonymous": false,
      "inputs": [
        {
          "indexed": true,
          "internalType": "address",
          "name": "from",
          "type": "address"
        },
        {
          "indexed": true,
          "internalType": "address",
          "name": "to",
          "type": "address"
        },
        {
          "indexed": true,
          "internalType": "uint256",
          "name": "tokenId",
          "type": "uint256"
        }
      ],
      "name": "Transfer",
      "type": "event"
    },
    {
      "inputs": [],
      "name": "_baseTokenURI",
      "outputs": [
        {
          "internalType": "string",
          "name": "",
          "type": "string"
        }
      ],
      "stateMutability": "view",
      "type": "function"
    },
    {
      "inputs": [
        {
          "internalType": "uint256",
          "name": "amount",
          "type": "uint256"
        }
      ],
      "name": "adjustMaxPublic",
      "outputs": [],
      "stateMutability": "nonpayable",
      "type": "function"
    },
    {
      "inputs": [
        {
          "internalType": "uint256",
          "name": "price",
          "type": "uint256"
        }
      ],
      "name": "adjustMintPrice",
      "outputs": [],
      "stateMutability": "nonpayable",
      "type": "function"
    },
    {
      "inputs": [
        {
          "internalType": "uint256",
          "name": "price",
          "type": "uint256"
        }
      ],
      "name": "adjustWhitelistPrice",
      "outputs": [],
      "stateMutability": "nonpayable",
      "type": "function"
    },
    {
      "inputs": [
        {
          "internalType": "address",
          "name": "",
          "type": "address"
        }
      ],
      "name": "allowedOperators",
      "outputs": [
        {
          "internalType": "bool",
          "name": "",
          "type": "bool"
        }
      ],
      "stateMutability": "view",
      "type": "function"
    },
    {
      "inputs": [
        {
          "internalType": "address",
          "name": "to",
          "type": "address"
        },
        {
          "internalType": "uint256",
          "name": "tokenId",
          "type": "uint256"
        }
      ],
      "name": "approve",
      "outputs": [],
      "stateMutability": "nonpayable",
      "type": "function"
    },
    {
      "inputs": [
        {
          "internalType": "address",
          "name": "",
          "type": "address"
        }
      ],
      "name": "approvedMintContracts",
      "outputs": [
        {
          "internalType": "bool",
          "name": "",
          "type": "bool"
        }
      ],
      "stateMutability": "view",
      "type": "function"
    },
    {
      "inputs": [
        {
          "internalType": "address",
          "name": "owner",
          "type": "address"
        }
      ],
      "name": "balanceOf",
      "outputs": [
        {
          "internalType": "uint256",
          "name": "",
          "type": "uint256"
        }
      ],
      "stateMutability": "view",
      "type": "function"
    },
    {
      "inputs": [
        {
          "internalType": "uint256",
          "name": "tokenId",
          "type": "uint256"
        }
      ],
      "name": "getApproved",
      "outputs": [
        {
          "internalType": "address",
          "name": "",
          "type": "address"
        }
      ],
      "stateMutability": "view",
      "type": "function"
    },
    {
      "inputs": [
        {
          "internalType": "address",
          "name": "owner",
          "type": "address"
        },
        {
          "internalType": "address",
          "name": "operator",
          "type": "address"
        }
      ],
      "name": "isApprovedForAll",
      "outputs": [
        {
          "internalType": "bool",
          "name": "",
          "type": "bool"
        }
      ],
      "stateMutability": "view",
      "type": "function"
    },
    {
      "inputs": [],
      "name": "maxPublicPerTransaction",
      "outputs": [
        {
          "internalType": "uint256",
          "name": "",
          "type": "uint256"
        }
      ],
      "stateMutability": "view",
      "type": "function"
    },
    {
      "inputs": [],
      "name": "maxSupply",
      "outputs": [
        {
          "internalType": "uint256",
          "name": "",
          "type": "uint256"
        }
      ],
      "stateMutability": "view",
      "type": "function"
    },
    {
      "inputs": [
        {
          "internalType": "address",
          "name": "to",
          "type": "address"
        },
        {
          "internalType": "uint256",
          "name": "amount",
          "type": "uint256"
        }
      ],
      "name": "mintFromApprovedContract",
      "outputs": [],
      "stateMutability": "nonpayable",
      "type": "function"
    },
    {
      "inputs": [],
      "name": "mintPrice",
      "outputs": [
        {
          "internalType": "uint256",
          "name": "",
          "type": "uint256"
        }
      ],
      "stateMutability": "view",
      "type": "function"
    },
    {
      "inputs": [],
      "name": "mintWindows",
      "outputs": [
        {
          "internalType": "uint256",
          "name": "whitelistStartTime",
          "type": "uint256"
        },
        {
          "internalType": "uint256",
          "name": "whitelistEndTime",
          "type": "uint256"
        },
        {
          "internalType": "uint256",
          "name": "publicMintStartTime",
          "type": "uint256"
        },
        {
          "internalType": "uint256",
          "name": "publicMintEndTime",
          "type": "uint256"
        }
      ],
      "stateMutability": "view",
      "type": "function"
    },
    {
      "inputs": [],
      "name": "name",
      "outputs": [
        {
          "internalType": "string",
          "name": "",
          "type": "string"
        }
      ],
      "stateMutability": "view",
      "type": "function"
    },
    {
      "inputs": [],
      "name": "nextTokenId",
      "outputs": [
        {
          "internalType": "uint256",
          "name": "",
          "type": "uint256"
        }
      ],
      "stateMutability": "view",
      "type": "function"
    },
    {
      "inputs": [],
      "name": "owner",
      "outputs": [
        {
          "internalType": "address",
          "name": "",
          "type": "address"
        }
      ],
      "stateMutability": "view",
      "type": "function"
    },
    {
      "inputs": [
        {
          "internalType": "address",
          "name": "to",
          "type": "address"
        },
        {
          "internalType": "uint256",
          "name": "amount",
          "type": "uint256"
        }
      ],
      "name": "ownerMint",
      "outputs": [],
      "stateMutability": "nonpayable",
      "type": "function"
    },
    {
      "inputs": [
        {
          "internalType": "uint256",
          "name": "tokenId",
          "type": "uint256"
        }
      ],
      "name": "ownerOf",
      "outputs": [
        {
          "internalType": "address",
          "name": "",
          "type": "address"
        }
      ],
      "stateMutability": "view",
      "type": "function"
    },
    {
      "inputs": [],
      "name": "publicCap",
      "outputs": [
        {
          "internalType": "uint256",
          "name": "",
          "type": "uint256"
        }
      ],
      "stateMutability": "view",
      "type": "function"
    },
    {
      "inputs": [
        {
          "internalType": "uint256",
          "name": "amount",
          "type": "uint256"
        }
      ],
      "name": "publicMint",
      "outputs": [],
      "stateMutability": "payable",
      "type": "function"
    },
    {
      "inputs": [],
      "name": "renounceOwnership",
      "outputs": [],
      "stateMutability": "nonpayable",
      "type": "function"
    },
    {
      "inputs": [],
      "name": "rewardPercentage",
      "outputs": [
        {
          "internalType": "uint256",
          "name": "",
          "type": "uint256"
        }
      ],
      "stateMutability": "view",
      "type": "function"
    },
    {
      "inputs": [
        {
          "internalType": "address",
          "name": "from",
          "type": "address"
        },
        {
          "internalType": "address",
          "name": "to",
          "type": "address"
        },
        {
          "internalType": "uint256",
          "name": "tokenId",
          "type": "uint256"
        }
      ],
      "name": "safeTransferFrom",
      "outputs": [],
      "stateMutability": "nonpayable",
      "type": "function"
    },
    {
      "inputs": [
        {
          "internalType": "address",
          "name": "from",
          "type": "address"
        },
        {
          "internalType": "address",
          "name": "to",
          "type": "address"
        },
        {
          "internalType": "uint256",
          "name": "tokenId",
          "type": "uint256"
        },
        {
          "internalType": "bytes",
          "name": "data",
          "type": "bytes"
        }
      ],
      "name": "safeTransferFrom",
      "outputs": [],
      "stateMutability": "nonpayable",
      "type": "function"
    },
    {
      "inputs": [
        {
          "internalType": "address",
          "name": "operator",
          "type": "address"
        },
        {
          "internalType": "bool",
          "name": "approved",
          "type": "bool"
        }
      ],
      "name": "setApprovalForAll",
      "outputs": [],
      "stateMutability": "nonpayable",
      "type": "function"
    },
    {
      "inputs": [
        {
          "internalType": "address",
          "name": "_contract",
          "type": "address"
        },
        {
          "internalType": "bool",
          "name": "allows",
          "type": "bool"
        }
      ],
      "name": "setApprovedMinter",
      "outputs": [],
      "stateMutability": "nonpayable",
      "type": "function"
    },
    {
      "inputs": [
        {
          "internalType": "string",
          "name": "baseURI",
          "type": "string"
        }
      ],
      "name": "setBaseURI",
      "outputs": [],
      "stateMutability": "nonpayable",
      "type": "function"
    },
    {
      "inputs": [
        {
          "internalType": "uint256",
          "name": "cap",
          "type": "uint256"
        }
      ],
      "name": "setMaxSupply",
      "outputs": [],
      "stateMutability": "nonpayable",
      "type": "function"
    },
    {
      "inputs": [
        {
          "internalType": "uint256",
          "name": "_whitelistStartTime",
          "type": "uint256"
        },
        {
          "internalType": "uint256",
          "name": "_whitelistEndTime",
          "type": "uint256"
        },
        {
          "internalType": "uint256",
          "name": "_publicMintStartTime",
          "type": "uint256"
        },
        {
          "internalType": "uint256",
          "name": "_publicMintEndTime",
          "type": "uint256"
        }
      ],
      "name": "setMintWindows",
      "outputs": [],
      "stateMutability": "nonpayable",
      "type": "function"
    },
    {
      "inputs": [
        {
          "internalType": "address",
          "name": "_operator",
          "type": "address"
        },
        {
          "internalType": "bool",
          "name": "allowed",
          "type": "bool"
        }
      ],
      "name": "setOperator",
      "outputs": [],
      "stateMutability": "nonpayable",
      "type": "function"
    },
    {
      "inputs": [
        {
          "internalType": "uint256",
          "name": "cap",
          "type": "uint256"
        }
      ],
      "name": "setPublicCap",
      "outputs": [],
      "stateMutability": "nonpayable",
      "type": "function"
    },
    {
      "inputs": [
        {
          "internalType": "uint256",
          "name": "_rewardPercentage",
          "type": "uint256"
        }
      ],
      "name": "setRewardPercentage",
      "outputs": [],
      "stateMutability": "nonpayable",
      "type": "function"
    },
    {
      "inputs": [
        {
          "internalType": "uint256",
          "name": "tokenId",
          "type": "uint256"
        },
        {
          "internalType": "bool",
          "name": "isSpecial",
          "type": "bool"
        }
      ],
      "name": "setSpecial",
      "outputs": [],
      "stateMutability": "nonpayable",
      "type": "function"
    },
    {
      "inputs": [
        {
          "internalType": "uint256",
          "name": "cap",
          "type": "uint256"
        }
      ],
      "name": "setWhitelistCap",
      "outputs": [],
      "stateMutability": "nonpayable",
      "type": "function"
    },
    {
      "inputs": [
        {
          "internalType": "bytes32",
          "name": "_merkleRoot",
          "type": "bytes32"
        }
      ],
      "name": "setWhitelistMerkleRoot",
      "outputs": [],
      "stateMutability": "nonpayable",
      "type": "function"
    },
    {
      "inputs": [
        {
          "internalType": "uint256",
          "name": "",
          "type": "uint256"
        }
      ],
      "name": "specialTrait",
      "outputs": [
        {
          "internalType": "bool",
          "name": "",
          "type": "bool"
        }
      ],
      "stateMutability": "view",
      "type": "function"
    },
    {
      "inputs": [
        {
          "internalType": "bytes4",
          "name": "interfaceId",
          "type": "bytes4"
        }
      ],
      "name": "supportsInterface",
      "outputs": [
        {
          "internalType": "bool",
          "name": "",
          "type": "bool"
        }
      ],
      "stateMutability": "view",
      "type": "function"
    },
    {
      "inputs": [],
      "name": "symbol",
      "outputs": [
        {
          "internalType": "string",
          "name": "",
          "type": "string"
        }
      ],
      "stateMutability": "view",
      "type": "function"
    },
    {
      "inputs": [
        {
          "internalType": "uint256",
          "name": "index",
          "type": "uint256"
        }
      ],
      "name": "tokenByIndex",
      "outputs": [
        {
          "internalType": "uint256",
          "name": "",
          "type": "uint256"
        }
      ],
      "stateMutability": "view",
      "type": "function"
    },
    {
      "inputs": [
        {
          "internalType": "address",
          "name": "owner",
          "type": "address"
        },
        {
          "internalType": "uint256",
          "name": "index",
          "type": "uint256"
        }
      ],
      "name": "tokenOfOwnerByIndex",
      "outputs": [
        {
          "internalType": "uint256",
          "name": "",
          "type": "uint256"
        }
      ],
      "stateMutability": "view",
      "type": "function"
    },
    {
      "inputs": [
        {
          "internalType": "uint256",
          "name": "tokenId",
          "type": "uint256"
        }
      ],
      "name": "tokenURI",
      "outputs": [
        {
          "internalType": "string",
          "name": "",
          "type": "string"
        }
      ],
      "stateMutability": "view",
      "type": "function"
    },
    {
      "inputs": [],
      "name": "totalSupply",
      "outputs": [
        {
          "internalType": "uint256",
          "name": "",
          "type": "uint256"
        }
      ],
      "stateMutability": "view",
      "type": "function"
    },
    {
      "inputs": [
        {
          "internalType": "address",
          "name": "from",
          "type": "address"
        },
        {
          "internalType": "address",
          "name": "to",
          "type": "address"
        },
        {
          "internalType": "uint256",
          "name": "tokenId",
          "type": "uint256"
        }
      ],
      "name": "transferFrom",
      "outputs": [],
      "stateMutability": "nonpayable",
      "type": "function"
    },
    {
      "inputs": [
        {
          "internalType": "address",
          "name": "newOwner",
          "type": "address"
        }
      ],
      "name": "transferOwnership",
      "outputs": [],
      "stateMutability": "nonpayable",
      "type": "function"
    },
    {
      "inputs": [],
      "name": "whitelistCap",
      "outputs": [
        {
          "internalType": "uint256",
          "name": "",
          "type": "uint256"
        }
      ],
      "stateMutability": "view",
      "type": "function"
    },
    {
      "inputs": [],
      "name": "whitelistMerkleRoot",
      "outputs": [
        {
          "internalType": "bytes32",
          "name": "",
          "type": "bytes32"
        }
      ],
      "stateMutability": "view",
      "type": "function"
    },
    {
      "inputs": [
        {
          "internalType": "uint256",
          "name": "amount",
          "type": "uint256"
        },
        {
          "internalType": "uint256",
          "name": "maxAllowed",
          "type": "uint256"
        },
        {
          "internalType": "bytes32[]",
          "name": "merkleProof",
          "type": "bytes32[]"
        }
      ],
      "name": "whitelistMint",
      "outputs": [],
      "stateMutability": "payable",
      "type": "function"
    },
    {
      "inputs": [
        {
          "internalType": "address",
          "name": "",
          "type": "address"
        }
      ],
      "name": "whitelistMinted",
      "outputs": [
        {
          "internalType": "uint256",
          "name": "",
          "type": "uint256"
        }
      ],
      "stateMutability": "view",
      "type": "function"
    },
    {
      "inputs": [],
      "name": "whitelistPrice",
      "outputs": [
        {
          "internalType": "uint256",
          "name": "",
          "type": "uint256"
        }
      ],
      "stateMutability": "view",
      "type": "function"
    },
    {
      "inputs": [],
      "name": "withdraw",
      "outputs": [],
      "stateMutability": "nonpayable",
      "type": "function"
    }
  ],
  "bytecode": "0x608060405261022b600d556101bc600e5561022b600f5566354a6ba7a18000601055663ff2e795f500006011556005601255600a60135534801561004257600080fd5b50336040518060400160405280600681526020017f54657374465500000000000000000000000000000000000000000000000000008152506040518060400160405280600681526020017f546573744655000000000000000000000000000000000000000000000000000081525081600090816100bf91906104fd565b5080600190816100cf91906104fd565b505050600073ffffffffffffffffffffffffffffffffffffffff168173ffffffffffffffffffffffffffffffffffffffff16036101445760006040517f1e4fbdf700000000000000000000000000000000000000000000000000000000815260040161013b9190610610565b60405180910390fd5b610153816101e760201b60201c565b50600d54600e54111561019b576040517f08c379a000000000000000000000000000000000000000000000000000000000815260040161019290610688565b60405180910390fd5b600d54600f5411156101e2576040517f08c379a00000000000000000000000000000000000000000000000000000000081526004016101d9906106f4565b60405180910390fd5b610714565b6000600a60009054906101000a900473ffffffffffffffffffffffffffffffffffffffff16905081600a60006101000a81548173ffffffffffffffffffffffffffffffffffffffff021916908373ffffffffffffffffffffffffffffffffffffffff1602179055508173ffffffffffffffffffffffffffffffffffffffff168173ffffffffffffffffffffffffffffffffffffffff167f8be0079c531659141344cd1fd0a4f28419497f9722a3daafe3b4186f6b6457e060405160405180910390a35050565b600081519050919050565b7f4e487b7100000000000000000000000000000000000000000000000000000000600052604160045260246000fd5b7f4e487b7100000000000000000000000000000000000000000000000000000000600052602260045260246000fd5b6000600282049050600182168061032e57607f821691505b602082108103610341576103406102e7565b5b50919050565b60008190508160005260206000209050919050565b60006020601f8301049050919050565b600082821b905092915050565b6000600883026103a97fffffffffffffffffffffffffffffffffffffffffffffffffffffffffffffffff8261036c565b6103b3868361036c565b95508019841693508086168417925050509392505050565b6000819050919050565b6000819050919050565b60006103fa6103f56103f0846103cb565b6103d5565b6103cb565b9050919050565b6000819050919050565b610414836103df565b61042861042082610401565b848454610379565b825550505050565b600090565b61043d610430565b61044881848461040b565b505050565b5b8181101561046c57610461600082610435565b60018101905061044e565b5050565b601f8211156104b15761048281610347565b61048b8461035c565b8101602085101561049a578190505b6104ae6104a68561035c565b83018261044d565b50505b505050565b600082821c905092915050565b60006104d4600019846008026104b6565b1980831691505092915050565b60006104ed83836104c3565b9150826002028217905092915050565b610506826102ad565b67ffffffffffffffff81111561051f5761051e6102b8565b5b6105298254610316565b610534828285610470565b600060209050601f8311600181146105675760008415610555578287015190505b61055f85826104e1565b8655506105c7565b601f19841661057586610347565b60005b8281101561059d57848901518255600182019150602085019450602081019050610578565b868310156105ba57848901516105b6601f8916826104c3565b8355505b6001600288020188555050505b505050505050565b600073ffffffffffffffffffffffffffffffffffffffff82169050919050565b60006105fa826105cf565b9050919050565b61060a816105ef565b82525050565b60006020820190506106256000830184610601565b92915050565b600082825260208201905092915050565b7f57686974656c69737420636170203c206d617820737570706c79000000000000600082015250565b6000610672601a8361062b565b915061067d8261063c565b602082019050919050565b600060208201905081810360008301526106a181610665565b9050919050565b7f5075626c696320636170203c206d617820737570706c79000000000000000000600082015250565b60006106de60178361062b565b91506106e9826106a8565b602082019050919050565b6000602082019050818103600083015261070d816106d1565b9050919050565b6147a6806107236000396000f3fe6080604052600436106102ff5760003560e01c80636f8b44b011610190578063bd32fb66116100dc578063d62a2d2611610095578063f2fde38b1161006f578063f2fde38b14610b83578063f634d51914610bac578063f9d3825f14610bd7578063fc1a1c3614610c00576102ff565b8063d62a2d2614610aef578063e985e9c514610b18578063eb2cdcf514610b55576102ff565b8063bd32fb66146109ee578063c4be5b5914610a17578063c80416d214610a33578063c87b56dd14610a5c578063cfc86f7b14610a99578063d5abeb0114610ac4576102ff565b806398a8cffe11610149578063a22cb46511610123578063a22cb46514610934578063a6674f881461095d578063aa98e0c61461099a578063b88d4fde146109c5576102ff565b806398a8cffe146108a55780639acffa12146108e2578063a20e0bca1461090b576102ff565b80636f8b44b0146107a757806370a08231146107d0578063715018a61461080d57806375794a3c146108245780638da5cb5b1461084f57806395d89b411461087a576102ff565b80633123ca971161024f5780634f6ccce71161020857806355f804b3116101e257806355f804b3146106ed5780636352211e14610716578063658fbaee146107535780636817c76c1461077c576102ff565b80634f6ccce71461065c57806352d472eb14610699578063558a7297146106c4576102ff565b80633123ca97146105625780633ccfd60b1461059f57806342842e0e146105b6578063460b289c146105df578063484b973c146106085780634ca3ca2c14610631576102ff565b806309653674116102bc57806323b872dd1161029657806323b872dd146104b757806329ec16dd146104e05780632db11544146105095780632f745c5914610525576102ff565b8063096536741461042657806318160ddd1461044f57806321a9088d1461047a576102ff565b806301ffc9a714610304578063036f74e31461034157806306fdde031461036c57806307a0c83314610397578063081812fc146103c0578063095ea7b3146103fd575b600080fd5b34801561031057600080fd5b5061032b6004803603810190610326919061322e565b610c2b565b6040516103389190613276565b60405180910390f35b34801561034d57600080fd5b50610356610ca5565b60405161036391906132aa565b60405180910390f35b34801561037857600080fd5b50610381610cab565b60405161038e9190613355565b60405180910390f35b3480156103a357600080fd5b506103be60048036038101906103b99190613401565b610d3d565b005b3480156103cc57600080fd5b506103e760048036038101906103e29190613441565b610e2a565b6040516103f4919061347d565b60405180910390f35b34801561040957600080fd5b50610424600480360381019061041f9190613401565b610e46565b005b34801561043257600080fd5b5061044d60048036038101906104489190613441565b610e5c565b005b34801561045b57600080fd5b50610464610eaa565b60405161047191906132aa565b60405180910390f35b34801561048657600080fd5b506104a1600480360381019061049c9190613441565b610eb7565b6040516104ae9190613276565b60405180910390f35b3480156104c357600080fd5b506104de60048036038101906104d99190613498565b610ed7565b005b3480156104ec57600080fd5b5061050760048036038101906105029190613517565b610fd9565b005b610523600480360381019061051e9190613441565b61103c565b005b34801561053157600080fd5b5061054c60048036038101906105479190613401565b61118a565b60405161055991906132aa565b60405180910390f35b34801561056e57600080fd5b5061058960048036038101906105849190613557565b611233565b6040516105969190613276565b60405180910390f35b3480156105ab57600080fd5b506105b4611253565b005b3480156105c257600080fd5b506105dd60048036038101906105d89190613498565b6112a4565b005b3480156105eb57600080fd5b5061060660048036038101906106019190613441565b6112c4565b005b34801561061457600080fd5b5061062f600480360381019061062a9190613401565b6112d6565b005b34801561063d57600080fd5b5061064661133f565b60405161065391906132aa565b60405180910390f35b34801561066857600080fd5b50610683600480360381019061067e9190613441565b611345565b60405161069091906132aa565b60405180910390f35b3480156106a557600080fd5b506106ae6113bb565b6040516106bb91906132aa565b60405180910390f35b3480156106d057600080fd5b506106eb60048036038101906106e69190613517565b6113c1565b005b3480156106f957600080fd5b50610714600480360381019061070f91906136b9565b611424565b005b34801561072257600080fd5b5061073d60048036038101906107389190613441565b61143f565b60405161074a919061347d565b60405180910390f35b34801561075f57600080fd5b5061077a60048036038101906107759190613441565b611451565b005b34801561078857600080fd5b50610791611463565b60405161079e91906132aa565b60405180910390f35b3480156107b357600080fd5b506107ce60048036038101906107c99190613441565b611469565b005b3480156107dc57600080fd5b506107f760048036038101906107f29190613557565b61147b565b60405161080491906132aa565b60405180910390f35b34801561081957600080fd5b50610822611535565b005b34801561083057600080fd5b50610839611549565b60405161084691906132aa565b60405180910390f35b34801561085b57600080fd5b5061086461154f565b604051610871919061347d565b60405180910390f35b34801561088657600080fd5b5061088f611579565b60405161089c9190613355565b60405180910390f35b3480156108b157600080fd5b506108cc60048036038101906108c79190613557565b61160b565b6040516108d991906132aa565b60405180910390f35b3480156108ee57600080fd5b5061090960048036038101906109049190613702565b611623565b005b34801561091757600080fd5b50610932600480360381019061092d9190613441565b61171b565b005b34801561094057600080fd5b5061095b60048036038101906109569190613517565b61173c565b005b34801561096957600080fd5b50610984600480360381019061097f9190613557565b611752565b6040516109919190613276565b60405180910390f35b3480156109a657600080fd5b506109af611772565b6040516109bc919061375b565b60405180910390f35b3480156109d157600080fd5b506109ec60048036038101906109e79190613817565b611778565b005b3480156109fa57600080fd5b50610a156004803603810190610a1091906138c6565b61179d565b005b610a316004803603810190610a2c9190613953565b6117af565b005b348015610a3f57600080fd5b50610a5a6004803603810190610a5591906139c7565b611a59565b005b348015610a6857600080fd5b50610a836004803603810190610a7e9190613441565b611ab5565b604051610a909190613355565b60405180910390f35b348015610aa557600080fd5b50610aae611b8b565b604051610abb9190613355565b60405180910390f35b348015610ad057600080fd5b50610ad9611c19565b604051610ae691906132aa565b60405180910390f35b348015610afb57600080fd5b50610b166004803603810190610b119190613441565b611c1f565b005b348015610b2457600080fd5b50610b3f6004803603810190610b3a9190613a2e565b611c31565b604051610b4c9190613276565b60405180910390f35b348015610b6157600080fd5b50610b6a611cc5565b604051610b7a9493929190613a6e565b60405180910390f35b348015610b8f57600080fd5b50610baa6004803603810190610ba59190613557565b611ce3565b005b348015610bb857600080fd5b50610bc1611d69565b604051610bce91906132aa565b60405180910390f35b348015610be357600080fd5b50610bfe6004803603810190610bf99190613441565b611d6f565b005b348015610c0c57600080fd5b50610c15611d90565b604051610c2291906132aa565b60405180910390f35b60007f780e9d63000000000000000000000000000000000000000000000000000000007bffffffffffffffffffffffffffffffffffffffffffffffffffffffff1916827bffffffffffffffffffffffffffffffffffffffffffffffffffffffff19161480610c9e5750610c9d82611d96565b5b9050919050565b600f5481565b606060008054610cba90613ae2565b80601f0160208091040260200160405190810160405280929190818152602001828054610ce690613ae2565b8015610d335780601f10610d0857610100808354040283529160200191610d33565b820191906000526020600020905b815481529060010190602001808311610d1657829003601f168201915b5050505050905090565b80600d5481600b54610d4f9190613b42565b10610d8f576040517f08c379a0000000000000000000000000000000000000000000000000000000008152600401610d8690613bc2565b60405180910390fd5b600c60003373ffffffffffffffffffffffffffffffffffffffff1673ffffffffffffffffffffffffffffffffffffffff16815260200190815260200160002060009054906101000a900460ff16610e1b576040517f08c379a0000000000000000000000000000000000000000000000000000000008152600401610e1290613c2e565b60405180910390fd5b610e258383611e78565b505050565b6000610e3582611eb9565b50610e3f82611f41565b9050919050565b610e588282610e53611f7e565b611f86565b5050565b6064811115610ea0576040517f08c379a0000000000000000000000000000000000000000000000000000000008152600401610e9790613c9a565b60405180910390fd5b8060138190555050565b6000600880549050905090565b601a6020528060005260406000206000915054906101000a900460ff1681565b600073ffffffffffffffffffffffffffffffffffffffff168273ffffffffffffffffffffffffffffffffffffffff1603610f495760006040517f64a0ae92000000000000000000000000000000000000000000000000000000008152600401610f40919061347d565b60405180910390fd5b6000610f5d8383610f58611f7e565b611f98565b90508373ffffffffffffffffffffffffffffffffffffffff168173ffffffffffffffffffffffffffffffffffffffff1614610fd3578382826040517f64283d7b000000000000000000000000000000000000000000000000000000008152600401610fca93929190613cba565b60405180910390fd5b50505050565b610fe16120b5565b80600c60008473ffffffffffffffffffffffffffffffffffffffff1673ffffffffffffffffffffffffffffffffffffffff16815260200190815260200160002060006101000a81548160ff0219169083151502179055505050565b80600f5481600b5461104e9190613b42565b1061108e576040517f08c379a000000000000000000000000000000000000000000000000000000000815260040161108590613bc2565b60405180910390fd5b8160115461109c9190613cf1565b3410156110de576040517f08c379a00000000000000000000000000000000000000000000000000000000081526004016110d590613d7f565b60405180910390fd5b601254821115611123576040517f08c379a000000000000000000000000000000000000000000000000000000000815260040161111a90613deb565b60405180910390fd5b601460020154421015801561113d57506014600301544211155b61117c576040517f08c379a000000000000000000000000000000000000000000000000000000000815260040161117390613e57565b60405180910390fd5b6111863383611e78565b5050565b60006111958361147b565b82106111da5782826040517fa57d13dc0000000000000000000000000000000000000000000000000000000081526004016111d1929190613e77565b60405180910390fd5b600660008473ffffffffffffffffffffffffffffffffffffffff1673ffffffffffffffffffffffffffffffffffffffff168152602001908152602001600020600083815260200190815260200160002054905092915050565b600c6020528060005260406000206000915054906101000a900460ff1681565b61125b6120b5565b3373ffffffffffffffffffffffffffffffffffffffff166108fc479081150290604051600060405180830381858888f193505050501580156112a1573d6000803e3d6000fd5b50565b6112bf83838360405180602001604052806000815250611778565b505050565b6112cc6120b5565b8060118190555050565b6112de6120b5565b80600d5481600b546112f09190613b42565b10611330576040517f08c379a000000000000000000000000000000000000000000000000000000000815260040161132790613bc2565b60405180910390fd5b61133a8383611e78565b505050565b60125481565b600061134f610eaa565b8210611395576000826040517fa57d13dc00000000000000000000000000000000000000000000000000000000815260040161138c929190613e77565b60405180910390fd5b600882815481106113a9576113a8613ea0565b5b90600052602060002001549050919050565b60135481565b6113c96120b5565b80601c60008473ffffffffffffffffffffffffffffffffffffffff1673ffffffffffffffffffffffffffffffffffffffff16815260200190815260200160002060006101000a81548160ff0219169083151502179055505050565b61142c6120b5565b80601b908161143b919061407b565b5050565b600061144a82611eb9565b9050919050565b6114596120b5565b8060108190555050565b60115481565b6114716120b5565b80600d8190555050565b60008073ffffffffffffffffffffffffffffffffffffffff168273ffffffffffffffffffffffffffffffffffffffff16036114ee5760006040517f89c62b640000000000000000000000000000000000000000000000000000000081526004016114e5919061347d565b60405180910390fd5b600360008373ffffffffffffffffffffffffffffffffffffffff1673ffffffffffffffffffffffffffffffffffffffff168152602001908152602001600020549050919050565b61153d6120b5565b611547600061213c565b565b600b5481565b6000600a60009054906101000a900473ffffffffffffffffffffffffffffffffffffffff16905090565b60606001805461158890613ae2565b80601f01602080910402602001604051908101604052809291908181526020018280546115b490613ae2565b80156116015780601f106115d657610100808354040283529160200191611601565b820191906000526020600020905b8154815290600101906020018083116115e457829003601f168201915b5050505050905090565b60186020528060005260406000206000915090505481565b601c60003373ffffffffffffffffffffffffffffffffffffffff1673ffffffffffffffffffffffffffffffffffffffff16815260200190815260200160002060009054906101000a900460ff16806116ad575061167e61154f565b73ffffffffffffffffffffffffffffffffffffffff163373ffffffffffffffffffffffffffffffffffffffff16145b6116ec576040517f08c379a00000000000000000000000000000000000000000000000000000000081526004016116e390614199565b60405180910390fd5b80601a600084815260200190815260200160002060006101000a81548160ff0219169083151502179055505050565b6117236120b5565b600d5481111561173257600080fd5b80600e8190555050565b61174e611747611f7e565b8383612202565b5050565b601c6020528060005260406000206000915054906101000a900460ff1681565b60195481565b611783848484610ed7565b61179761178e611f7e565b85858585612371565b50505050565b6117a56120b5565b8060198190555050565b83600e5481600b546117c19190613b42565b10611801576040517f08c379a00000000000000000000000000000000000000000000000000000000081526004016117f890613bc2565b60405180910390fd5b601460000154421015801561181b57506014600101544211155b61185a576040517f08c379a000000000000000000000000000000000000000000000000000000000815260040161185190614205565b60405180910390fd5b846010546118689190613cf1565b3410156118aa576040517f08c379a00000000000000000000000000000000000000000000000000000000081526004016118a190613d7f565b60405180910390fd5b8385601860003373ffffffffffffffffffffffffffffffffffffffff1673ffffffffffffffffffffffffffffffffffffffff168152602001908152602001600020546118f69190613b42565b1115611937576040517f08c379a000000000000000000000000000000000000000000000000000000000815260040161192e90614271565b60405180910390fd5b6000338560405160200161194c9291906142fa565b6040516020818303038152906040528051906020012090506119b2848480806020026020016040519081016040528093929190818152602001838360200280828437600081840152601f19601f8201169050808301925050505050505060195483612522565b6119f1576040517f08c379a00000000000000000000000000000000000000000000000000000000081526004016119e890614372565b60405180910390fd5b85601860003373ffffffffffffffffffffffffffffffffffffffff1673ffffffffffffffffffffffffffffffffffffffff1681526020019081526020016000206000828254611a409190613b42565b92505081905550611a513387611e78565b505050505050565b611a616120b5565b60405180608001604052808581526020018481526020018381526020018281525060146000820151816000015560208201518160010155604082015181600201556060820151816003015590505050505050565b6060611abf610eaa565b8210611b00576040517f08c379a0000000000000000000000000000000000000000000000000000000008152600401611af7906143de565b60405180910390fd5b601a600083815260200190815260200160002060009054906101000a900460ff1615611b5857601b611b3183612539565b604051602001611b42929190614509565b6040516020818303038152906040529050611b86565b601b611b6383612539565b604051602001611b74929190614584565b60405160208183030381529060405290505b919050565b601b8054611b9890613ae2565b80601f0160208091040260200160405190810160405280929190818152602001828054611bc490613ae2565b8015611c115780601f10611be657610100808354040283529160200191611c11565b820191906000526020600020905b815481529060010190602001808311611bf457829003601f168201915b505050505081565b600d5481565b611c276120b5565b8060128190555050565b6000600560008473ffffffffffffffffffffffffffffffffffffffff1673ffffffffffffffffffffffffffffffffffffffff16815260200190815260200160002060008373ffffffffffffffffffffffffffffffffffffffff1673ffffffffffffffffffffffffffffffffffffffff16815260200190815260200160002060009054906101000a900460ff16905092915050565b60148060000154908060010154908060020154908060030154905084565b611ceb6120b5565b600073ffffffffffffffffffffffffffffffffffffffff168173ffffffffffffffffffffffffffffffffffffffff1603611d5d5760006040517f1e4fbdf7000000000000000000000000000000000000000000000000000000008152600401611d54919061347d565b60405180910390fd5b611d668161213c565b50565b600e5481565b611d776120b5565b600d54811115611d8657600080fd5b80600f8190555050565b60105481565b60007f80ac58cd000000000000000000000000000000000000000000000000000000007bffffffffffffffffffffffffffffffffffffffffffffffffffffffff1916827bffffffffffffffffffffffffffffffffffffffffffffffffffffffff19161480611e6157507f5b5e139f000000000000000000000000000000000000000000000000000000007bffffffffffffffffffffffffffffffffffffffffffffffffffffffff1916827bffffffffffffffffffffffffffffffffffffffffffffffffffffffff1916145b80611e715750611e7082612607565b5b9050919050565b60005b81811015611eb457611e8f83600b54612671565b600b6000815480929190611ea2906145b3565b91905055508080600101915050611e7b565b505050565b600080611ec58361268f565b9050600073ffffffffffffffffffffffffffffffffffffffff168173ffffffffffffffffffffffffffffffffffffffff1603611f3857826040517f7e273289000000000000000000000000000000000000000000000000000000008152600401611f2f91906132aa565b60405180910390fd5b80915050919050565b60006004600083815260200190815260200160002060009054906101000a900473ffffffffffffffffffffffffffffffffffffffff169050919050565b600033905090565b611f9383838360016126cc565b505050565b600080611fa6858585612891565b9050600073ffffffffffffffffffffffffffffffffffffffff168173ffffffffffffffffffffffffffffffffffffffff1603611fea57611fe584612aab565b612029565b8473ffffffffffffffffffffffffffffffffffffffff168173ffffffffffffffffffffffffffffffffffffffff1614612028576120278185612af4565b5b5b600073ffffffffffffffffffffffffffffffffffffffff168573ffffffffffffffffffffffffffffffffffffffff160361206b5761206684612bdf565b6120aa565b8473ffffffffffffffffffffffffffffffffffffffff168173ffffffffffffffffffffffffffffffffffffffff16146120a9576120a88585612cb0565b5b5b809150509392505050565b6120bd611f7e565b73ffffffffffffffffffffffffffffffffffffffff166120db61154f565b73ffffffffffffffffffffffffffffffffffffffff161461213a576120fe611f7e565b6040517f118cdaa7000000000000000000000000000000000000000000000000000000008152600401612131919061347d565b60405180910390fd5b565b6000600a60009054906101000a900473ffffffffffffffffffffffffffffffffffffffff16905081600a60006101000a81548173ffffffffffffffffffffffffffffffffffffffff021916908373ffffffffffffffffffffffffffffffffffffffff1602179055508173ffffffffffffffffffffffffffffffffffffffff168173ffffffffffffffffffffffffffffffffffffffff167f8be0079c531659141344cd1fd0a4f28419497f9722a3daafe3b4186f6b6457e060405160405180910390a35050565b600073ffffffffffffffffffffffffffffffffffffffff168273ffffffffffffffffffffffffffffffffffffffff160361227357816040517f5b08ba1800000000000000000000000000000000000000000000000000000000815260040161226a919061347d565b60405180910390fd5b80600560008573ffffffffffffffffffffffffffffffffffffffff1673ffffffffffffffffffffffffffffffffffffffff16815260200190815260200160002060008473ffffffffffffffffffffffffffffffffffffffff1673ffffffffffffffffffffffffffffffffffffffff16815260200190815260200160002060006101000a81548160ff0219169083151502179055508173ffffffffffffffffffffffffffffffffffffffff168373ffffffffffffffffffffffffffffffffffffffff167f17307eab39ab6107e8899845ad3d59bd9653f200f220920489ca2b5937696c31836040516123649190613276565b60405180910390a3505050565b60008373ffffffffffffffffffffffffffffffffffffffff163b111561251b578273ffffffffffffffffffffffffffffffffffffffff1663150b7a02868685856040518563ffffffff1660e01b81526004016123d09493929190614650565b6020604051808303816000875af192505050801561240c57506040513d601f19601f8201168201806040525081019061240991906146b1565b60015b612490573d806000811461243c576040519150601f19603f3d011682016040523d82523d6000602084013e612441565b606091505b50600081510361248857836040517f64a0ae9200000000000000000000000000000000000000000000000000000000815260040161247f919061347d565b60405180910390fd5b805181602001fd5b63150b7a0260e01b7bffffffffffffffffffffffffffffffffffffffffffffffffffffffff1916817bffffffffffffffffffffffffffffffffffffffffffffffffffffffff19161461251957836040517f64a0ae92000000000000000000000000000000000000000000000000000000008152600401612510919061347d565b60405180910390fd5b505b5050505050565b60008261252f8584612d3b565b1490509392505050565b60606000600161254884612d8b565b01905060008167ffffffffffffffff8111156125675761256661358e565b5b6040519080825280601f01601f1916602001820160405280156125995781602001600182028036833780820191505090505b509050600082602001820190505b6001156125fc578080600190039150507f3031323334353637383961626364656600000000000000000000000000000000600a86061a8153600a85816125f0576125ef6146de565b5b049450600085036125a7575b819350505050919050565b60007f01ffc9a7000000000000000000000000000000000000000000000000000000007bffffffffffffffffffffffffffffffffffffffffffffffffffffffff1916827bffffffffffffffffffffffffffffffffffffffffffffffffffffffff1916149050919050565b61268b828260405180602001604052806000815250612ede565b5050565b60006002600083815260200190815260200160002060009054906101000a900473ffffffffffffffffffffffffffffffffffffffff169050919050565b80806127055750600073ffffffffffffffffffffffffffffffffffffffff168273ffffffffffffffffffffffffffffffffffffffff1614155b1561283957600061271584611eb9565b9050600073ffffffffffffffffffffffffffffffffffffffff168373ffffffffffffffffffffffffffffffffffffffff161415801561278057508273ffffffffffffffffffffffffffffffffffffffff168173ffffffffffffffffffffffffffffffffffffffff1614155b801561279357506127918184611c31565b155b156127d557826040517fa9fbf51f0000000000000000000000000000000000000000000000000000000081526004016127cc919061347d565b60405180910390fd5b811561283757838573ffffffffffffffffffffffffffffffffffffffff168273ffffffffffffffffffffffffffffffffffffffff167f8c5be1e5ebec7d5bd14f71427d1e84f3dd0314c0f7b2291e5b200ac8c7c3b92560405160405180910390a45b505b836004600085815260200190815260200160002060006101000a81548173ffffffffffffffffffffffffffffffffffffffff021916908373ffffffffffffffffffffffffffffffffffffffff16021790555050505050565b60008061289d8461268f565b9050600073ffffffffffffffffffffffffffffffffffffffff168373ffffffffffffffffffffffffffffffffffffffff16146128df576128de818486612f02565b5b600073ffffffffffffffffffffffffffffffffffffffff168173ffffffffffffffffffffffffffffffffffffffff1614612970576129216000856000806126cc565b6001600360008373ffffffffffffffffffffffffffffffffffffffff1673ffffffffffffffffffffffffffffffffffffffff168152602001908152602001600020600082825403925050819055505b600073ffffffffffffffffffffffffffffffffffffffff168573ffffffffffffffffffffffffffffffffffffffff16146129f3576001600360008773ffffffffffffffffffffffffffffffffffffffff1673ffffffffffffffffffffffffffffffffffffffff168152602001908152602001600020600082825401925050819055505b846002600086815260200190815260200160002060006101000a81548173ffffffffffffffffffffffffffffffffffffffff021916908373ffffffffffffffffffffffffffffffffffffffff160217905550838573ffffffffffffffffffffffffffffffffffffffff168273ffffffffffffffffffffffffffffffffffffffff167fddf252ad1be2c89b69c2b068fc378daa952ba7f163c4a11628f55a4df523b3ef60405160405180910390a4809150509392505050565b6008805490506009600083815260200190815260200160002081905550600881908060018154018082558091505060019003906000526020600020016000909190919091505550565b6000612aff8361147b565b90506000600760008481526020019081526020016000205490506000600660008673ffffffffffffffffffffffffffffffffffffffff1673ffffffffffffffffffffffffffffffffffffffff1681526020019081526020016000209050828214612bab5760008160008581526020019081526020016000205490508082600085815260200190815260200160002081905550826007600083815260200190815260200160002081905550505b6007600085815260200190815260200160002060009055806000848152602001908152602001600020600090555050505050565b60006001600880549050612bf3919061470d565b9050600060096000848152602001908152602001600020549050600060088381548110612c2357612c22613ea0565b5b906000526020600020015490508060088381548110612c4557612c44613ea0565b5b906000526020600020018190555081600960008381526020019081526020016000208190555060096000858152602001908152602001600020600090556008805480612c9457612c93614741565b5b6001900381819060005260206000200160009055905550505050565b60006001612cbd8461147b565b612cc7919061470d565b905081600660008573ffffffffffffffffffffffffffffffffffffffff1673ffffffffffffffffffffffffffffffffffffffff168152602001908152602001600020600083815260200190815260200160002081905550806007600084815260200190815260200160002081905550505050565b60008082905060005b8451811015612d8057612d7182868381518110612d6457612d63613ea0565b5b6020026020010151612fc6565b91508080600101915050612d44565b508091505092915050565b600080600090507a184f03e93ff9f4daa797ed6e38ed64bf6a1f0100000000000000008310612de9577a184f03e93ff9f4daa797ed6e38ed64bf6a1f0100000000000000008381612ddf57612dde6146de565b5b0492506040810190505b6d04ee2d6d415b85acef81000000008310612e26576d04ee2d6d415b85acef81000000008381612e1c57612e1b6146de565b5b0492506020810190505b662386f26fc100008310612e5557662386f26fc100008381612e4b57612e4a6146de565b5b0492506010810190505b6305f5e1008310612e7e576305f5e1008381612e7457612e736146de565b5b0492506008810190505b6127108310612ea3576127108381612e9957612e986146de565b5b0492506004810190505b60648310612ec65760648381612ebc57612ebb6146de565b5b0492506002810190505b600a8310612ed5576001810190505b80915050919050565b612ee88383612ff1565b612efd612ef3611f7e565b6000858585612371565b505050565b612f0d8383836130ea565b612fc157600073ffffffffffffffffffffffffffffffffffffffff168373ffffffffffffffffffffffffffffffffffffffff1603612f8257806040517f7e273289000000000000000000000000000000000000000000000000000000008152600401612f7991906132aa565b60405180910390fd5b81816040517f177e802f000000000000000000000000000000000000000000000000000000008152600401612fb8929190613e77565b60405180910390fd5b505050565b6000818310612fde57612fd982846131ab565b612fe9565b612fe883836131ab565b5b905092915050565b600073ffffffffffffffffffffffffffffffffffffffff168273ffffffffffffffffffffffffffffffffffffffff16036130635760006040517f64a0ae9200000000000000000000000000000000000000000000000000000000815260040161305a919061347d565b60405180910390fd5b600061307183836000611f98565b9050600073ffffffffffffffffffffffffffffffffffffffff168173ffffffffffffffffffffffffffffffffffffffff16146130e55760006040517f73c6ac6e0000000000000000000000000000000000000000000000000000000081526004016130dc919061347d565b60405180910390fd5b505050565b60008073ffffffffffffffffffffffffffffffffffffffff168373ffffffffffffffffffffffffffffffffffffffff16141580156131a257508273ffffffffffffffffffffffffffffffffffffffff168473ffffffffffffffffffffffffffffffffffffffff16148061316357506131628484611c31565b5b806131a157508273ffffffffffffffffffffffffffffffffffffffff1661318983611f41565b73ffffffffffffffffffffffffffffffffffffffff16145b5b90509392505050565b600082600052816020526040600020905092915050565b6000604051905090565b600080fd5b600080fd5b60007fffffffff0000000000000000000000000000000000000000000000000000000082169050919050565b61320b816131d6565b811461321657600080fd5b50565b60008135905061322881613202565b92915050565b600060208284031215613244576132436131cc565b5b600061325284828501613219565b91505092915050565b60008115159050919050565b6132708161325b565b82525050565b600060208201905061328b6000830184613267565b92915050565b6000819050919050565b6132a481613291565b82525050565b60006020820190506132bf600083018461329b565b92915050565b600081519050919050565b600082825260208201905092915050565b60005b838110156132ff5780820151818401526020810190506132e4565b60008484015250505050565b6000601f19601f8301169050919050565b6000613327826132c5565b61333181856132d0565b93506133418185602086016132e1565b61334a8161330b565b840191505092915050565b6000602082019050818103600083015261336f818461331c565b905092915050565b600073ffffffffffffffffffffffffffffffffffffffff82169050919050565b60006133a282613377565b9050919050565b6133b281613397565b81146133bd57600080fd5b50565b6000813590506133cf816133a9565b92915050565b6133de81613291565b81146133e957600080fd5b50565b6000813590506133fb816133d5565b92915050565b60008060408385031215613418576134176131cc565b5b6000613426858286016133c0565b9250506020613437858286016133ec565b9150509250929050565b600060208284031215613457576134566131cc565b5b6000613465848285016133ec565b91505092915050565b61347781613397565b82525050565b6000602082019050613492600083018461346e565b92915050565b6000806000606084860312156134b1576134b06131cc565b5b60006134bf868287016133c0565b93505060206134d0868287016133c0565b92505060406134e1868287016133ec565b9150509250925092565b6134f48161325b565b81146134ff57600080fd5b50565b600081359050613511816134eb565b92915050565b6000806040838503121561352e5761352d6131cc565b5b600061353c858286016133c0565b925050602061354d85828601613502565b9150509250929050565b60006020828403121561356d5761356c6131cc565b5b600061357b848285016133c0565b91505092915050565b600080fd5b600080fd5b7f4e487b7100000000000000000000000000000000000000000000000000000000600052604160045260246000fd5b6135c68261330b565b810181811067ffffffffffffffff821117156135e5576135e461358e565b5b80604052505050565b60006135f86131c2565b905061360482826135bd565b919050565b600067ffffffffffffffff8211156136245761362361358e565b5b61362d8261330b565b9050602081019050919050565b82818337600083830152505050565b600061365c61365784613609565b6135ee565b90508281526020810184848401111561367857613677613589565b5b61368384828561363a565b509392505050565b600082601f8301126136a05761369f613584565b5b81356136b0848260208601613649565b91505092915050565b6000602082840312156136cf576136ce6131cc565b5b600082013567ffffffffffffffff8111156136ed576136ec6131d1565b5b6136f98482850161368b565b91505092915050565b60008060408385031215613719576137186131cc565b5b6000613727858286016133ec565b925050602061373885828601613502565b9150509250929050565b6000819050919050565b61375581613742565b82525050565b6000602082019050613770600083018461374c565b92915050565b600067ffffffffffffffff8211156137915761379061358e565b5b61379a8261330b565b9050602081019050919050565b60006137ba6137b584613776565b6135ee565b9050828152602081018484840111156137d6576137d5613589565b5b6137e184828561363a565b509392505050565b600082601f8301126137fe576137fd613584565b5b813561380e8482602086016137a7565b91505092915050565b60008060008060808587031215613831576138306131cc565b5b600061383f878288016133c0565b9450506020613850878288016133c0565b9350506040613861878288016133ec565b925050606085013567ffffffffffffffff811115613882576138816131d1565b5b61388e878288016137e9565b91505092959194509250565b6138a381613742565b81146138ae57600080fd5b50565b6000813590506138c08161389a565b92915050565b6000602082840312156138dc576138db6131cc565b5b60006138ea848285016138b1565b91505092915050565b600080fd5b600080fd5b60008083601f84011261391357613912613584565b5b8235905067ffffffffffffffff8111156139305761392f6138f3565b5b60208301915083602082028301111561394c5761394b6138f8565b5b9250929050565b6000806000806060858703121561396d5761396c6131cc565b5b600061397b878288016133ec565b945050602061398c878288016133ec565b935050604085013567ffffffffffffffff8111156139ad576139ac6131d1565b5b6139b9878288016138fd565b925092505092959194509250565b600080600080608085870312156139e1576139e06131cc565b5b60006139ef878288016133ec565b9450506020613a00878288016133ec565b9350506040613a11878288016133ec565b9250506060613a22878288016133ec565b91505092959194509250565b60008060408385031215613a4557613a446131cc565b5b6000613a53858286016133c0565b9250506020613a64858286016133c0565b9150509250929050565b6000608082019050613a83600083018761329b565b613a90602083018661329b565b613a9d604083018561329b565b613aaa606083018461329b565b95945050505050565b7f4e487b7100000000000000000000000000000000000000000000000000000000600052602260045260246000fd5b60006002820490506001821680613afa57607f821691505b602082108103613b0d57613b0c613ab3565b5b50919050565b7f4e487b7100000000000000000000000000000000000000000000000000000000600052601160045260246000fd5b6000613b4d82613291565b9150613b5883613291565b9250828201905080821115613b7057613b6f613b13565b5b92915050565b7f4f7574206f662053746f636b0000000000000000000000000000000000000000600082015250565b6000613bac600c836132d0565b9150613bb782613b76565b602082019050919050565b60006020820190508181036000830152613bdb81613b9f565b9050919050565b7f4e6f7420616e20617070726f766564206d696e74657200000000000000000000600082015250565b6000613c186016836132d0565b9150613c2382613be2565b602082019050919050565b60006020820190508181036000830152613c4781613c0b565b9050919050565b7f50657263656e746167652063616e6e6f74206578636565642031303000000000600082015250565b6000613c84601c836132d0565b9150613c8f82613c4e565b602082019050919050565b60006020820190508181036000830152613cb381613c77565b9050919050565b6000606082019050613ccf600083018661346e565b613cdc602083018561329b565b613ce9604083018461346e565b949350505050565b6000613cfc82613291565b9150613d0783613291565b9250828202613d1581613291565b91508282048414831517613d2c57613d2b613b13565b5b5092915050565b7f496e73756666696369656e742046756e64000000000000000000000000000000600082015250565b6000613d696011836132d0565b9150613d7482613d33565b602082019050919050565b60006020820190508181036000830152613d9881613d5c565b9050919050565b7f4d696e7420746f6f206d616e7900000000000000000000000000000000000000600082015250565b6000613dd5600d836132d0565b9150613de082613d9f565b602082019050919050565b60006020820190508181036000830152613e0481613dc8565b9050919050565b7f5075626c6963206d696e74206e6f742061637469766500000000000000000000600082015250565b6000613e416016836132d0565b9150613e4c82613e0b565b602082019050919050565b60006020820190508181036000830152613e7081613e34565b9050919050565b6000604082019050613e8c600083018561346e565b613e99602083018461329b565b9392505050565b7f4e487b7100000000000000000000000000000000000000000000000000000000600052603260045260246000fd5b60008190508160005260206000209050919050565b60006020601f8301049050919050565b600082821b905092915050565b600060088302613f317fffffffffffffffffffffffffffffffffffffffffffffffffffffffffffffffff82613ef4565b613f3b8683613ef4565b95508019841693508086168417925050509392505050565b6000819050919050565b6000613f78613f73613f6e84613291565b613f53565b613291565b9050919050565b6000819050919050565b613f9283613f5d565b613fa6613f9e82613f7f565b848454613f01565b825550505050565b600090565b613fbb613fae565b613fc6818484613f89565b505050565b5b81811015613fea57613fdf600082613fb3565b600181019050613fcc565b5050565b601f82111561402f5761400081613ecf565b61400984613ee4565b81016020851015614018578190505b61402c61402485613ee4565b830182613fcb565b50505b505050565b600082821c905092915050565b600061405260001984600802614034565b1980831691505092915050565b600061406b8383614041565b9150826002028217905092915050565b614084826132c5565b67ffffffffffffffff81111561409d5761409c61358e565b5b6140a78254613ae2565b6140b2828285613fee565b600060209050601f8311600181146140e557600084156140d3578287015190505b6140dd858261405f565b865550614145565b601f1984166140f386613ecf565b60005b8281101561411b578489015182556001820191506020850194506020810190506140f6565b868310156141385784890151614134601f891682614041565b8355505b6001600288020188555050505b505050505050565b7f4e6f7420616c6c6f776564000000000000000000000000000000000000000000600082015250565b6000614183600b836132d0565b915061418e8261414d565b602082019050919050565b600060208201905081810360008301526141b281614176565b9050919050565b7f57686974656c697374206d696e74206e6f742061637469766500000000000000600082015250565b60006141ef6019836132d0565b91506141fa826141b9565b602082019050919050565b6000602082019050818103600083015261421e816141e2565b9050919050565b7f457863656564732077686974656c69737420616c6c6f77616e63650000000000600082015250565b600061425b601b836132d0565b915061426682614225565b602082019050919050565b6000602082019050818103600083015261428a8161424e565b9050919050565b60008160601b9050919050565b60006142a982614291565b9050919050565b60006142bb8261429e565b9050919050565b6142d36142ce82613397565b6142b0565b82525050565b6000819050919050565b6142f46142ef82613291565b6142d9565b82525050565b600061430682856142c2565b60148201915061431682846142e3565b6020820191508190509392505050565b7f496e76616c6964204d65726b6c652070726f6f66000000000000000000000000600082015250565b600061435c6014836132d0565b915061436782614326565b602082019050919050565b6000602082019050818103600083015261438b8161434f565b9050919050565b7f746f6b656e20646f6573206e6f74206578697374000000000000000000000000600082015250565b60006143c86014836132d0565b91506143d382614392565b602082019050919050565b600060208201905081810360008301526143f7816143bb565b9050919050565b600081905092915050565b6000815461441681613ae2565b61442081866143fe565b9450600182166000811461443b576001811461445057614483565b60ff1983168652811515820286019350614483565b61445985613ecf565b60005b8381101561447b5781548189015260018201915060208101905061445c565b838801955050505b50505092915050565b6000614497826132c5565b6144a181856143fe565b93506144b18185602086016132e1565b80840191505092915050565b7f2d7370656369616c000000000000000000000000000000000000000000000000600082015250565b60006144f36008836143fe565b91506144fe826144bd565b600882019050919050565b60006145158285614409565b9150614521828461448c565b915061452c826144e6565b91508190509392505050565b7f2e6a736f6e000000000000000000000000000000000000000000000000000000600082015250565b600061456e6005836143fe565b915061457982614538565b600582019050919050565b60006145908285614409565b915061459c828461448c565b91506145a782614561565b91508190509392505050565b60006145be82613291565b91507fffffffffffffffffffffffffffffffffffffffffffffffffffffffffffffffff82036145f0576145ef613b13565b5b600182019050919050565b600081519050919050565b600082825260208201905092915050565b6000614622826145fb565b61462c8185614606565b935061463c8185602086016132e1565b6146458161330b565b840191505092915050565b6000608082019050614665600083018761346e565b614672602083018661346e565b61467f604083018561329b565b81810360608301526146918184614617565b905095945050505050565b6000815190506146ab81613202565b92915050565b6000602082840312156146c7576146c66131cc565b5b60006146d58482850161469c565b91505092915050565b7f4e487b7100000000000000000000000000000000000000000000000000000000600052601260045260246000fd5b600061471882613291565b915061472383613291565b925082820390508181111561473b5761473a613b13565b5b92915050565b7f4e487b7100000000000000000000000000000000000000000000000000000000600052603160045260246000fdfea2646970667358221220047a484560e8acab99592b276dce0cad5583c1777fdb292ac32acbb5bc858d0964736f6c634300081b0033",
  "linkReferences": {},
  "deployedLinkReferences": {}
}